:1000000000800020B1010000DD010000DD010000E2
:10001000DD010000DD010000DD010000DD01000068
:10002000DD010000DD010000DD010000DD01000058
:10003000DD010000DD010000DD010000DD01000048
:10004000BD140000DD010000DD010000DD01000045
:10005000DD010000DD010000DD010000F5290000E8
:10006000DD010000DD010000DD010000653300005E
:10007000DD010000DD010000DD010000DD01000008
:10008000DD010000B93A0000DD010000DD010000E3
:10009000DD010000DD010000DD010000DD010000E8
:1000A000A5440000DD010000E1420000DD01000088
:1000B000DD010000DD010000A53A0000DD010000C7
:1000C000DD010000DD010000DD010000DD010000B8
:1000D000DD010000DD010000DD010000DD010000A8
:1000E00010B5054C237833B9044B13B10448AFF372
:1000F00000800123237010BD0001002000000000DB
:1001000028590000084B10B51BB108480849AFF347
:1001100000800848036803B910BD074B002BFBD0D3
:10012000BDE81040184700BF00000000285900003B
:10013000040100207800002000000000154B002B77
:1001400008BF134B9D46A3F5803A00218B460F460E
:100150001348144A121A05F0E2FA0F4B002B00D094
:1001600098470E4B002B00D0984700200021040038
:100170000D000D48002802D00C48AFF3008005F0B8
:1001800095FA2000290004F013FB05F07BFA00BF6C
:1001900000000800008000200000000000000000B7
:1001A00000010020040A0020000000000000000000
:1001B000064880470649074A074B9A42BEBF51F896
:1001C000040B42F8040BF8E7FFF7B8FF5D030000EB
:1001D00034590000000000207C000020FEE700BF32
:1001E00080B400AF044BDB6C1B0EDBB21846BD467F
:1001F0005DF8047B704700BFB081E00F80B582B02E
:1002000000AF00F01FF87860074B5B6803F00F0346
:100210001A467B68D3407B60044A7B6813607B6826
:1002200018460837BD4680BD00800C40F80200200B
:1002300080B400AF024B1846BD465DF8047B7047A2
:10024000006CDC0280B582B000AF334BDB6A03F494
:100250007053B3F5805F0AD0B3F5005F03D0B3F5F8
:10026000006F08D00BE02D4B1B687B6047E04FF41C
:1002700000437B6043E02A4B1B687B603FE0264BDA
:10028000DB6803F4E063B3F5007F1BD0B3F5007FB8
:1002900005D8002B24D0B3F5807F16D02BE0B3F522
:1002A000806F09D0B3F5A06F03D0B3F5407F06D0BF
:1002B00021E01C4B7B6021E01B4B7B601EE01B4B55
:1002C0007B601BE01A4B7B6018E0FFF789FF034659
:1002D000122B02D9174B7B6010E0174B7B600DE0AF
:1002E000FFF77EFF0346122B02D9144B7B6005E01B
:1002F000134B7B6002E000237B6000BF00BF064B16
:100300001B6803F4E0339B0B01337A68B2FBF3F311
:1003100018460837BD4680BD00800C400400002010
:1003200000000020003FAB01406F4001809FD500DE
:10033000C0D8A70040B56400C0CF6A00804F12004B
:1003400040420F0080B400AF034B1B681846BD4607
:100350005DF8047B704700BF0000002080B400AF50
:10036000BD465DF8047B704780B400AF4FF4004396
:100370001846BD465DF8047B704700BF80B400AFEF
:100380004FF47A731846BD465DF8047B704700BF92
:1003900080B400AF034B1B681846BD465DF8047B74
:1003A000704700BF0400002080B487B000AFF86041
:1003B000B9607A60FB6803F10473DA00BB68134428
:1003C0009B007B617B697A681A601C37BD465DF8CB
:1003D000047B704780B582B000AF786039607B687D
:1003E0001D4A934203D07B681C4A934200D100BF50
:1003F0003B681B78DA073B685B789B0713431A4618
:100400003B685B681B0613433A68127A1202134377
:100410003A68527A12011A437B681A603B689B7AE9
:100420001B071A463B68DB7A1B041A433B68DB68F0
:100430001B02134343F0807343F0B0037A685360A8
:100440007A683B681B7C104600211A46FFF7ACFF18
:100450000837BD4680BD00BF0010004000140040BA
:1004600080B487B000AF78600B46FB701346BB705A
:10047000BB78002B04D01023FB603E4B3B6103E0B4
:100480000023FB603C4B3B617B685A6B3B6913402C
:10049000BB6000237B61FB78062B5BD801A252F87E
:1004A00023F000BFC1040000DF04000003050000CA
:1004B0002105000055050000550500004505000018
:1004C0002E4B5B6803F4FE437A6913437B612B4B2D
:1004D0005B6803F07F037A6913437B613DE0274B40
:1004E0005B6803F0FE431B0E1B027A6913437B61BA
:1004F000224B5B6803F4FE031B0C7A6913437B6198
:100500002BE01E4B9B6803F4FE437A6913437B6127
:100510001A4B9B6803F07F037A6913437B611CE0ED
:10052000164B9B6803F0FE431B0E1B027A691343B4
:100530007B61124B9B6803F4FE031B0C7A69134327
:100540007B610AE00D4BDB6803F07F037A6913439C
:100550007B6102E000237B6100BFFB687A699A40FF
:10056000BB681A437B685A631C37BD465DF8047B41
:10057000704700BFFFFF80808080FFFFB081E00FE9
:1005800080B584B000AF786039603B681B79FB723E
:10059000FB7A002B06D11B48002100F083F80346AC
:1005A000FB7208E01748002100F07CF84FF4FA4095
:1005B000002100F077F87B680A225A603B681B78BC
:1005C0001A063B68DB781B0403F4FE031A43FB7A2C
:1005D0001B0203F4FE431A433B685B781B01134381
:1005E0003A6892781343FB603B685B79002B03D039
:1005F000FB6843F00803FB607B68FA681A601037F9
:10060000BD4680BD405DC60080B584B000AF786057
:1006100039607B6802225A603B689B78786819468B
:100620000022FFF71DFF3B681B781A073B685B78C9
:100630001B051A433B681B791B0213431A463B6890
:10064000DB781B011343FB603B689B79002B03D0D5
:10065000FB6843F08073FB603B68DB79002B03D0C1
:10066000FB6843F00403FB603B685B79002B03D01D
:10067000FB6843F00203FB603B681B7A002B03D04E
:10068000FB6843F00103FB603B689B781B041A4640
:10069000FB681343FB607B68FA68DA601037BD467D
:1006A00080BD00BF80B584B000AF786039607B68E2
:1006B000134A934202D9124B7B6006E07B68B3F584
:1006C000FA4F02D24FF4FA437B603B68002B03D110
:1006D0000C4800F01DFB38603A687B6813445A1ED2
:1006E0007B68B2FBF3F3FB60FB68002B02D0FB6876
:1006F000013BFB60FB68DBB218461037BD4680BD8E
:10070000405DC6004081040080B582B000AF7860D3
:100710007B68002B08D1114800F0FAFA78607B68FA
:10072000002B01D101237B607B680D4A934201D9E4
:100730000B4B7B607B6803F5742303F23F237B60E4
:100740007B68084AA2FB03239B0C7B607B68DBB2BF
:10075000013BDBB218460837BD4680BD408104002E
:100760000048E80183DE1B4380B487B000AFF86027
:10077000B9607A60FB6803F10473DA00BB68134464
:100780009B007B617B697A681A601C37BD465DF807
:10079000047B704780B485B000AF786039607B68B7
:1007A00003F10473DA003B6813449B00FB60FB68B1
:1007B0001B6818461437BD465DF8047B704700BFC0
:1007C00080B485B000AF78607B68002B04D07B6874
:1007D000B3F5004F00D800BF7B68B3FA83F3C3F1D1
:1007E0001F03FB60FB6818461437BD465DF8047BA9
:1007F000704700BF80B400AF044BDB6C1B0EDBB254
:100800001846BD465DF8047B704700BFB081E00F1D
:1008100080B400AF054BDB6C03F47F031B0CDBB231
:100820001846BD465DF8047B704700BFB081E00FFD
:1008300080B582B000AFFFF7EBFF03464A2B04D030
:10084000792B02D0482B21D022E0144B1B699BB29C
:1008500003F03F039BB21B02FB80104B9B6903F02C
:10086000F0039AB2FB881343FB800C4BDB6903F067
:10087000F0031B099AB2FB881343FB80FB88B3F596
:10088000017F01D3064B04E0064B02E0054B00E07C
:10089000002318460837BD4680BD00BFD0FF0FE0DB
:1008A00000366E010048E80180B584B000AF786082
:1008B00039607A683B689A428CBF01230023DBB21F
:1008C000FB6006481E21FA68FFF74EFF0448082126
:1008D000FA68FFF749FF1037BD4680BD00800C4025
:1008E00004800C4080B582B000AF07481E21FFF79E
:1008F00051FF786005480821FFF74CFF38607B689E
:1009000018460837BD4680BD00800C4004800C406E
:1009100080B582B000AF214B5B6903F4E063B3F5AF
:10092000007F1CD0B3F5007F05D8002B25D0B3F590
:10093000807F1FD02AE0B3F5C06F24D0B3F5E06FFD
:100940001ED0B3F5407F21D1FFF754FF0346122B91
:1009500002D9134B7B601CE0124B7B6019E0FFF760
:1009600049FF0346122B02D90F4B7B6011E00F4B5E
:100970007B600EE00E4B7B600BE00E4B7B6008E073
:100980000D4B7B6005E00D4B7B6002E000237B603C
:1009900000BF7B6818460837BD4680BD00800C400C
:1009A000804F120040420F0040B56400C0CF6A0083
:1009B000C0D8A700809FD500406F4001003FAB0129
:1009C00080B582B000AF0D4800F08EFA0346FB7090
:1009D000FB78072B05D0082B07D1FFF733FC786095
:1009E00006E0FFF795FF786002E000237B6000BF20
:1009F0007B6818460837BD4680BD00BF06000C0066
:100A000080B485B000AF7860284BDB6B002B14BF3F
:100A100001230023BB72254B41F67132DA63234B6D
:100A20005B6803F00703FB60FB68012B01D9042B13
:100A300002D10023FB7202E00123FB7200BF7B683E
:100A40001B4A934207D9FB7A002B01D0052300E013
:100A50000423FB6016E07B68154A93420BD87B6841
:100A6000144A934207D9FB7A002B01D0032300E0FC
:100A70000123FB6006E0FB7A002B01D0022300E09B
:100A80000023FB600949094B5B6823F00702FB6800
:100A900013434B60BB7A002B02D0044B0022DA6375
:100AA0001437BD465DF8047B704700BF00000C4062
:100AB0000048E8010024F40080B500AFFFF7B8FB60
:100AC00003461846FFF79CFF80BD00BF90B585B078
:100AD00000AF78600023BB607B68344A934203D048
:100AE000334A934200D000E000BF786800F0FCF980
:100AF0000346FB607B682D4A934203D02C4A934205
:100B000006D00CE02B4B9B6A03F00303FB6006E06E
:100B1000284B9B6A03F00C039B08FB6000BFFB683B
:100B2000032B3AD801A252F823F000BF630B000058
:100B30003D0B0000450B00004D0B0000FFF714FCBF
:100B4000B8602DE0FFF724FCB86029E0FFF756FB02
:100B50000446FFF7C7FE0346013324FA03F3BB60E4
:100B60001EE00023BB607B68104A934203D07B6881
:100B70000F4A934210D10F4B9A6A7B680B498B4204
:100B800001D1102300E0142322FA03F3002B03D039
:100B9000FFF7F4FBB86003E002E00023BB6000BF96
:100BA000BB6818461437BD4690BD00BF02001A004E
:100BB00003001C0000800C4080B483B000AF78605C
:100BC000094B5B6D03F00103002B00D006E000BF72
:100BD000054B1A6D7B681340002BF9D10C37BD46CD
:100BE0005DF8047B704700BF00800C4080B582B088
:100BF00000AF104800F078F90346FB70FB78032B38
:100C000007D0082B09D0022B0BD1FFF7C1FB78606E
:100C10000AE0FFF7A9FB786006E0FFF713FB7860B6
:100C200002E000237B6000BF7B6818460837BD46A2
:100C300080BD00BF0723220090B587B000AF786069
:100C40000B46FB7000233B617B681B0A03F00F031C
:100C5000013B092B49D801A252F823F0A10C000056
:100C6000A70C0000850C0000EB0C0000EB0C000052
:100C7000AD0C0000B70C0000EB0C0000EB0C00000A
:100C8000C10C00001B4B7B611B4800F041F804467F
:100C9000FFF7CEFD034620461946FFF705FE12E09A
:100CA000164B7B610FE0164B7B610CE0154B7B61B3
:100CB00001233B6107E0144B7B6110233B6102E0A1
:100CC000124B7B6100BF7B681B0B03F01F03FB60B3
:100CD0003B69002B02D03869FFF76EFFFB7878691B
:100CE000F9681A46FFF740FD00E000BF1C37BD461B
:100CF00090BD00BF40800C400043020008800C40C3
:100D000044800C4058800C4060800C4078800C403F
:100D100090B585B000AF78607B6803F47813B3F5C5
:100D2000B01F00F0AB80B3F5B01F1AD8B3F5402F59
:100D300000F0BF80B3F5402F08D8B3F5003F3CD09A
:100D4000B3F5802F2DD0002B27D0BEE0B3F5801F48
:100D50003CD0B3F5A01F47D0B3F5602F00F0AD80B5
:100D6000B3E0B3F5081F00F0AC80B3F5081F0AD854
:100D7000B3F5D01F25D0B3F5E01F7AD0B3F5C01F6F
:100D800000F08980A1E0B3F5201F4ED0B3F5281FF5
:100D900062D0B3F5181F35D097E0FFF753FAF8602B
:100DA00096E0FFF74FFAF8604C4B9B6803F00F0397
:100DB0001A46FB68D340FB608AE0FFF71FFAF86031
:100DC00086E04748FFF782FEF86081E04448FFF77D
:100DD0007DFEF860414B9B6E03F0F0031B091A4641
:100DE000FB68D340FB6073E03D48FFF76FFEF8609F
:100DF0003A4B9B6E03F470631B0A1A46FB68D340A0
:100E0000FB6065E03648FFF761FEF860334B9B6E90
:100E100003F440531C0B1020FFF7D2FC034623447D
:100E20001A46FB68D340FB6052E02D48FFF74EFEA8
:100E3000F8602A4B9B6E03F440531B0B1A46FB6869
:100E4000D340FB60254BDB6F03F007030133FA68E7
:100E5000B2FBF3F3FB603BE02148FFF737FEF8609D
:100E60001E4B9B6E03F003031A46FB68D340FB60E6
:100E70002EE01C48FFF72AFEF86029E01948FFF72A
:100E800025FEF860154B1B6F03F003031A46FB6841
:100E9000D340FB601CE01348FFF718FEF8600F4BCF
:100EA0001B6F03F030031B091A46FB68D340FB603D
:100EB0000EE0FFF785FDF8600AE0FFF729FDF86016
:100EC00006E0FFF793FEF86002E00023FB6000BF3E
:100ED000FB6818461437BD4690BD00BF00800C402B
:100EE00002001A0003001C0080B485B000AF7860D7
:100EF0000123FB737B6803F00F03BB60BB68013BFE
:100F0000062B00F2938001A252F823F0290F000073
:100F10005F0F00009B0F00002D1000002D1000003F
:100F2000D70F0000F90F0000454BDB6A03F4705344
:100F3000B3F5805F09D0B3F5005F03D0B3F5006F60
:100F400006D008E00223FB7308E00323FB7305E0EF
:100F50000423FB7302E00523FB7300BF69E0384BF9
:100F60009B6A03F00303022B06D0032B07D0012B4F
:100F700008D10323FB730FE00223FB730CE006236D
:100F8000FB7309E02E4B9B6A03F48033002B02D0E5
:100F90000923FB7300E000BF4BE0294B9B6A03F081
:100FA0000C03082B06D00C2B07D0042B08D10323ED
:100FB000FB730FE00223FB730CE00623FB7309E0D5
:100FC0001F4B9B6A03F48013002B02D00923FB7391
:100FD00000E000BF2DE01A4B1B6803F08053002B8C
:100FE00003D0B3F1805F03D023E00723FB7302E05B
:100FF0000823FB7300BF1CE0114BDB6A03F4603372
:10100000B3F5803F08D0B3F5003F08D0B3F5004FEB
:1010100008D10823FB7308E00223FB7305E00323D8
:10102000FB7302E00123FB7300BF02E00023FB73AC
:1010300000BFFB7B18461437BD465DF8047B704744
:1010400000800C4090B589B000AF78600B46FB7013
:101050000323FB610323FB7600233B617B6803F0E2
:101060000F03FB60FB68013B062B00F2348101A2F9
:1010700052F823F0911000007D1100007D11000056
:10108000D7120000D7120000451200006F120000B6
:10109000FB78023B072B00F2228101A252F823F0D9
:1010A000C1100000CB100000D51000001F1100007F
:1010B000DF120000DF120000DF120000DF1200006C
:1010C0000423FB610023FB7639E00323FB6101234A
:1010D000FB7634E00223FB610223FB76FFF7A8FBDB
:1010E00003465C1CFFF7A4FB034620461946FFF7A6
:1010F000DBFBFFF727F902467C4B9A4206D97C4A74
:101100007B4B1B6843F06003136018E0784A784B10
:101110001B6823F0600343F0200313600FE00123FA
:10112000FB610323FB76FFF783FB03465C1CFFF7A1
:101130007FFB034620461946FFF7B6FB00BFFB7E48
:1011400018460121012200F0D9F8FFF7B5FC684AE2
:10115000FB6953626748FFF7DBFD0446FFF768FB56
:10116000034620461946FFF79FFB00F077FCFFF788
:1011700045F8B860B868FFF743FCADE0FB78013B89
:10118000082B00F2AE8001A252F823F0B11100004A
:10119000B7110000C7110000E3120000E3120000C5
:1011A000D7110000E3120000E3120000FB11000061
:1011B00000237B6126E000200121012200F09EF83F
:1011C00002237B611EE001200121012200F096F83C
:1011D00001237B6116E0FFF711F8B860FFF728FBE9
:1011E0000346B8681946FFF75FFB43480421012214
:1011F000FFF7BAFA03237B6104E000237B6101233C
:101200003B6100BFFB68022B0DD13949384B9B6A0B
:1012100023F4803323F003037A691A433B691B04E8
:1012200013438B6258E03249314B9B6A23F480139D
:1012300023F00C037A6992001A433B691B051343A0
:101240008B6249E0FB78072B02D0082B07D049E0DE
:10125000274A274B1B6823F08053136006E0244A7B
:10126000234B1B6843F08053136000BF34E0FB78CE
:10127000032B14D0082B22D0022B00D032E0002008
:101280000121012200F03AF8194B40225A6200BFB6
:10129000174BDB6A03F48033002BF9D01AE00120EE
:1012A0000121012200F02AF8114B60225A6200BF8E
:1012B0000F4BDB6A03F40033002BF9D00AE00C4B30
:1012C00020225A6200BF0A4BDB6A03F40043002B62
:1012D000F9D000BF00E000BFFFF704FB02E000BF51
:1012E00000E000BF2437BD4690BD00BF0048E801C4
:1012F00000800C400043020040800C4080B586B066
:1013000000AF0346FB710B46BB7113467B71FB7943
:10131000042B4AD801A252F823F000BF6913000041
:101320005B1300003F130000311300004D13000059
:1013300001233B610223FB6001237B611DE0042349
:101340003B610823FB6003237B6116E010233B61B4
:101350002023FB6005237B610FE040233B6180235A
:10136000FB6007237B6108E04FF480733B614FF41F
:101370000073FB6009237B6100BFBB79002B0ED09B
:101380000C4A3B6913627B79002B0BD000BF0A48E3
:101390007969FFF7FFF90346002BF8D002E0054A10
:1013A000FB68136200F05AFB00E000BF1837BD462F
:1013B00080BD00BF00800C402C800C4080B483B006
:1013C00000AFEFF310833B603B687B6072B67B68D5
:1013D00018460C37BD465DF8047B704780B483B077
:1013E00000AF78607B68002B00D162B60C37BD4639
:1013F0005DF8047B704700BF80B483B000AF034644
:10140000FB71084997F907305B09FA7902F01F026E
:10141000012000FA02F241F823200C37BD465DF8A6
:10142000047B704700E100E080B483B000AF034666
:10143000FB71094997F907305B09FA7902F01F023D
:10144000012000FA02F2203341F823200C37BD4678
:101450005DF8047B704700BF00E100E080B483B01A
:1014600000AF0346FB71094997F907305B09FA7928
:1014700002F01F02012000FA02F2603341F823203B
:101480000C37BD465DF8047B704700BF00E100E00B
:1014900080B487B000AFF860B9607A60FB6803F190
:1014A0000473DA00BB6813449B007B617B697A6834
:1014B0001A601C37BD465DF8047B704780B58AB062
:1014C00000AF334B03F580531B68BB61304B03F512
:1014D00080530C331B68BA691340BB612C4B9B6B68
:1014E0007B61BA697B6913403B620023FB6149E081
:1014F00000237B623BE03B6A03F00103002B30D00A
:10150000234B9B683B6101227B6A02FA03F3FB6079
:101510001F4B03F580530833FA681A607B6A1B017E
:101520003A691344DB68BB60BB68002B19D0BB6809
:101530001B7A7B60BB681B7A83F00103DAB2BB685D
:101540001A72BB681B68002B0BD0BB681B68786ADB
:101550007A68002A14BF01220022D1B2BA68526808
:1015600098473B6A5B083B627B6A01337B623B6A5C
:10157000002BC0D17B69DA43BB6913403B62FB6936
:101580000133FB61FB69012BB2DD2837BD4680BD0D
:1015900000200C4080B584B000AF786039601F4BEC
:1015A0009B68FB607B681B01FA6813443A68926889
:1015B000DA603B681B78002B06D0184A7B68012153
:1015C00001FA03F3936305E0144A7B68012101FAF1
:1015D00003F3D36311493B685A687B6803F588635A
:1015E00041F823203B685B78002B0FD00B4A7B68C7
:1015F000012101FA03F3194602F5805308331960FB
:10160000074879680122FFF743FF04E0044879683E
:101610000022FFF73DFF1037BD4680BD00200C4083
:101620000C300C4080B487B000AFF8600B467A6095
:10163000FB72FB7A002B03D0154B9B687B6102E0A9
:10164000134BDB687B61FB681B017A6913447B6188
:101650007B681B789A077B689B781B071A437B681B
:101660005B789B061A437B689B781B0613431A46DC
:101670007B681B799B0413437A68D27892031A43E0
:101680007B699A601C37BD465DF8047B704700BFDC
:1016900000200C4080B582B000AF78601048012176
:1016A000FFF7CAFA00F020F80020FFF7D7FE00206D
:1016B000FFF7A2FE0B4B03F580530C334FF00042B3
:1016C0001A60084A7B685B689360064A7B681B78EF
:1016D0005B0143F0010353600837BD4680BD00BF86
:1016E0000003020000200C4080B582B000AF002053
:1016F000FFF79AFE1C4B00225A601B4B40F6FF720C
:10170000DA61194B40F6FF725A62174B40F6FF72CE
:10171000DA62154B40F6FF725A63134B40F6FF72C4
:10172000DA63114B0122DA640F4B03F580530C335B
:1017300000221A600C4B03F5805308330B4A1A60E1
:1017400000237B6009E0084A7B6803F58863002179
:1017500042F823107B6801337B607B680B2BF2DD42
:101760000837BD4680BD00BF00200C40FF0F008041
:1017700080B500AFFEF742FD80BD00BF80B400AF72
:10178000034B0022C3F88420BD465DF8047B7047FC
:1017900000800C4080B400AF044B45F60E02C3F845
:1017A0008420BD465DF8047B704700BF00800C407C
:1017B00080B582B000AF384BD3F8843003F001031A
:1017C0007B60FFF7E7FF00233B60344B1B6803F0AF
:1017D00001033A6813433B60304B1B6803F010036E
:1017E0003A6813433B602D4B1B6803F040033A6893
:1017F00013433B60294B1B6803F004033A6813430F
:101800003B60264B1B6803F480733A6813433B60CC
:10181000214A3B681362214B1B6803F47053B3F5F4
:10182000805F06D0B3F5005F0ED0B3F5006F16D021
:1018300020E000BF184BDB6A03F08003002BF9D0D7
:10184000154B03225A6215E000BF134BDB6A03F409
:101850000073002BF9D0104B04225A620AE000BF3B
:101860000D4BDB6A03F00803002BF9D00A4B022270
:101870005A6200BF094B1B6803F00103002B02D121
:10188000054B02221A627B68002B01D0FFF776FF1E
:101890000837BD4680BD00BF00800C401C01002001
:1018A00080B483B000AF164B1B699BB203F03F03BB
:1018B0009BB21B02FB80124B9B6903F0F0039AB2B0
:1018C000FB881343FB800E4BDB6903F0F0031B091D
:1018D0009AB2FB881343FB80FB88B3F5827F03D366
:1018E000FB88B3F5017F01D1012300E0002303F061
:1018F0000103DBB218460C37BD465DF8047B704728
:10190000D0FF0FE080B586B000AF0346FB711F4BE0
:10191000DB6A1F4A13601F4A1E4B1B6943F0040316
:101920001361FFF7BDFF0346FB75FB7D002B11D054
:10193000194B1A68194B1340FB60174AFB68C2F831
:101940008030154B5B6823F046033B61124A3B69CC
:10195000C2F8843030BFFB7D002B05D00E4AFB68F7
:1019600013600D4A3B695360FB79002B02D0FFF7EF
:101970001FFF07E0064B1B6803F48063002B01D1B7
:10198000FFF7F6FE1837BD4680BD00BF00800C4053
:101990001C01002000ED00E000E100E09CF1FD00F2
:1019A00080B586B000AF0346FB71274BDB6A274A40
:1019B0001360254BD3F8843003F001037B61FFF7FC
:1019C000E9FE214B4FF420721A627B69002B01D093
:1019D000FFF7D4FE1E4A1E4B1B6943F0040313613C
:1019E000FFF75EFF0346FB74FB7C002B11D0194B05
:1019F0001A68194B1340BB60164ABB68C2F88030A6
:101A0000144B5B6823F04603FB60124AFB68C2F884
:101A1000843030BFFB7C002B05D00E4ABB681360BE
:101A20000C4AFB685360FB79002B02D0FFF7C0FE25
:101A300007E0064B1B6803F48063002B01D1FFF71E
:101A400097FE1837BD4680BD00800C401C01002069
:101A500000ED00E000E100E09CF1FD0080B400AF8B
:101A6000034BDB6A034A1360BD465DF8047B704795
:101A700000800C401C01002080B483B000AF0346FE
:101A80003960FB71FB79002B0DD0FB79012B0AD05B
:101A9000FB79022B07D0FB79032B04D0FB79042BB5
:101AA00001D0FB79052B0949FA793B68012000FA3E
:101AB00003F318461346DB0013449B000B4410331A
:101AC00058600C37BD465DF8047B704700600040ED
:101AD00080B483B000AF03463960FB71FB79002B03
:101AE0000DD0FB79012B0AD0FB79022B07D0FB79B3
:101AF000032B04D0FB79042B01D0FB79052B09497A
:101B0000FA793B68012000FA03F318461346DB001C
:101B100013449B000B44103318600C37BD465DF82E
:101B2000047B70470060004090B482B000AF034671
:101B30000A46FB711346BB71FB79002B0ED0FB7973
:101B4000012B0BD0FB79022B08D0FB79032B05D09E
:101B5000FB79042B02D0FB79052B03D1BB79032B36
:101B600000D800BF0B48FA790A4CF9790B46DB0024
:101B70000B449B0023441B6823F00301BB791943EA
:101B80001346DB0013449B00034419600837BD462D
:101B900090BC70470060004090B585B000AFB96060
:101BA0007B600346FB731346BB73FB7B002B0DD09E
:101BB000FB7B012B0AD0FB7B022B07D0FB7B032B8B
:101BC00004D0FB7B042B01D0FB7B052BBB7B002BC4
:101BD0000DD07B68002B05D0FB7B1846B968FFF75A
:101BE00077FF04E0FB7B1846B968FFF745FFBB6849
:101BF000072B1CD82A4CFA7B2948F97B0B46DB00C3
:101C00000B449B0003445B68B968890008460F21B8
:101C10008140C9430B40B97BB868800081401943BB
:101C20001346DB0013449B002344596024E01C4C02
:101C3000FA7B1B48F97B0B46DB000B449B000344FB
:101C400008331968BB6803F18043083B9B001846C2
:101C50000F238340DB431940B87BBB6803F180430B
:101C6000083B9B0000FA03F319431346DB001344BF
:101C70009B00234408331960BB7B002B0DD17B688C
:101C8000002B05D0FB7B1846B968FFF721FF04E065
:101C9000FB7B1846B968FFF7EFFE1437BD4690BDD1
:101CA0000060004080B487B000AFF860B9607A602F
:101CB000FB6803F10473DA00BB6813449B007B618B
:101CC0007B697A681A601C37BD465DF8047B7047F3
:101CD00080B582B000AF78600B46FB70FB78002BBC
:101CE00001D000F0ABFA7B681B7D184600F020F9AC
:101CF00050497B685B789B007A6892781A437B68CE
:101D00009B681A437B68DB681A437B68DB785B025D
:101D10001A437B681B799B021A437B685B795B03E0
:101D20001A437B689B795B041A437B68DB791B044D
:101D30001A437B685B7C9B0513430B607B681B78B5
:101D40001846002100F0D6F83A497B681B7E1A46F7
:101D50007B685B7E9B001A437B689B7E9B011A43DA
:101D60007B68DB7E5B001A437B681B7F1B011A4389
:101D70007B685B7F1B021A437B689B7F9B021A4335
:101D80007B681B6A1A437B6893F824301B051A434F
:101D90007B6893F825309B051A437B689B6A134345
:101DA0008B6024497B689B8D1A467B6893F83B3097
:101DB0009B021A437B6893F83C309B031A437B6871
:101DC00093F83D309B041A437B6893F83E309B05A3
:101DD0001A437B6893F834305B001A437B6893F8AE
:101DE00035309B001A437B6893F83630DB001A438A
:101DF0007B6893F837301B011A437B6893F83830BF
:101E00005B011A437B6893F839309B011A437B6866
:101E100093F83A30DB011343CB607B681B6B1846A9
:101E200000F0E2F9034A7B681B7C13610837BD466A
:101E300080BD00BF00C0084080B588B000AF7860AA
:101E400039600023FB610123BB613F237B617B6819
:101E5000002B03D12548FEF75BFF78603B68002B21
:101E600004D03A687B689A4200D800BF07E0FB695B
:101E70000133FB61FB69012202FA03F3BB613B689A
:101E8000BA6902FB03F37A68B2FBF3F27B690133B0
:101E90009A4202D9FB69062BE9D93B68BA6902FB71
:101EA00003F37A68B2FBF3F3013B7B61104B5B6891
:101EB00023F47F2323F4E0633B61FB691A027B690F
:101EC0001B0313433A6913433B61094A3B6953605F
:101ED0007B690133BA6902FB03F37A68B2FBF3F35F
:101EE000FB60FB6818462037BD4680BD60062A00AF
:101EF00000C0084080B584B000AF03460A46FB71BD
:101F00001346BB71094B1B6823F00303FB60FB798D
:101F1000FA681343FB60054AFB681360BB79002B2A
:101F200001D000F071F91037BD4680BD00C00840F7
:101F300080B485B000AF0346FB71094B5B6823F4A6
:101F40004003FB60FB799B05FA681343FB60044A7E
:101F5000FB6853601437BD465DF8047B704700BFD3
:101F600000C0084080B485B000AF03460A46FB714C
:101F70001346BB71FB79002B0FD0012B00D01AE068
:101F80000F4B5B6823F00303FB60BB79FA681343D4
:101F9000FB600B4AFB6853600DE0094B5B6823F064
:101FA0007003FB60BB791B01FA681343FB60044AB2
:101FB000FB68536000BF1437BD465DF8047B704773
:101FC00000C0084080B584B000AF786039607B689D
:101FD0005B68B3F5C03F0BD13B68022B08D03B6870
:101FE000032B05D03B68042B02D03B68052B00D1A6
:101FF00000BF7B681B7A032B0BD13B680C2B08D0EE
:102000003B680D2B05D03B680E2B02D03B680F2B95
:1020100000D100BF7B681B7A032B0BD13B68002BE0
:1020200008D03B68012B05D03B68022B02D03B68EF
:10203000032B00D100BF394B9A6B3B685B001946FC
:1020400003238B40DB431340FB607B681B7A1A46FB
:102050003B685B0002FA03F3FA681343FB602F4A04
:10206000FB6893633B68D8B27B68D97B7B681A7C3A
:102070007B685B7C00F05AF828497B685B7B5A04DC
:102080007B689B7B9B0413437A68928A13437A682C
:10209000D28A1A437B685B681A437B685B7ADB04ED
:1020A0001A433B682C331B010B445A601B497B6865
:1020B000DA697B689B7A5B041A437B681B7B9B0411
:1020C0001A437B68DB7ADB041A433B681B010B4431
:1020D00003F532731A603B68D9B27B685A8A7B6811
:1020E0001B8B084611461A4600F042F87B689B7825
:1020F0000B4839681A46FFF7D5FD7B685B780948BD
:1021000039681A46FFF7CEFD7B681B7806483968A8
:102110001A46FFF7C7FD1037BD4680BD00C0084016
:102120004CC0084054C0084018C0084090B482B069
:1021300000AF0446084611461A462346FB71034683
:10214000BB710B467B7113463B710848FB79B9792B
:102150007A79920111433A7952030A432C331B01D5
:1021600003441A600837BD4690BC704700C0084061
:1021700080B485B000AF0346FB710B46BB801346AD
:102180007B80184AFB792C331B0113445B6823F4D2
:102190007F6323F00F03FB60BB88FA681343FB6087
:1021A000104AFB792C331B011344FA685A600D4A1C
:1021B000FB791B01134403F532731B681B0C1B04D2
:1021C000FB607B88FA681343FB60064AFB791B01BE
:1021D000134403F53273FA681A601437BD465DF88C
:1021E000047B704700C0084080B483B000AF7860C3
:1021F000044A7B6803F00F0313630C37BD465DF898
:10220000047B704700C0084080B400AF00BF0A4B99
:102210001B6D03F02003002BF9D1074B01225A61FB
:1022200000BF054B1B6D03F02003002BF9D1BD4609
:102230005DF8047B704700BF00C0084080B483B0E5
:1022400000AF374B0022DA64354B364A5A64344AC1
:10225000334BDB6843F00103D36000BF304B1B6D91
:1022600003F02003002BF9D12D4B0A225A612C4B8D
:1022700000221A602A4B00229A60294B0022DA6061
:10228000274B00221A61264B00229A61244B002220
:102290009A63234B0022DA63214B00225A65002304
:1022A0007B6018E01E4A7B682C331B01134400221C
:1022B0001A601B4A7B682C331B01134400225A60AE
:1022C000174A7B681B01134403F5327300221A601E
:1022D0007B6801337B607B680F2BE3D900237B6035
:1022E0000FE00F4A7B684033002142F833100C4A5C
:1022F0007B684033DB00134400225A607B68013363
:102300007B607B680F2BECD900BF054B1B6D03F086
:102310002003002BF9D10C37BD465DF8047B7047D4
:1023200000C00840FFFF7F0080B487B000AFF860B6
:10233000B9607A60FB68114A934208D1BB68012BEF
:1023400005D87B681B0C1B04002B00D100BFBB68A9
:10235000002B02D0012B04D00AE0FB6810337B6114
:1023600003E0FB6814337B6100BF7B697A681A6005
:102370001C37BD465DF8047B704700BF0020084055
:1023800080B485B000AF786039600023FB603B68A3
:102390001B7883F00103DBB2002B08D07B689B68BD
:1023A00003F00103002B02D07B6802225A603B68D5
:1023B0005B78002B03D0FB6843F48053FB603B68E1
:1023C0009B78002B03D0FB6843F48063FB603B6881
:1023D000DB78002B03D0FB6843F40063FB603B68B1
:1023E0001B79002B03D0FB6843F40073FB603B6850
:1023F0005B79002B03D0FB6843F48073FB603B6880
:102400009B79002B03D0FB6843F04003FB603B68E3
:10241000DB79002B03D0FB6843F08003FB603B6853
:102420001B7A9B001A46FB681343FB603B685B7A90
:102430001B011A46FB681343FB603B689B7A1A46F4
:10244000FB681343FB607B68FA681A603B681B7883
:10245000002B08D07B689B6803F00103002B02D19E
:102460007B6801225A601437BD465DF8047B7047D3
:1024700080B483B000AF786039607B681B6C03F078
:102480000103002B00D006E000BF7B685A6C3B685C
:102490001340002BF9D10C37BD465DF8047B704723
:1024A00080B586B000AFF860B9607A60BB68002B79
:1024B00012D1FB68164A934202D1164B7B6107E0AA
:1024C000FB68154A934202D1144B7B6100E01BE08C
:1024D0007869FEF71DFCB860BB685A017B68B2FBE7
:1024E000F3F33B613B69203B3B613B69DB003B61B4
:1024F0003A6947F6F87313403B61F8680421FFF727
:10250000B7FFFB683A69DA601837BD4680BD00BF87
:10251000004008407007160000440840701718007B
:1025200080B483B000AF78600B46FB70FB78002B63
:1025300008D000BF7B685B6C002BFBD17B6801225D
:102540001A6402E07B6800221A640C37BD465DF80D
:10255000047B704780B582B000AF786039607B68DB
:102560001B4A934203D07B681A4A934200D100BFB2
:1025700078680221FFF77CFF7B680A225A6078683E
:102580000121FFF7CDFF7B681B6823F01C033A682D
:10259000127B13433A68527B13433A68927B1A4387
:1025A0007B681A603B685A683B689B68786811468C
:1025B0001A46FFF775FF3B681B781A467B685A601E
:1025C00078680021FFF7ACFF0837BD4680BD00BF2B
:1025D000004008400044084080B582B000AF7860F9
:1025E0007B68174A934203D07B68164A934200D116
:1025F00000BF78680121FFF793FF7B68EA225A60E9
:102600007B6800221A607B680022DA607B68002207
:102610001A617B6800225A617B6800229A637B689A
:1026200040F2F9725A637B680022DA637B68002209
:102630005A6578680021FFF773FF0837BD4680BDF3
:10264000004008400044084080B487B000AFF86004
:10265000B9607A60FB6803F10473DA00BB68134465
:102660009B007B617B697A681A601C37BD465DF808
:10267000047B704780B485B000AF786039607B68B8
:10268000012B05D83B6803F07F43002B00D100BF2E
:102690007B68002B02D0012B03D008E0064BFB60C7
:1026A00002E0064BFB6000BFFB683A681A60143713
:1026B000BD465DF8047B7047080008400C000840E8
:1026C00080B582B000AF0346FB71FB79034800215F
:1026D0001A46FFF7B9FF0837BD4680BD0000084025
:1026E00080B485B000AF78607B681B78002B02D087
:1026F0000123FB6001E00023FB607B685B78002B1B
:1027000003D0FB6843F00203FB607B689B78002BDF
:1027100003D0FB6843F00403FB60044AFB681360CA
:102720001437BD465DF8047B704700BF00000840C9
:1027300080B500AF0020FFF7C3FF0120FFF7C0FF07
:1027400080BD00BF80B485B000AF7860194B5B6975
:10275000DBB203F00F03DBB29B00FB73154B1B696D
:1027600003F0C0039B09DAB2FB7B1343FB737B6866
:10277000FA7B9A700F4B1B69DBB203F03F03DAB2AE
:102780007B685A700B4B9B69DBB223F00F03FB7322
:10279000084BDB6903F0F0031B09DAB2FB7B134340
:1027A000FB737B68FA7B1A701437BD465DF8047BB7
:1027B000704700BFD0FF0FE080B483B000AF7860F7
:1027C00039607B683B4A93420BD07B683A4A93421C
:1027D00007D07B68394A934203D07B68384A9342DA
:1027E00000D100BF3B681B7883F00103DBB2002BF4
:1027F00002D07B6802225A607B6800225A623B68E2
:102800009B781A063B68DB781B041A433B689B796C
:102810009B021A433B68DB791B0213433A68127A26
:102820001A433B685B78002B01D0402300E0002373
:102830001A433B685B7A002B01D0802300E0002321
:102840001A433B689B7A002B01D0202300E0002331
:102850001A433B68DB7A002B01D0102300E00023F1
:102860001A433B681B79002B02D04FF4005300E061
:1028700000231A433B685B79002B02D04FF0805352
:1028800000E000231A433B681B7B002B01D0082388
:1028900000E000231A437B681A603B681B78002B1A
:1028A00002D07B6801225A600C37BD465DF8047B7C
:1028B000704700BF000001400004014000080140D3
:1028C000000C014080B483B000AF0346FB7108499F
:1028D00097F907305B09FA7902F01F02012000FA2C
:1028E00002F241F823200C37BD465DF8047B7047A7
:1028F00000E100E080B483B000AF786039607B68AD
:102900003A681A620C37BD465DF8047B704700BF19
:1029100080B483B000AF786039607B685A693B68E7
:102920001A437B685A610C37BD465DF8047B7047DB
:1029300080B586B000AF0023FB750023BB75204B2C
:1029400000221A701F48FEF7E3F903461846FDF708
:10295000DBFE0346BB751C480021FDF7A3FE0346C2
:10296000FB7500233B7400237B740023BB74BB7D89
:102970000133DBB2FB74FB7D3B7500237B75134A8F
:102980003B1D1068516803C3127A1A7007F11003D7
:102990000F481946FDF7F4FD0D4A0D4BDB6843F077
:1029A0000103D3603B1D0A481946FDF72DFE00F0D8
:1029B00011F80720FFF786FF1837BD4680BD00BF1E
:1029C0002807002040810400C05C15003458000036
:1029D0000020004080B500AF054A054B1B6A43F05C
:1029E0000303136202480121FFF792FF80BD00BF7D
:1029F0000020004090B587B000AF00237B614FF00E
:102A000000033B614FF0FF33FB60FEF7D7FCB8607B
:102A1000544B9B6903F00103002B00F08280514866
:102A20000121FFF767FF504B1B781C464D4B5B6A3B
:102A3000184602F0C3FB02464C4B43F824204A4B95
:102A40001B781C46484B1B781A46484B53F82230DB
:102A500018464FF08B4102F0BDFC0346184644492E
:102A600002F004FC03461A46404B43F824203E4B38
:102A70001B781A463D4B53F8223018463D4902F068
:102A8000F5FB0346184602F0DDFD0346FB71364BAD
:102A90001B789B01DAB2FB791343DBB2DAB2364B17
:102AA0001A70354B1B78184602F088FB03463348F2
:102AB000194601F05BFD2C4B1B780133DAB22A4B2F
:102AC0001A70294B1B781A462D4B1B78013B9A42F2
:102AD00002DD254B00221A70234B1B78032B1BD8D9
:102AE00001A252F823F000BFF92A0000012B0000D8
:102AF000092B0000112B0000224B01221A710CE05F
:102B0000204B02221A7108E01E4B03221A7104E0C6
:102B10001C4B06221A7100E000BF12481949FDF74C
:102B200073FD19480021FEF787F80E4A0D4B5B68CC
:102B300043F002035360012001F0A8FD134B1B7802
:102B400083F00103DBB2002B05D01820FFF7BAFE9B
:102B50000E4B01221A70B868FEF740FC1C37BD46C8
:102B600090BD00BF0020004028070020340700204F
:102B70000000A03F00002041440700204C07002037
:102B80000800002024030020000205003C03002070
:102B900080B586B000AF7860164B1B6803F47F03E6
:102BA0001B0C184602F00AFB03467B61114BDB68E5
:102BB0001B0D184602F002FB03463B610E4BFB6007
:102BC000786802F0FFFA03463869194602F044FAC1
:102BD00003461846F96802F0FDFB0346786919467A
:102BE00002F03AFA0346BB60BB6818461837BD4688
:102BF00080BD00BFB081E00FD7A3C8C080B584B04E
:102C000000AF0023FB600023BB604FF000037B603C
:102C10000023FB600BE0134AFB6832F813309BB2D1
:102C20001A46BB681344BB60FB680133FB60FB685A
:102C3000B3F5FA7FEFD3BB680B4AA2FB03235B0912
:102C4000184602F0BBFA03467B60786802F0D4FCB9
:102C500003461846FFF79CFF78607B6818461037DC
:102C6000BD4680BD40030020D34D621080B500AF4B
:102C70002E480121FDF7E0FF2D4B1B785BB2032BA3
:102C800020D1052001210122FEF738FB2948092126
:102C9000FEF7D8F928480121FDF7CEFF274801218A
:102CA000FDF7CAFF26480121FDF7C6FF00F058F8DE
:102CB000052001210122FEF721FB1E480921FEF714
:102CC000C1F90CE0002001210122FEF717FB194891
:102CD0000221FEF7B7F918480121FDF7ADFF1948A9
:102CE0000121FDF7A9FF18480121FDF7A5FF1748AD
:102CF0000121FDF7A1FF16480121FDF79DFF1548B1
:102D00000121FDF799FF0A4B1B785BB2032B04D11D
:102D100011480221FEF796F903E00F480221FEF761
:102D200091F90E480121FDF787FF80BD00430200A5
:102D30000903002002001A0060261400005204005B
:102D400000620400408104000092040000020500BB
:102D50000003020000D2040003001C0070071600EC
:102D600090B58DB002AF00237B6200233B6207F178
:102D7000100300221A60043300221A600433002278
:102D80001A60043300221A7001333B4600221A6095
:102D9000043300221A60043300221A600433002234
:102DA0001A7001330223FB7001233B732F4B304811
:102DB0000ECB01F009FA3B7F8DF8003007F11003CC
:102DC0000ECB2C4801F0A6FC3B7B8DF800303B4637
:102DD0000ECB294801F09EFC07F1200318464FF462
:102DE0007A71012200F054F8234B00225A62214BE1
:102DF00000225A62052000210022FEF77FFA0020FF
:102E000001210122FEF77AFA1C480221FEF71AF985
:102E10001B480121FDF710FF07F1240318464FF46A
:102E20000041012200F034F87B6A184602F0C6F92E
:102E300004463B6A184602F0C1F90346204619468B
:102E400002F0C8FA03461A460E4B1A600020002111
:102E50000022FEF753FA0C480021FDF7EDFE0B4867
:102E60000021FDF7E9FE2C37BD4690BD405800001B
:102E700000200840000001400004014002001A0048
:102E800060261400FC0200200052040000620400CE
:102E900080B487B000AFF860B9607A6000237B61CE
:102EA0002249BB687A6802FB03F3CB601F4A1F4BC1
:102EB0005B6843F00103536000BF1C4B5B6B03F086
:102EC00002037B617B69022BF7D0194A184B5B68C0
:102ED00043F001035360174A164B5B6843F001034C
:102EE000536000BF114BDB68002BFBD10F4A0F4B27
:102EF0005B6843F0020353600D4A0D4B5B6843F07F
:102F0000020353600B4A0B4B5B6843F002035360B0
:102F1000074B5B6A1A04074B5B6A1A43FB681A602B
:102F20001C37BD465DF8047B704700BF0020084099
:102F3000000401400000014080B582B000AF78601D
:102F4000396078684FF0804102F04CFB0346002B5B
:102F500004D07868396800F019F805E0084B0022C1
:102F60001A60084B01221A600749074B9A6E044BFE
:102F70001B681B0213438B660837BD4680BD00BF2C
:102F80000C0300200403002000800C4080B584B0B6
:102F900000AF786039600023BB600023FB603868B5
:102FA00002F00CF903461846796802F05FF903460F
:102FB000184602F047FB0346BB60BB68FB600D4B45
:102FC00001221A600FE00C4B1B6801330A4A1360A0
:102FD000084B1B685B00074A1360064B1B68BA6806
:102FE000B2FBF3F3FB60FB68B3F5803FEBD810371F
:102FF000BD4680BD040300200C03002080B588B0CE
:1030000000AF00233B76174BFB6107F1180318460E
:10301000FEF740FB144B154A1A60134B00225A600E
:1030200001233B7301237B734FF400233B610E4B61
:103030007B6107F10C0300201946FEF7ABFA012370
:103040003B7103237B710123BB710023FB710023C0
:103050003B723B1D002001211A46FEF7E3FA2037A0
:10306000BD4680BD00080020300300207130000004
:1030700090B589B000AFF8600B467A60FB724FF0F4
:103080000003FB614FF0FF33BB612A4A294B5B68A9
:1030900043F00203536028480021FDF7CDFD0120D5
:1030A00001F0F4FAFFF7AAFDF861FEF787F97861FD
:1030B00001231C46F8694FF0000102F093FA034621
:1030C000002B01D100231C46E3B21A461B4B1A7099
:1030D0001A4B1B7863F07F03DAB2184B1A70184B47
:1030E0001B7883F00103DBB2002B05D0022001F036
:1030F000B3FA134B01221A707869FEF76FF9F86979
:10310000104902F065FA0346002B0BD0F8690E490E
:1031100002F054FA0346002B04D00420032100F0EF
:103120008FF803E00420032100F07CF82437BD462B
:1031300090BD00BF002000400002050030070020C5
:10314000310700200000704100000C4280B483B0C1
:1031500000AF03463960FB71FB79002B0DD0FB7982
:10316000012B0AD0FB79022B07D0FB79032B04D06B
:10317000FB79042B01D0FB79052B0949FA793B68CF
:10318000012000FA03F318461346DB0013449B00AA
:103190000B44103358600C37BD465DF8047B704714
:1031A0000060004080B483B000AF03463960FB711B
:1031B000FB79002B0DD0FB79012B0AD0FB79022B78
:1031C00007D0FB79032B04D0FB79042B01D0FB79CA
:1031D000052B0949FA793B68012000FA03F31846E8
:1031E0001346DB0013449B000B44103318600C376C
:1031F000BD465DF8047B70470060004080B500AFBD
:103200000420022105220023FEF7C6FC042003212E
:1032100005220023FEF7C0FC04200121FEF784FCF8
:1032200080BD00BF80B582B000AF03463960FB713E
:10323000FB7918463968FFF7B5FF0837BD4680BDF2
:1032400080B582B000AF03463960FB71FB79184648
:103250003968FFF77BFF0837BD4680BD80B483B077
:1032600000AF0346FB71084997F907305B09FA790B
:1032700002F01F02012000FA02F241F823200C376D
:10328000BD465DF8047B704700E100E080B483B088
:1032900000AF7860044A7B68C2F81C310C37BD4629
:1032A0005DF8047B704700BF0060004080B582B0CD
:1032B00000AF0346FB71044AFB79536200F006F845
:1032C0000837BD4680BD00BF00A4004080B400AFF9
:1032D00000BF064B9B6A03F04003002BF9D0034B61
:1032E00040221A63BD465DF8047B704700A400408D
:1032F00080B400AF044A044B5B6843F001035360A1
:10330000BD465DF8047B704700A4004080B400AF68
:10331000044A044B5B6843F002035360BD465DF80A
:10332000047B704700A4004080B483B000AF786095
:1033300000BF0B4B9B6A03F02003002B05D1084B09
:10334000DB6803F48073002BF3D0054BDB69DAB242
:103350007B681A700C37BD465DF8047B704700BF70
:1033600000A4004080B584B000AF3923FB73002374
:10337000BB7300237B730023FB700023BB7000230F
:103380007B7000233B7000237B81FEF717F8786089
:103390000220FFF77BFF00237B73FFF7A9FFFB7B76
:1033A0005B00DAB27B7B1343DBB2BB73BB7B18469B
:1033B000FFF77CFF9C20FFF779FF01237B73FFF76A
:1033C00097FFFB7B5B00DAB27B7B1343DBB2BB7303
:1033D000BB7B1846FFF76AFFFB1C1846FFF7A4FFEC
:1033E000424A424B5B6843F004035360BB1C1846DF
:1033F000FFF79AFF3D4A3D4B5B6843F0040353607F
:103400007B1C1846FFF790FF384A384B5B6843F047
:10341000040353603B461846FFF786FF334A334B9D
:103420005B6843F008035360FFF770FFBB781B0233
:103430009AB2FB789BB213439BB27B812C4B1B78D7
:10344000002B0DD17B890E2B18D804200221FFF709
:10345000E9FE274B01221A70264B00221A700DE05C
:103460007B89B3F5006F09D904200221FFF7E8FE3C
:103470001F4B00221A701F4B01221A701E4B1B7823
:1034800083F00103DBB2002B05D0022001F0E4F849
:10349000194B01221A70194B01221A70184B1B7814
:1034A00083F00103DBB2002B05D01820FFF7D6FE16
:1034B000134B01221A7000237B73FFF719FFFB7B6C
:1034C0005B00DAB27B7B1343DBB2BB73BB7B18467A
:1034D000FFF7ECFED020FFF7E9FEFFF717FF786853
:1034E000FDF77CFF1037BD4680BD00BF00A4004043
:1034F0005C07002029070020310700203307002047
:103500003C03002080B483B000AF0346FB71084940
:1035100097F907305B09FA7902F01F02012000FADF
:1035200002F241F823200C37BD465DF8047B70475A
:1035300000E100E080B500AFFCF760FE80BD00BF99
:1035400080B483B000AF7860034A7B6893610C3726
:10355000BD465DF8047B70470000084080B483B02E
:1035600000AF78600549054BDA697B681343CB618E
:103570000C37BD465DF8047B704700BF0000084073
:1035800080B483B000AF7860064A7B6803F00F0315
:10359000A03352F8233018460C37BD465DF8047B43
:1035A000704700BF00C0084080B483B000AF7860AF
:1035B000034A7B6853640C37BD465DF8047B704753
:1035C00000C0084080B400AF034B1B6C1846BD46DA
:1035D0005DF8047B704700BF00C0084080B584B030
:1035E00000AF7860314B00221A80314B00221A70F4
:1035F0000023FB7336E0FB7B2E4A002122F81310D8
:10360000FB7B2D4A4FF6FF7122F81310FB7B9B00CA
:103610007A6813441B6818464FF0000101F0BAFFA6
:103620000346002B1BD1FB7BFA7B920079680A448E
:103630001268224941F82320FB7B012202FA03F39E
:103640009AB21A4B1B889BB213439BB29AB2174B88
:103650001A80174B1B780133DAB2154B1A70FB7BBB
:103660000133FB73FB7B0F2BC5D9FDF7A7FEB860B9
:1036700000F032F800F0AEF800F064F800F074F8F2
:103680000023FB7306E0FEF7BFFD00F0D9F8FB7BDB
:103690000133FB73FB7B632BF5D900F0BDF8B868F1
:1036A000FDF79CFE1037BD4680BD00BFA402002080
:1036B000A60200206402002084020020A80200204C
:1036C00080B400AF034B1B889BB21846BD465DF823
:1036D000047B70476002002080B500AFFFF72AFF2F
:1036E00010480121FDF7A8FA0F480121FDF7A4FABF
:1036F0000E480121FDF7A0FA0D480221FDF7A2FCBA
:103700000C480121FDF798FA0B480121FDF794FAC6
:103710000A480121FDF790FA09480121FDF792FCC2
:1037200080BD00BF0092040000A2040000D204008B
:1037300002001A000043020060062A006016100012
:1037400003001C0080B500AF04480549FCF742FEA9
:1037500004480349FCF73EFE80BD00BF0010004056
:103760004C5800000014004080B582B000AF1648ED
:103770000121FEF7ADFA0023FB7111E0134B1B880A
:103780001A46FB7942FA03F303F00103002B04D03D
:10379000FB790F481946FEF715FCFB790133FB71E5
:1037A000FB790F2BEAD900200521FEF745FB00200D
:1037B0000021FEF7D7FB1120FFF7A4FEFEF724FD42
:1037C0000837BD4680BD00BF60580000A40200203D
:1037D000A058000080B582B000AF00237B6012E0EB
:1037E0000C4B1B881A467B6842FA03F303F0010373
:1037F000002B05D00220796800220023FEF7CCF9C7
:103800007B6801337B607B680F2BE9D90837BD46A5
:1038100080BD00BFA402002080B500AF0748FEF7BE
:103820005FFF00204FF42031FEF724FF0220FFF756
:1038300095FE1E20FFF766FE80BD00BFC058000049
:103840002DE9904385B000AF00BF644B1B6A03F0C5
:103850001003002BF9D1614B5B6A03F4F0735B0931
:10386000BB605F4B1B781A46BB689A4206DC5C4B18
:103870001B781A46BB689B1ABB6006E0584B1B7846
:103880001A46BB689B1A1033BB600023FB6021E023
:10389000544B1B881A46FB6842FA03F303F00103FA
:1038A000002B14D0504B1B781C46BB685A1CBA60C6
:1038B0001846FFF765FE034698B24C49FA6813466E
:1038C0009B0013445B002344024621F81320FB684D
:1038D0000133FB60FB680F2BDADD434B1B780133B0
:1038E000DAB2414B1A70404B1B78092B02D93E4B80
:1038F00000221A700023FB6068E03A4B1B881A46CE
:10390000FB6842FA03F303F00103002B5BD0FA6873
:1039100013469B0013449B00344A134418460A2163
:1039200000F06EF803461946314AFB6822F813107E
:10393000FA6813469B0013449B002C4A1344184614
:103940000A2100F085F8034619462A4AFB6822F846
:103950001310274AFB6832F81330FB80FB68DCB297
:10396000FB88184601F0DCF880468946FB8818463B
:1039700001F028FC0146204AFB6852F82330084633
:10398000194601F073FC0346184601F0DBF80246C5
:103990000B46104619464FF00002184B01F050FA42
:1039A00002460B464046494600F06CFF02460B4675
:1039B0001046194601F02CFB03469BB2204600211D
:1039C0001A46FEF7D5FBFB680133FB60FB680F2B43
:1039D00093DD1437BD46BDE8908300BF00C00840AA
:1039E000A6020020A4020020E802002020010020FE
:1039F0006402002084020020A80200200000594038
:103A000080B485B000AF78600B467B8000237B815B
:103A10000023FB6011E0FB685B007A6813441B889D
:103A20009BB27A899A4205D2FB685B007A6813449C
:103A30001B887B81FB680133FB607A88FB689A42B4
:103A4000E9DC7B8918461437BD465DF8047B704776
:103A500080B485B000AF78600B467B804FF6FF7373
:103A60007B810023FB6011E0FB685B007A681344F4
:103A70001B889BB27A899A4205D9FB685B007A68F9
:103A800013441B887B81FB680133FB607A88FB68E9
:103A90009A42E9DC7B8918461437BD465DF8047B01
:103AA000704700BF80B500AF0220FFF749FDFFF768
:103AB000C7FEFEF73DFE80BD80B586B000AFFFF7C4
:103AC00081FD38613869FFF76FFD0023FB750BE05E
:103AD000FB7D3A6922FA03F303F00103002B00D0C7
:103AE00005E0FB7D0133FB75FB7D0F2BF0D9524BBD
:103AF0009B69FB60504AFB7D012101FA03F393614E
:103B000001237B750023BB7519E0FEF77DFB00BF29
:103B1000494B1B6A03F01003002BF9D1464BDB69BC
:103B2000BB60FB7D012202FA03F31A46BB68134017
:103B3000002B01D100237B75BB7D0133BB75BB7DA1
:103B4000092BE2D93C4AFB6893617B7D002B6DD049
:103B5000394AFB7D1B01134403F532731B6803F4E0
:103B60008033002B32D0FB7D012202FA03F39BB29B
:103B7000DB439AB2314B1B889BB29BB213409BB282
:103B80009AB22E4B1A802C49FB7D2B48FA7D1201EC
:103B9000024402F53272126822F480321B010B4497
:103BA00003F532731A60244AFB7D1B01134403F5AD
:103BB00032731B68FB80FB88013BFB80FA7DFB882E
:103BC000104600211A46FEF7D3FA2FE0FB7D0122B2
:103BD00002FA03F39AB2194B1B889BB29BB21343B0
:103BE0009BB29AB2154B1A801349FB7D1248FA7D9D
:103BF0001201024402F53272126842F480321B0153
:103C00000B4403F532731A600B4AFB7D1B0113440E
:103C100003F532731B68FB80FB880133FB80FA7D60
:103C2000FB88104600211A46FEF7A2FAFEF780FD37
:103C30001837BD4680BD00BF00C0084060020020AC
:103C4000B0B5A0B000AF0023A7F86630C84B07F1AD
:103C500020041D460FCD0FC40FCD0FC40FCD0FC4D0
:103C600095E80F0084E80F00002387F87F300023D9
:103C700087F87E3007F1100300221A600433002217
:103C80001A60043300221A60043300221A600433DD
:103C90003B4600221A60043300221A6004330022DB
:103CA0001A60043300221A600433002387F87D3041
:103CB000002387F87C30AF480021FCF7BDFF0023CC
:103CC000BB671CE0BB6F9B0007F18002134453F8F5
:103CD000603C18464FF0000101F05CFC0346002BED
:103CE0000AD107F11002BB6F134401221A7097F832
:103CF0007C30013387F87C30BB6F0133BB67BB6F0F
:103D00000F2BDFDD3A4607F110031046194610224B
:103D100001F0FAFC97F87C3087F8653007F1200352
:103D20001846FFF75BFC00BFFFF7CAFC0346002BF9
:103D3000FAD108233B66FFF7C3FC0346A7F86630B9
:103D400097F87C30002B00F039813B6E5A1C3A66A4
:103D500007F18002134413F8703C002B21D0B7F810
:103D60006630B3F5807F32D197F87C30013B87F81D
:103D70007C3097F87E3083F00103DBB2002B07D054
:103D8000012387F87E3097F87D30013387F87D3046
:103D90003B6E013B07F180021344002203F8702CB4
:103DA00015E0B7F86630B3F5807F10D197F87C3016
:103DB000013B87F87C3097F87E30002B07D000233A
:103DC00087F87E3097F87D30013B87F87D300023FF
:103DD0007B6702E07B6F01337B677B6F42F20F7280
:103DE0009342F7DD3B6E5A1C3A6607F1800213449A
:103DF00013F8703C002B21D0B7F86630B3F5007F84
:103E000032D197F87C30013B87F87C3097F87E30D0
:103E100083F00103DBB2002B07D0012387F87E304B
:103E200097F87D30013387F87D303B6E013B07F119
:103E300080021344002203F8702C15E0B7F86630B6
:103E4000B3F5007F10D197F87C30013B87F87C30C8
:103E500097F87E30002B07D0002387F87E3097F844
:103E60007D30013B87F87D3000233B6702E03B6FEC
:103E700001333B673B6F42F20F729342F7DD3B6EBB
:103E80005A1C3A6607F18002134413F8703C002B69
:103E900021D0B7F86630B3F5806F32D197F87C3017
:103EA000013B87F87C3097F87E3083F00103DBB26A
:103EB000002B07D0012387F87E3097F87D3001333F
:103EC00087F87D303B6E013B07F1800213440022EE
:103ED00003F8702C15E0B7F86630B3F5806F10D199
:103EE00097F87C30013B87F87C3097F87E30002BC8
:103EF00007D0002387F87E3097F87D30013B87F8A4
:103F00007D300023FB6602E0FB6E0133FB66FB6E37
:103F100042F20F729342F7DD3B6E5A1C3A6607F18C
:103F20008002134413F8703C002B25D0B7F866309C
:103F3000B3F5006F36D197F87C30013B87F87C30C1
:103F400097F87E3083F00103DBB2002B07D001230A
:103F500087F87E3097F87D30013387F87D303B6EEF
:103F6000013B07F180021344002203F8702C19E092
:103F7000C458000060261400B7F86630B3F5006F2F
:103F800010D197F87C30013B87F87C3097F87E3071
:103F9000002B07D0002387F87E3097F87D30013B57
:103FA00087F87D300023BB6602E0BB6E0133BB6641
:103FB000BB6E42F20F729342F7DD0BE097F865306B
:103FC00087F87C3007F110023B4610461946102254
:103FD00001F09AFB97F87D2097F865309A4202D15C
:103FE000012387F87F3097F87F30002B0AD0042018
:103FF0000221FFF717F9002387F87F30054B0122D4
:104000001A7004E004200221FFF71AF991E68037C4
:10401000BD46B0BD0003002080B483B000AF78601F
:1040200039607B683A689A620C37BD465DF8047B5C
:10403000704700BF80B483B000AF786039607B68A0
:10404000DA6A3B681A437B68DA620C37BD465DF872
:10405000047B704780B483B000AF78600B46FB7080
:10406000FA787B685A600C37BD465DF8047B704770
:1040700090B58DB004AFF860384680E80E0000239C
:10408000FB610023BB6100237B61032000F0E4FAA5
:10409000474B1B785BB2032B3BD1464B1B68184642
:1040A000454901F0E3F80346184600F04BFD02468F
:1040B0000B46104619464FF00002404B00F096FDAB
:1040C00002460B461046194600F0A2FF0346FB616C
:1040D000F86901F073F80446364B1B6818463649F8
:1040E00001F0C4F8034618464FF0814101F0BEF8D4
:1040F00003461846304901F06DF90346204619463B
:1041000000F0AAFF0346184601F09CFA0346BB6183
:1041100027E02B4B1B684FF40042B2FBF3F3184629
:1041200000F0EEFC02460B46104619464FF0000226
:10413000224B00F05BFD02460B461046194600F08C
:1041400067FF0346FB611E4B1B684FF40042B2FB46
:10415000F3F39B001B4AA2FB03239B09FA69D31AC2
:10416000BB6101230093FB69019301230293BB69A7
:104170000393F8683B460ECB00F04AF800BFFB689B
:104180005B6B03F002037B617B69022BF7D0012399
:104190007B6100BFFB685B6B03F001037B617B69A4
:1041A000012BF7D0F86800F085F82437BD4690BDA4
:1041B00009030020FC02002000007A4400000E40A9
:1041C00004030020D34D621080B586B000AFF860C4
:1041D000384680E80E003B46F8681946FEF7D0F8EE
:1041E00000BFFB685B6B03F002037B617B69022B02
:1041F000F7D001237B6100BFFB685B6B03F0010319
:104200007B617B69012BF7D01837BD4680BD00BFAD
:1042100080B586B000AFF860384680E80E00234BCA
:104220001B785BB2032B09D1052001210122FDF788
:1042300065F81F480921FCF705FF08E0002001216F
:104240000122FDF75BF81A480221FCF7FBFEF86833
:104250003B460ECBFFF7B8FF97F82030002B0FD06E
:10426000F86800217A6AFEF75FF800BFFB685B6BB5
:1042700003F004037B617B69012BF7D001237B6191
:1042800097F82830002B0DD0F8680121FA6AFEF764
:104290004BF800BFFB685B6B03F008037B617B6935
:1042A000012BF7D01837BD4680BD00BF09030020A1
:1042B00002001A0080B582B000AF78607B689B6A0C
:1042C00043F01F027B689A6278680121FFF7B2FE13
:1042D00078680221FFF7AEFE0837BD4680BD00BFFB
:1042E00080B582B000AF00237B60FDF767F83860CF
:1042F000154B1B6A03F00103002B15D01248012156
:10430000FFF78AFE11480121FCF796FC012000F01E
:10431000A3F90F480121FFF79DFE00BF0C4B9B68DE
:1043200003F48053002BF9D0074B1B6A03F0020300
:10433000002B03D004480221FFF76EFE3868FDF71A
:104340004DF80837BD4680BD00200840000205003A
:104350000020004080B483B000AF0346FB710949E0
:1043600097F907305B09FA7902F01F02012000FA81
:1043700002F2203341F823200C37BD465DF8047B60
:10438000704700BF00E100E080B483B000AF786008
:1043900039607B683A685A630C37BD465DF8047B28
:1043A000704700BF80B483B000AF786039607B682D
:1043B0009A6B3B681A437B689A630C37BD465DF87D
:1043C000047B704790B585B000AF214B3C460FCBC6
:1043D00084E80F001F48FEF7FFF83B461D481946CA
:1043E000FEF7B8F81B4800F049F81A4B02225A654C
:1043F0000320042104220023FDF7CEFB164B0022EC
:104400001A70164B00221A70154B00221A70154BA9
:1044100000221A70144B00221A70144B00221A70DA
:10442000134B00221A70134B00221A700A2001F05D
:1044300063F90246104B1A600F4B00225A600E4B74
:1044400000229A600C4B0A22DA601437BD4690BDF8
:104450000459000000400840290700202D030020D7
:104460003D030020300700203107002033070020E3
:10447000320700203C0300204C07002080B584B0A8
:1044800000AF78607B68DB6AFB607B685A6BFB6817
:104490001A437B685A6378680221FFF783FF10375D
:1044A000BD4680BD80B586B000AF4FF000033B60D5
:1044B0000023FB730023BB7300237B7300233B7338
:1044C0000023FB72FCF77AFF7860244BDB6A03F071
:1044D0000203002B3CD021480221FFF755FF3B4649
:1044E0001F48194600F074F80346B3F1FF3F29D086
:1044F0003B68184601F0A6F80346FB73174AFB7B9E
:10450000936200BF154BDB6A03F00103002BF9D067
:10451000144B1B785BB2022B09D100237B6102E0B4
:104520007B6901337B617B69002BF9DB0AE00023A7
:104530003B6102E03B6901333B613B6940F6C312DA
:104540009342F7DD1820FFF705FF074B00221A7092
:104550007868FCF743FF1837BD4680BD004008402F
:104560004C070020090300203C03002080B485B0E4
:1045700000AF786039604FF0FF33BB607B685B68E9
:104580000133FB607B68DA68FB689A4201DC002338
:10459000FB607B689A68FB689A4204D14FF0FF3356
:1045A000BB60BB680DE07B681A687B685B689B003A
:1045B00013443A681A607B68FA685A600023BB604B
:1045C000BB6818461437BD465DF8047B704700BFD2
:1045D00080B485B000AF786039604FF0FF33BB60C6
:1045E0007B689A687B685B689A4204D14FF0FF331E
:1045F000BB60BB6819E07B681A687B689B689B009E
:1046000013441A683B681A607B689B680133FB603F
:104610007B68DA68FB689A4201DC0023FB607B68F8
:10462000FA689A600023BB60BB6818461437BD4621
:104630005DF8047B704700BF80B400AF054A054BAE
:104640001B6923F00403136130BFBD465DF8047B92
:10465000704700BF00ED00E080B584B000AF0346B6
:10466000FB71FCF7ABFEF86097F90730064A52F889
:1046700023200132044941F82320F868FCF7AEFEFC
:104680001037BD4680BD00BF1003002080B584B048
:1046900000AF0346FB71FCF791FEF86097F9073015
:1046A000094A52F82330002B08D097F90730064A00
:1046B00052F82320013A044941F82320F868FCF716
:1046C0008DFE1037BD4680BD1003002080B500AFC1
:1046D0000F4B1B68002B00D019E00D4B5B68002BC3
:1046E00002D0FFF7A9FF12E0094B9B68002B03D013
:1046F0000120FDF707F90AE0054BDB68002B03D02A
:104700000120FDF74DF902E00120FDF749F980BDD8
:104710001003002084B080B582B000AF786007F14C
:10472000140080E80E0007F1140378681946FEF7BC
:1047300043F80837BD46BDE8804004B0704700BF6D
:1047400080B483B000AF0346FB71084997F9073086
:104750005B09FA7902F01F02012000FA02F241F827
:1047600023200C37BD465DF8047B704700E100E074
:1047700080B582B000AF0C4B1B687B603B4618468F
:10478000FDF7E0FF7B681B0E0F2B0AD93B78032B4C
:1047900007D1064A054B1B6823F0500343F0100372
:1047A00013600837BD4680BDFC81E00FC0800C401F
:1047B00080B500AF294B02221A70294B4FF000023E
:1047C0001A60284B00221A60274B00221A60FFF75C
:1047D000CFFF224B1B785BB2032B04D023484FF44E
:1047E0000041FEF7A9FBFEF741FA214B00221A70A7
:1047F000FFF726FA1E4B1B78002B2CD0FFF7B8FFD3
:10480000164B1B785BB2032B04D018484FF40041C1
:10481000FEF792FBFEF72AFA104B1B785BB21846A4
:10482000FFF71AFF134B14480ECBFFF721FCFEF7DE
:10483000E5FCFEF77DF8FEF7E1FBFFF7C3FD0E4A4E
:104840000D4B5B6843F0010353601A20FFF778FFBC
:10485000FFF73CFFFCE70023184680BD090300205A
:10486000FC020020040300200C0300200000704024
:1048700000030020145900000020084081F000418E
:1048800002E000BF83F0004330B54FEA41044FEA35
:10489000430594EA050F08BF90EA020F1FBF54EAD0
:1048A000000C55EA020C7FEA645C7FEA655C00F06C
:1048B000E2804FEA5454D4EB5555B8BF6D420CDD3D
:1048C0002C4480EA020281EA030382EA000083EAC0
:1048D000010180EA020281EA0303362D88BF30BD60
:1048E00011F0004F4FEA01314FF4801C4CEA1131B6
:1048F00002D0404261EB410113F0004F4FEA033315
:104900004CEA133302D0524263EB430394EA050F9F
:1049100000F0A780A4F10104D5F1200E0DDB02FA0E
:104920000EFC22FA05F2801841F1000103FA0EF2A2
:10493000801843FA05F359410EE0A5F120050EF168
:10494000200E012A03FA0EFC28BF4CF0020C43FA99
:1049500005F3C01851EBE37101F0004507D54FF0A6
:10496000000EDCF1000C7EEB00006EEB0101B1F5F6
:10497000801F1BD3B1F5001F0CD349085FEA30003C
:104980004FEA3C0C04F101044FEA445212F5800F47
:1049900080F09A80BCF1004F08BF5FEA500C50F1E4
:1049A000000041EB045141EA050130BD5FEA4C0CC7
:1049B000404141EB010111F4801FA4F10104E9D150
:1049C00091F0000F04BF01460020B1FA81F308BF47
:1049D0002033A3F10B03B3F120020CDA0C3208DD13
:1049E00002F1140CC2F10C0201FA0CF021FA02F1EE
:1049F0000CE002F11402D8BFC2F1200C01FA02F15E
:104A000020FA0CFCDCBF41EA0C019040E41AA2BF82
:104A100001EB0451294330BD6FEA04041F3C1CDA4A
:104A20000C340EDC04F11404C4F1200220FA04F06A
:104A300001FA02F340EA030021FA04F345EA030114
:104A400030BDC4F10C04C4F1200220FA02F001FAD6
:104A500004F340EA0300294630BD21FA04F0294658
:104A600030BD94F0000F83F4801306BF81F48011F1
:104A70000134013D4EE77FEA645C18BF7FEA655C64
:104A800029D094EA050F08BF90EA020F05D054EA36
:104A9000000C04BF1946104630BD91EA030F1EBF3B
:104AA0000021002030BD5FEA545C05D1400049413F
:104AB00028BF41F0004130BD14F580043CBF01F532
:104AC000801130BD01F0004545F0FE4141F4700118
:104AD0004FF0000030BD7FEA645C1ABF19461046F3
:104AE0007FEA655C1CBF0B46024650EA013406BFF4
:104AF00052EA033591EA030F41F4002130BD00BFB3
:104B000090F0000F04BF0021704730B54FF480646F
:104B100004F132044FF000054FF0000150E700BFF0
:104B200090F0000F04BF0021704730B54FF480644F
:104B300004F1320410F0004548BF40424FF000013C
:104B40003EE700BF42004FEAE2014FEA31014FEA7F
:104B500002701FBF12F07F4393F07F4F81F06051CE
:104B6000704792F0000F14BF93F07F4F704730B53D
:104B70004FF4607401F0004521F0004120E700BFD0
:104B800050EA010208BF704730B54FF000050AE057
:104B900050EA010208BF704730B511F0004502D558
:104BA000404261EB41014FF4806404F132045FEA5A
:104BB000915C3FF4DCAE4FF003025FEADC0C18BFFF
:104BC00003325FEADC0C18BF033202EBDC02C2F1F5
:104BD000200300FA03FC20FA02F001FA03FE40EA87
:104BE0000E0021FA02F11444C1E600BF70B54FF087
:104BF000FF0C4CF4E06C1CEA11541DBF1CEA135569
:104C000094EA0C0F95EA0C0F00F0DEF82C4481EAD0
:104C1000030621EA4C5123EA4C5350EA013518BFF0
:104C200052EA033541F4801143F4801338D0A0FBDD
:104C300002CE4FF00005E1FB02E506F00042E0FB8A
:104C400003E54FF00006E1FB03569CF0000F18BF90
:104C50004EF0010EA4F1FF04B6F5007F64F5407438
:104C600004D25FEA4E0E6D4146EB060642EAC621CB
:104C700041EA55514FEAC52040EA5E504FEACE2E38
:104C8000B4F1FD0C88BFBCF5E06F1ED8BEF1004F3B
:104C900008BF5FEA500E50F1000041EB045170BDB7
:104CA00006F0004646EA010140EA020081EA0301FB
:104CB000B4EB5C04C2BFD4EB0C0541EA045170BDF7
:104CC00041F480114FF0000E013C00F3AB8014F171
:104CD000360FDEBF002001F0004170BDC4F10004BA
:104CE000203C35DA0C341BDC04F11404C4F120053B
:104CF00000FA05F320FA04F001FA05F240EA020096
:104D000001F0004221F0004110EBD37021FA04F6CB
:104D100042EB06015EEA430E08BF20EAD37070BD85
:104D2000C4F10C04C4F1200500FA04F320FA05F0E4
:104D300001FA04F240EA020001F0004110EBD370E6
:104D400041F100015EEA430E08BF20EAD37070BD56
:104D5000C4F1200500FA05F24EEA020E20FA04F32F
:104D600001FA05F243EA020321FA04F001F00041DE
:104D700021FA04F220EA020000EBD3705EEA430E4F
:104D800008BF20EAD37070BD94F0000F0FD101F07E
:104D90000046400041EB010111F4801F08BF013CB7
:104DA000F7D041EA060195F0000F18BF704703F0F5
:104DB0000046520043EB030313F4801F08BF013D7C
:104DC000F7D043EA0603704794EA0C0F0CEA135538
:104DD00018BF95EA0C0F0CD050EA410618BF52EAF2
:104DE0004306D1D181EA030101F000414FF00000F8
:104DF00070BD50EA410606BF1046194652EA430606
:104E000019D094EA0C0F02D150EA013613D195EA79
:104E10000C0F05D152EA03361CBF104619460AD1C1
:104E200081EA030101F0004141F0FE4141F47001CB
:104E30004FF0000070BD41F0FE4141F4780170BDBB
:104E400070B54FF0FF0C4CF4E06C1CEA11541DBF20
:104E50001CEA135594EA0C0F95EA0C0F00F0A7F822
:104E6000A4EB050481EA030E52EA03354FEA01314F
:104E700000F088804FEA03334FF0805545EA131362
:104E800043EA12634FEA022245EA111545EA10652A
:104E90004FEA00260EF000419D4208BF964244F1C1
:104EA000FD0404F5407402D25B084FEA3202B61AE0
:104EB00065EB03055B084FEA32024FF480104FF4B4
:104EC000002CB6EB020E75EB030E22BFB61A754628
:104ED00040EA0C005B084FEA3202B6EB020E75EBBB
:104EE000030E22BFB61A754640EA5C005B084FEA23
:104EF0003202B6EB020E75EB030E22BFB61A7546F0
:104F000040EA9C005B084FEA3202B6EB020E75EBFA
:104F1000030E22BFB61A754640EADC0055EA060EBB
:104F200018D04FEA051545EA16754FEA06164FEAFE
:104F3000C30343EA52734FEAC2025FEA1C1CC0D1AA
:104F400011F4801F0BD141EA00014FF000004FF037
:104F5000004CB6E711F4801F04BF01430020B4F1F8
:104F6000FD0C88BFBCF5E06F3FF6AFAEB5EB030CB0
:104F700004BFB6EB020C5FEA500C50F1000041EBAD
:104F8000045170BD0EF0004E4EEA113114EB5C047A
:104F9000C2BFD4EB0C0541EA045170BD41F480114D
:104FA0004FF0000E013C90E645EA060E8DE60CEA55
:104FB000135594EA0C0F08BF95EA0C0F3FF43BAF72
:104FC00094EA0C0F0AD150EA01347FF434AF95EA29
:104FD0000C0F7FF425AF104619462CE795EA0C0F0D
:104FE00006D152EA03353FF4FDAE1046194622E7DA
:104FF00050EA410618BF52EA43067FF4C5AE50EAB4
:1050000041047FF40DAF52EA43057FF4EBAE12E7A3
:105010004A0011D212F5001211D20DD56FF4787337
:10502000B3EB62520ED44FEAC12343F0004343EA8C
:10503000505323FA02F070474FF00000704750EAD7
:10504000013002D14FF0FF3070474FF00000704741
:1050500080F0004002E000BF81F0004142001FBF2D
:105060005FEA410392EA030F7FEA226C7FEA236C36
:105070006AD04FEA1262D2EB1363C1BFD21841402B
:1050800048404140B8BF5B42192B88BF704710F0C1
:10509000004F40F4000020F07F4018BF404211F064
:1050A000004F41F4000121F07F4118BF494292EACC
:1050B000030F3FD0A2F1010241FA03FC10EB0C00F8
:1050C000C3F1200301FA03F100F0004302D5494285
:1050D00060EB4000B0F5000F13D3B0F1807F06D332
:1050E00040084FEA310102F10102FE2A51D2B1F12A
:1050F000004F40EBC25008BF20F0010040EA03001F
:105100007047490040EB000010F4000FA2F10102CB
:10511000EDD1B0FA80FCACF1080CB2EB0C0200FA55
:105120000CF0AABF00EBC25052421843BCBFD040A3
:105130001843704792F0000F81F4000106BF80F41D
:1051400000000132013BB5E74FEA41037FEA226CE0
:1051500018BF7FEA236C21D092EA030F04D092F0AB
:10516000000F08BF0846704790EA010F1CBF0020DF
:10517000704712F07F4F04D1400028BF40F000403C
:10518000704712F100723CBF00F50000704700F05C
:10519000004343F0FE4040F4000070477FEA226283
:1051A00016BF08467FEA23630146420206BF5FEA54
:1051B000412390EA010F40F4800070474FF0000354
:1051C00004E000BF10F0004348BF40425FEA000C1B
:1051D00008BF704743F0964301464FF000001CE0C3
:1051E00050EA010208BF70474FF000030AE000BF19
:1051F00050EA010208BF704711F0004302D5404257
:1052000061EB41015FEA010C02BF844601460020C8
:1052100043F0B64308BFA3F18053A3F50003BCFAE3
:105220008CF2083AA3EBC25310DB01FA02FC634490
:1052300000FA02FCC2F12002BCF1004F20FA02F297
:1052400043EB020008BF20F00100704702F120028A
:1052500001FA02FCC2F1200250EA4C0021FA02F2EB
:1052600043EB020008BF20EADC7070474FF0FF0CF0
:105270001CEAD0521EBF1CEAD15392EA0C0F93EAEB
:105280000C0F6FD01A4480EA010C400218BF5FEA8D
:1052900041211ED04FF0006343EA501043EA511100
:1052A000A0FB01310CF00040B1F5000F3EBF4900FA
:1052B00041EAD3715B0040EA010062F17F02FD2AFE
:1052C0001DD8B3F1004F40EBC25008BF20F00100E1
:1052D000704790F0000F0CF0004C08BF49024CEAF8
:1052E000502040EA51207F3AC2BFD2F1FF0340EA8A
:1052F000C250704740F400004FF00003013A5DDCFB
:1053000012F1190FDCBF00F000407047C2F100023B
:10531000410021FA02F1C2F1200200FA02FC5FEA28
:10532000310040F1000053EA4C0308BF20EADC7072
:10533000704792F0000F00F0004C02BF400010F4E4
:10534000000F013AF9D040EA0C0093F0000F01F091
:10535000004C02BF490011F4000F013BF9D041EAB3
:105360000C018FE70CEAD15392EA0C0F18BF93EAB5
:105370000C0F0AD030F0004C18BF31F0004CD8D1DF
:1053800080EA010000F00040704790F0000F17BF66
:1053900090F0004F084691F0000F91F0004F14D0AC
:1053A00092EA0C0F01D142020FD193EA0C0F03D104
:1053B0004B0218BF084608D180EA010000F0004007
:1053C00040F0FE4040F40000704740F0FE4040F4E2
:1053D000400070474FF0FF0C1CEAD0521EBF1CEA81
:1053E000D15392EA0C0F93EA0C0F69D0A2EB03029F
:1053F00080EA010C49024FEA402037D04FF0805339
:1054000043EA111143EA10130CF000408B4238BFFD
:105410005B0042F17D024FF4000C8B4224BF5B1A0B
:1054200040EA0C00B3EB510F24BFA3EB510340EA59
:105430005C00B3EB910F24BFA3EB910340EA9C0007
:10544000B3EBD10F24BFA3EBD10340EADC001B0177
:1054500018BF5FEA1C1CE0D1FD2A3FF650AF8B421B
:1054600040EBC25008BF20F0010070470CF0004C28
:105470004CEA50207F32C2BFD2F1FF0340EAC25053
:10548000704740F400004FF00003013A37E792F014
:10549000000F00F0004C02BF400010F4000F013A72
:1054A000F9D040EA0C0093F0000F01F0004C02BF6D
:1054B000490011F4000F013BF9D041EA0C0195E7D6
:1054C0000CEAD15392EA0C0F08D142027FF47DAF6F
:1054D00093EA0C0F7FF470AF084676E793EA0C0F5F
:1054E00004D14B023FF44CAF08466EE730F0004C5D
:1054F00018BF31F0004CCAD130F000427FF45CAFED
:1055000031F000437FF43CAF5FE700BF4FF0FF3C5A
:1055100006E000BF4FF0010C02E000BF4FF0010CAD
:105520004DF804CD4FEA40024FEA41037FEA226C76
:1055300018BF7FEA236C11D001B052EA530C18BF98
:1055400090EA010F58BFB2EB030088BFC81738BFFD
:105550006FEAE17018BF40F0010070477FEA226CEB
:1055600002D15FEA402C05D17FEA236CE4D15FEAE7
:10557000412CE1D05DF8040B704700BF844608461B
:105580006146FFE70FB5FFF7C9FF002848BF10F1DC
:10559000000F0FBD4DF808EDFFF7F4FF0CBF012021
:1055A00000205DF808FB00BF4DF808EDFFF7EAFFAB
:1055B00034BF012000205DF808FB00BF4DF808ED66
:1055C000FFF7E0FF94BF012000205DF808FB00BF5B
:1055D0004DF808EDFFF7D2FF94BF012000205DF8E1
:1055E00008FB00BF4DF808EDFFF7C8FF34BF0120EE
:1055F00000205DF808FB00BF4FEA4002B2F1FE4F09
:105600000FD34FF09E03B3EB12620DD94FEA002384
:1056100043F0004310F0004F23FA02F018BF40425D
:1056200070474FF00000704712F1610F01D1420244
:1056300005D110F0004008BF6FF0004070474FF0F8
:105640000000704742000ED2B2F1FE4F0BD34FF074
:105650009E03B3EB126209D44FEA002343F00043E8
:1056600023FA02F070474FF00000704712F1610F0B
:1056700001D1420202D14FF0FF3070474FF00000DD
:10568000704700BF08B5074B044613B10021AFF3C4
:105690000080054B1868836A03B19847204600F0E4
:1056A000BBF800BF00000000245900000E4B70B58D
:1056B0001E460E4C0025E41AA410A54204D056F84C
:1056C000253098470135F8E700F0A8F8084B094C59
:1056D0001E46E41AA4100025A54204D056F8253031
:1056E00098470135F8E770BD700000207000002079
:1056F0007000002074000020024B0146186800F082
:1057000017B800BF6C00002010B5431E0A44914238
:1057100004D011F8014B03F8014FF8E710BD034620
:105720000244934202D003F8011BFAE770470000DD
:1057300070B5CC1C24F0030408340C2C38BF0C24A6
:10574000002C064603DA0C233360002070BD8C4227
:10575000F9D3204A136810461946A1B10A68121BF2
:105760000ED40B2A03D90A608B188C501FE08B4291
:105770000BBF5A684A6802605A6018BF0B4616E0B1
:105780000B464968E9E7144D2B681BB9304600F019
:1057900025F828603046214600F020F8421C0346D8
:1057A000D1D0C51C25F0030585420AD11C6003F148
:1057B0000B001A1D20F00700821A0AD0514299509E
:1057C00070BD3046E91A00F009F80130BBD02B4615
:1057D000ECE770BDF0020020EC02002038B5064C6A
:1057E000002305460846236000F008F8431C02D158
:1057F000236803B12B6038BD000A0020044A054924
:105800001368002B08BF0B461844106018467047F9
:10581000F4020020080A0020FEE700BFF8B500BF30
:10582000F8BC08BC9E467047F8B500BFF8BC08BC81
:105830009E467047000200000100000000000000CA
:10584000000000000100000003020100010100004F
:105850000500000007050000300000000000000007
:105860000000000000000001000000000000000037
:105870000000000000000000000000000000000028
:105880000000040001010000000000000000000012
:105890000000000000000000000000000102030002
:1058A00001010100000000000000000001000000F4
:1058B0001E000000000000200000000000000000AA
:1058C00001000100000000000000000000000000D6
:1058D00000000000000000000000000000000000C8
:1058E000000000000000803F0000000000000000F9
:1058F0000000803F000000000000000000000000E9
:1059000000000000040000000000000080250000EE
:10591000000000000000000001000000030200433E
:0C592000000000000C000020000000004F
:08592C0010A8FF7F010000003C
:10593400006CDC0200800000040000000000000095
:105944000000000000000000000000000000000053
:105954000000000000000000000000001F590000CB
:105964000000000000000000000000000000000033
:105974000000000000000000000000000000000023
:105984000000000000000000000000000000000013
:105994000000000000000000000000000C000020D7
:0C59A40005010000E10000000000000010
:04000003000001B147
:00000001FF
