:1000000000800020B1010000DD010000DD010000E2
:10001000DD010000DD010000DD010000DD01000068
:10002000DD010000DD010000DD010000DD01000058
:10003000DD010000DD010000DD010000DD01000048
:1000400005140000DD010000DD010000DD010000FD
:10005000DD010000DD010000DD010000BD21000028
:10006000DD010000DD010000DD0100002D2B00009E
:10007000DD010000DD010000DD010000DD01000008
:10008000DD010000DD010000DD010000DD010000F8
:10009000DD010000DD010000DD010000DD010000E8
:1000A00059310000DD010000952F0000DD01000046
:1000B000DD010000DD010000DD010000DD010000C8
:1000C000DD010000DD010000DD010000DD010000B8
:1000D000DD010000DD010000DD010000DD010000A8
:1000E00010B5054C237833B9044B13B10448AFF372
:1000F00000800123237010BD0001002000000000DB
:10010000D4440000084B10B51BB108480849AFF3B0
:1001100000800848036803B910BD074B002BFBD0D3
:10012000BDE81040184700BF00000000D4440000A4
:10013000040100207800002000000000154B002B77
:1001400008BF134B9D46A3F5803A00218B460F460E
:100150001348144A121A04F015F90F4B002B00D063
:1001600098470E4B002B00D0984700200021040038
:100170000D000D48002802D00C48AFF3008004F0B9
:10018000D3F82000290003F06DF904F0B9F800BF9E
:1001900000000800008000200000000000000000B7
:1001A0000001002004080020000000000000000002
:1001B000064880470649074A074B9A42BEBF51F896
:1001C000040B42F8040BF8E7FFF7B8FF5D030000EB
:1001D000E0440000000000207C000020FEE700BF9B
:1001E00080B400AF044BDB6C1B0EDBB21846BD467F
:1001F0005DF8047B704700BFB081E00F80B582B02E
:1002000000AF00F01FF87860074B5B6803F00F0346
:100210001A467B68D3407B60044A7B6813607B6826
:1002200018460837BD4680BD00800C402C010020D8
:1002300080B400AF024B1846BD465DF8047B7047A2
:10024000006CDC0280B582B000AF334BDB6A03F494
:100250007053B3F5805F0AD0B3F5005F03D0B3F5F8
:10026000006F08D00BE02D4B1B687B6047E04FF41C
:1002700000437B6043E02A4B1B687B603FE0264BDA
:10028000DB6803F4E063B3F5007F1BD0B3F5007FB8
:1002900005D8002B24D0B3F5807F16D02BE0B3F522
:1002A000806F09D0B3F5A06F03D0B3F5407F06D0BF
:1002B00021E01C4B7B6021E01B4B7B601EE01B4B55
:1002C0007B601BE01A4B7B6018E0FFF789FF034659
:1002D000122B02D9174B7B6010E0174B7B600DE0AF
:1002E000FFF77EFF0346122B02D9144B7B6005E01B
:1002F000134B7B6002E000237B6000BF00BF064B16
:100300001B6803F4E0339B0B01337A68B2FBF3F311
:1003100018460837BD4680BD00800C400400002010
:1003200000000020003FAB01406F4001809FD500DE
:10033000C0D8A70040B56400C0CF6A00804F12004B
:1003400040420F0080B400AF034B1B681846BD4607
:100350005DF8047B704700BF0000002080B400AF50
:10036000BD465DF8047B704780B400AF4FF4004396
:100370001846BD465DF8047B704700BF80B400AFEF
:100380004FF47A731846BD465DF8047B704700BF92
:1003900080B400AF034B1B681846BD465DF8047B74
:1003A000704700BF0400002080B487B000AF7860C1
:1003B0000B46FB701346BB70BB78002B04D0102398
:1003C000FB603E4B3B6103E00023FB603C4B3B6129
:1003D0007B685A6B3B691340BB6000237B61FB78F1
:1003E000062B5BD801A252F823F000BF09040000DD
:1003F000270400004B040000690400009D04000075
:100400009D0400008D0400002E4B5B6803F4FE4346
:100410007A6913437B612B4B5B6803F07F037A6936
:1004200013437B613DE0274B5B6803F0FE431B0EEB
:100430001B027A6913437B61224B5B6803F4FE0362
:100440001B0C7A6913437B612BE01E4B9B6803F402
:10045000FE437A6913437B611A4B9B6803F07F0369
:100460007A6913437B611CE0164B9B6803F0FE43E3
:100470001B0E1B027A6913437B61124B9B6803F4CA
:10048000FE031B0C7A6913437B610AE00D4BDB68AA
:1004900003F07F037A6913437B6102E000237B61F1
:1004A00000BFFB687A699A40BB681A437B685A634D
:1004B0001C37BD465DF8047B704700BFFFFF80809E
:1004C0008080FFFFB081E00F80B584B000AF78601E
:1004D00039603B681B79FB72FB7A002B06D11B4805
:1004E000002100F083F80346FB7208E01748002162
:1004F00000F07CF84FF4FA40002100F077F87B68B8
:100500000A225A603B681B781A063B68DB781B049A
:1005100003F4FE031A43FB7A1B0203F4FE431A435F
:100520003B685B781B0113433A6892781343FB6086
:100530003B685B79002B03D0FB6843F00803FB604A
:100540007B68FA681A601037BD4680BD405DC60002
:1005500080B584B000AF786039607B6802225A6051
:100560003B689B78786819460022FFF71DFF3B68BF
:100570001B781A073B685B781B051A433B681B799D
:100580001B0213431A463B68DB781B011343FB60D5
:100590003B689B79002B03D0FB6843F08073FB60C2
:1005A0003B68DB79002B03D0FB6843F00403FB605E
:1005B0003B685B79002B03D0FB6843F00203FB60D0
:1005C0003B681B7A002B03D0FB6843F00103FB6000
:1005D0003B689B781B041A46FB681343FB607B68EF
:1005E000FA68DA601037BD4680BD00BF80B584B0C0
:1005F00000AF786039607B68134A934202D9124B8E
:100600007B6006E07B68B3F5FA4F02D24FF4FA4301
:100610007B603B68002B03D10C4800F01DFB386069
:100620003A687B6813445A1E7B68B2FBF3F3FB60A5
:10063000FB68002B02D0FB68013BFB60FB68DBB270
:1006400018461037BD4680BD405DC600408104009D
:1006500080B582B000AF78607B68002B08D111486C
:1006600000F0FAFA78607B68002B01D101237B60EF
:100670007B680D4A934201D90B4B7B607B6803F585
:10068000742303F23F237B607B68084AA2FB0323A9
:100690009B0C7B607B68DBB2013BDBB21846083702
:1006A000BD4680BD408104000048E80183DE1B4355
:1006B00080B487B000AFF860B9607A60FB6803F17E
:1006C0000473DA00BB6813449B007B617B697A6822
:1006D0001A601C37BD465DF8047B704780B485B056
:1006E00000AF786039607B6803F10473DA003B681F
:1006F00013449B00FB60FB681B6818461437BD461B
:100700005DF8047B704700BF80B485B000AF7860AF
:100710007B68002B04D07B68B3F5004F00D800BF86
:100720007B68B3FA83F3C3F11F03FB60FB681846D1
:100730001437BD465DF8047B704700BF80B400AF3E
:10074000044BDB6C1B0EDBB21846BD465DF8047B28
:10075000704700BFB081E00F80B400AF054BDB6C89
:1007600003F47F031B0CDBB21846BD465DF8047B27
:10077000704700BFB081E00F80B582B000AFFFF7D7
:10078000EBFF03464A2B04D0792B02D0482B21D013
:1007900022E0144B1B699BB203F03F039BB21B0288
:1007A000FB80104B9B6903F0F0039AB2FB88134364
:1007B000FB800C4BDB6903F0F0031B099AB2FB884A
:1007C0001343FB80FB88B3F5017F01D3064B04E0A4
:1007D000064B02E0054B00E0002318460837BD46F3
:1007E00080BD00BFD0FF0FE000366E010048E80179
:1007F00080B584B000AF786039607A683B689A420F
:100800008CBF01230023DBB2FB6006481E21FA687F
:10081000FFF74EFF04480821FA68FFF749FF103739
:10082000BD4680BD00800C4004800C4080B582B085
:1008300000AF07481E21FFF751FF786005480821E7
:10084000FFF74CFF38607B6818460837BD4680BD0F
:1008500000800C4004800C4080B582B000AF214B7A
:100860005B6903F4E063B3F5007F1CD0B3F5007F50
:1008700005D8002B25D0B3F5807F1FD02AE0B3F533
:10088000C06F24D0B3F5E06F1ED0B3F5407F21D107
:10089000FFF754FF0346122B02D9134B7B601CE079
:1008A000124B7B6019E0FFF749FF0346122B02D978
:1008B0000F4B7B6011E00F4B7B600EE00E4B7B60BB
:1008C0000BE00E4B7B6008E00D4B7B6005E00D4BB1
:1008D0007B6002E000237B6000BF7B68184608371E
:1008E000BD4680BD00800C40804F120040420F008A
:1008F00040B56400C0CF6A00C0D8A700809FD50073
:10090000406F4001003FAB0180B582B000AF0D48A1
:1009100000F08EFA0346FB70FB78072B05D0082BFE
:1009200007D1FFF78FFC786006E0FFF795FF78604E
:1009300002E000237B6000BF7B6818460837BD4695
:1009400080BD00BF06000C0080B485B000AF7860A9
:10095000284BDB6B002B14BF01230023BB72254BFC
:1009600041F67132DA63234B5B6803F00703FB60E7
:10097000FB68012B01D9042B02D10023FB7202E09A
:100980000123FB7200BF7B681B4A934207D9FB7AA5
:10099000002B01D0052300E00423FB6016E07B68F8
:1009A000154A93420BD87B68144A934207D9FB7AC5
:1009B000002B01D0032300E00123FB6006E0FB7A5B
:1009C000002B01D0022300E00023FB600949094B02
:1009D0005B6823F00702FB6813434B60BB7A002B74
:1009E00002D0044B0022DA631437BD465DF8047B65
:1009F000704700BF00000C400048E8010024F400EC
:100A000080B500AFFFF714FC03461846FFF79CFFC4
:100A100080BD00BF90B585B000AF78600023BB609B
:100A20007B68344A934203D0334A934200D000E0BB
:100A300000BF786800F0FCF90346FB607B682D4A34
:100A4000934203D02C4A934206D00CE02B4B9B6A76
:100A500003F00303FB6006E0284B9B6A03F00C03E2
:100A60009B08FB6000BFFB68032B3AD801A252F839
:100A700023F000BFAB0A0000850A00008D0A0000C9
:100A8000950A0000FFF770FCB8602DE0FFF780FCCE
:100A9000B86029E0FFF7B2FB0446FFF7C7FE034644
:100AA000013324FA03F3BB601EE00023BB607B68C4
:100AB000104A934203D07B680F4A934210D10F4BE8
:100AC0009A6A7B680B498B4201D1102300E0142302
:100AD00022FA03F3002B03D0FFF750FCB86003E0C9
:100AE00002E00023BB6000BFBB6818461437BD4658
:100AF00090BD00BF02001A0003001C0000800C40E3
:100B000080B483B000AF7860094B5B6D03F00103E4
:100B1000002B00D006E000BF054B1A6D7B68134028
:100B2000002BF9D10C37BD465DF8047B704700BF40
:100B300000800C4080B582B000AF104800F078F91A
:100B40000346FB70FB78032B07D0082B09D0022B40
:100B50000BD1FFF71DFC78600AE0FFF705FC786019
:100B600006E0FFF76FFB786002E000237B6000BFC8
:100B70007B6818460837BD4680BD00BF07232200AA
:100B800090B587B000AF78600B46FB7000233B61E7
:100B90007B681B0A03F00F03013B092B49D801A214
:100BA00052F823F0E90B0000EF0B0000CD0B000022
:100BB000330C0000330C0000F50B0000FF0B0000AD
:100BC000330C0000330C0000090C00001B4B7B6150
:100BD0001B4800F041F80446FFF7CEFD03462046CF
:100BE0001946FFF705FE12E0164B7B610FE0164B2E
:100BF0007B610CE0154B7B6101233B6107E0144BEB
:100C00007B6110233B6102E0124B7B6100BF7B687C
:100C10001B0B03F01F03FB603B69002B02D03869FC
:100C2000FFF76EFFFB787869F9681A46FFF740FD19
:100C300000E000BF1C37BD4690BD00BF40800C40A7
:100C40000043020008800C4044800C4058800C4057
:100C500060800C4078800C4090B585B000AF786023
:100C60007B6803F47813B3F5B01F00F0AB80B3F5E5
:100C7000B01F1AD8B3F5402F00F0BF80B3F5402F56
:100C800008D8B3F5003F3CD0B3F5802F2DD0002B12
:100C900027D0BEE0B3F5801F3CD0B3F5A01F47D0EE
:100CA000B3F5602F00F0AD80B3E0B3F5081F00F09E
:100CB000AC80B3F5081F0AD8B3F5D01F25D0B3F523
:100CC000E01F7AD0B3F5C01F00F08980A1E0B3F532
:100CD000201F4ED0B3F5281F62D0B3F5181F35D0B2
:100CE00097E0FFF7AFFAF86096E0FFF7ABFAF8602D
:100CF0004C4B9B6803F00F031A46FB68D340FB6024
:100D00008AE0FFF77BFAF86086E04748FFF782FE4B
:100D1000F86081E04448FFF77DFEF860414B9B6E30
:100D200003F0F0031B091A46FB68D340FB6073E035
:100D30003D48FFF76FFEF8603A4B9B6E03F470631B
:100D40001B0A1A46FB68D340FB6065E03648FFF794
:100D500061FEF860334B9B6E03F440531C0B102074
:100D6000FFF7D2FC034623441A46FB68D340FB60DE
:100D700052E02D48FFF74EFEF8602A4B9B6E03F4BD
:100D800040531B0B1A46FB68D340FB60254BDB6FBF
:100D900003F007030133FA68B2FBF3F3FB603BE0B7
:100DA0002148FFF737FEF8601E4B9B6E03F00303EC
:100DB0001A46FB68D340FB602EE01C48FFF72AFE72
:100DC000F86029E01948FFF725FEF860154B1B6F06
:100DD00003F003031A46FB68D340FB601CE0134892
:100DE000FFF718FEF8600F4B1B6F03F030031B0971
:100DF0001A46FB68D340FB600EE0FFF785FDF86004
:100E00000AE0FFF729FDF86006E0FFF793FEF860BF
:100E100002E00023FB6000BFFB6818461437BD46A4
:100E200090BD00BF00800C4002001A0003001C00AF
:100E300080B485B000AF78600123FB737B6803F05A
:100E40000F03BB60BB68013B062B00F2938001A23D
:100E500052F823F0710E0000A70E0000E30E000010
:100E6000750F0000750F00001F0F0000410F0000FC
:100E7000454BDB6A03F47053B3F5805F09D0B3F5DB
:100E8000005F03D0B3F5006F06D008E00223FB73C8
:100E900008E00323FB7305E00423FB7302E0052352
:100EA000FB7300BF69E0384B9B6A03F00303022B1E
:100EB00006D0032B07D0012B08D10323FB730FE0CF
:100EC0000223FB730CE00623FB7309E02E4B9B6AA5
:100ED00003F48033002B02D00923FB7300E000BF32
:100EE0004BE0294B9B6A03F00C03082B06D00C2B1C
:100EF00007D0042B08D10323FB730FE00223FB73FD
:100F00000CE00623FB7309E01F4B9B6A03F480137C
:100F1000002B02D00923FB7300E000BF2DE01A4B29
:100F20001B6803F08053002B03D0B3F1805F03D024
:100F300023E00723FB7302E00823FB7300BF1CE0E0
:100F4000114BDB6A03F46033B3F5803F08D0B3F58F
:100F5000003F08D0B3F5004F08D10823FB7308E029
:100F60000223FB7305E00323FB7302E00123FB7301
:100F700000BF02E00023FB7300BFFB7B1846143761
:100F8000BD465DF8047B704700800C4090B589B089
:100F900000AF78600B46FB700323FB610323FB76F5
:100FA00000233B617B6803F00F03FB60FB68013BA0
:100FB000062B00F2348101A252F823F0D90F000071
:100FC000C5100000C51000001F1200001F12000015
:100FD0008D110000B7110000FB78023B072B00F2D7
:100FE000228101A252F823F0091000001310000022
:100FF0001D100000671000002712000027120000DB
:1010000027120000271200000423FB610023FB7657
:1010100039E00323FB610123FB7634E00223FB610B
:101020000223FB76FFF7A8FB03465C1CFFF7A4FB3B
:10103000034620461946FFF7DBFBFFF783F902461C
:101040007C4B9A4206D97C4A7B4B1B6843F0600379
:10105000136018E0784A784B1B6823F0600343F074
:10106000200313600FE00123FB610323FB76FFF7EE
:1010700083FB03465C1CFFF77FFB034620461946B3
:10108000FFF7B6FB00BFFB7E18460121012200F0EE
:10109000D9F8FFF7B5FC684AFB6953626748FFF768
:1010A000DBFD0446FFF768FB034620461946FFF7C1
:1010B0009FFB00F077FCFFF7A1F8B860B868FFF776
:1010C00043FCADE0FB78013B082B00F2AE8001A2AF
:1010D00052F823F0F9100000FF1000000F1100007B
:1010E0002B1200002B1200001F1100002B12000019
:1010F0002B1200004311000000237B6126E000203A
:101100000121012200F09EF802237B611EE00120F4
:101110000121012200F096F801237B6116E0FFF720
:101120006DF8B860FFF728FB0346B8681946FFF76B
:101130005FFB434804210122FFF7BAFA03237B61D6
:1011400004E000237B6101233B6100BFFB68022BAD
:101150000DD13949384B9B6A23F4803323F00303C4
:101160007A691A433B691B0413438B6258E0324986
:10117000314B9B6A23F4801323F00C037A699200AD
:101180001A433B691B0513438B6249E0FB78072B2D
:1011900002D0082B07D049E0274A274B1B6823F0D1
:1011A0008053136006E0244A234B1B6843F08053AE
:1011B000136000BF34E0FB78032B14D0082B22D03F
:1011C000022B00D032E000200121012200F03AF889
:1011D000194B40225A6200BF174BDB6A03F480337D
:1011E000002BF9D01AE001200121012200F02AF899
:1011F000114B60225A6200BF0F4BDB6A03F40033CD
:10120000002BF9D00AE00C4B20225A6200BF0A4B97
:10121000DB6A03F40043002BF9D000BF00E000BFFD
:10122000FFF704FB02E000BF00E000BF2437BD462B
:1012300090BD00BF0048E80100800C400043020060
:1012400040800C4080B586B000AF0346FB710B4672
:10125000BB7113467B71FB79042B4AD801A252F86B
:1012600023F000BFB1120000A3120000871200009B
:10127000791200009512000001233B610223FB60FC
:1012800001237B611DE004233B610823FB600323F2
:101290007B6116E010233B612023FB6005237B610B
:1012A0000FE040233B618023FB6007237B6108E064
:1012B0004FF480733B614FF40073FB6009237B6143
:1012C00000BFBB79002B0ED00C4A3B6913627B79BF
:1012D000002B0BD000BF0A487969FFF7FFF90346DE
:1012E000002BF8D002E0054AFB68136200F05AFBBD
:1012F00000E000BF1837BD4680BD00BF00800C4035
:101300002C800C4080B483B000AFEFF310833B60BF
:101310003B687B6072B67B6818460C37BD465DF84B
:10132000047B704780B483B000AF78607B68002B8B
:1013300000D162B60C37BD465DF8047B704700BF34
:1013400080B483B000AF0346FB71084997F90730BA
:101350005B09FA7902F01F02012000FA02F241F85B
:1013600023200C37BD465DF8047B704700E100E0A8
:1013700080B483B000AF0346FB71094997F9073089
:101380005B09FA7902F01F02012000FA02F2203311
:1013900041F823200C37BD465DF8047B704700BF41
:1013A00000E100E080B483B000AF0346FB7109495F
:1013B00097F907305B09FA7902F01F02012000FA61
:1013C00002F2603341F823200C37BD465DF8047B00
:1013D000704700BF00E100E080B487B000AFF86064
:1013E000B9607A60FB6803F10473DA00BB681344E8
:1013F0009B007B617B697A681A601C37BD465DF88B
:10140000047B704780B58AB000AF334B03F580533F
:101410001B68BB61304B03F580530C331B68BA6902
:101420001340BB612C4B9B6B7B61BA697B6913409A
:101430003B620023FB6149E000237B623BE03B6AA7
:1014400003F00103002B30D0234B9B683B6101224A
:101450007B6A02FA03F3FB601F4B03F580530833EA
:10146000FA681A607B6A1B013A691344DB68BB6047
:10147000BB68002B19D0BB681B7A7B60BB681B7AEA
:1014800083F00103DAB2BB681A72BB681B68002BD9
:101490000BD0BB681B68786A7A68002A14BF0122E7
:1014A0000022D1B2BA68526898473B6A5B083B6237
:1014B0007B6A01337B623B6A002BC0D17B69DA43D4
:1014C000BB6913403B62FB690133FB61FB69012B84
:1014D000B2DD2837BD4680BD00200C4080B584B009
:1014E00000AF786039601F4B9B68FB607B681B0115
:1014F000FA6813443A689268DA603B681B78002BFC
:1015000006D0184A7B68012101FA03F3936305E0D2
:10151000144A7B68012101FA03F3D36311493B6844
:101520005A687B6803F5886341F823203B685B7841
:10153000002B0FD00B4A7B68012101FA03F31946F7
:1015400002F5805308331960074879680122FFF7D4
:1015500043FF04E0044879680022FFF73DFF10379D
:10156000BD4680BD00200C400C300C4080B487B0DC
:1015700000AFF8600B467A60FB72FB7A002B03D059
:10158000154B9B687B6102E0134BDB687B61FB685A
:101590001B017A6913447B617B681B789A077B681F
:1015A0009B781B071A437B685B789B061A437B6812
:1015B0009B781B0613431A467B681B799B041343D5
:1015C0007A68D27892031A437B699A601C37BD46C9
:1015D0005DF8047B704700BF00200C4080B582B0EE
:1015E00000AF786010480121FFF7CAFA00F020F838
:1015F0000020FFF7D7FE0020FFF7A2FE0B4B03F5FC
:1016000080530C334FF000421A60084A7B685B68D5
:101610009360064A7B681B785B0143F001035360CB
:101620000837BD4680BD00BF0003020000200C400B
:1016300080B582B000AF0020FFF79AFE1C4B00225D
:101640005A601B4B40F6FF72DA61194B40F6FF728D
:101650005A62174B40F6FF72DA62154B40F6FF7282
:101660005A63134B40F6FF72DA63114B0122DA64BE
:101670000F4B03F580530C3300221A600C4B03F51B
:10168000805308330B4A1A6000237B6009E0084A44
:101690007B6803F58863002142F823107B680133DF
:1016A0007B607B680B2BF2DD0837BD4680BD00BF39
:1016B00000200C40FF0F008080B500AFFEF79EFDBC
:1016C00080BD00BF80B400AF034B0022C3F884206C
:1016D000BD465DF8047B704700800C4080B400AFCD
:1016E000044B45F60E02C3F88420BD465DF8047B2A
:1016F000704700BF00800C4080B582B000AF384B0F
:10170000D3F8843003F001037B60FFF7E7FF002389
:101710003B60344B1B6803F001033A6813433B60A2
:10172000304B1B6803F010033A6813433B602D4BAA
:101730001B6803F040033A6813433B60294B1B6866
:1017400003F004033A6813433B60264B1B6803F421
:1017500080733A6813433B60214A3B681362214B14
:101760001B6803F47053B3F5805F06D0B3F5005FD8
:101770000ED0B3F5006F16D020E000BF184BDB6A27
:1017800003F08003002BF9D0154B03225A6215E0B9
:1017900000BF134BDB6A03F40073002BF9D0104B2E
:1017A00004225A620AE000BF0D4BDB6A03F0080313
:1017B000002BF9D00A4B02225A6200BF094B1B686A
:1017C00003F00103002B02D1054B02221A627B6851
:1017D000002B01D0FFF776FF0837BD4680BD00BF64
:1017E00000800C401C01002080B483B000AF164B79
:1017F0001B699BB203F03F039BB21B02FB80124BA1
:101800009B6903F0F0039AB2FB881343FB800E4BF5
:10181000DB6903F0F0031B099AB2FB881343FB80DA
:10182000FB88B3F5827F03D3FB88B3F5017F01D139
:10183000012300E0002303F00103DBB218460C375C
:10184000BD465DF8047B7047D0FF0FE080B586B0E1
:1018500000AF0346FB711F4BDB6A1F4A13601F4A30
:101860001E4B1B6943F004031361FFF7BDFF0346E2
:10187000FB75FB7D002B11D0194B1A68194B1340D7
:10188000FB60174AFB68C2F88030154B5B6823F099
:1018900046033B61124A3B69C2F8843030BFFB7D8E
:1018A000002B05D00E4AFB6813600D4A3B6953605C
:1018B000FB79002B02D0FFF71FFF07E0064B1B68E8
:1018C00003F48063002B01D1FFF7F6FE1837BD4605
:1018D00080BD00BF00800C401C01002000ED00E036
:1018E00000E100E09CF1FD0080B586B000AF03464A
:1018F000FB71274BDB6A274A1360254BD3F88430F2
:1019000003F001037B61FFF7E9FE214B4FF42072E6
:101910001A627B69002B01D0FFF7D4FE1E4A1E4BD2
:101920001B6943F004031361FFF75EFF0346FB747A
:10193000FB7C002B11D0194B1A68194B1340BB606C
:10194000164ABB68C2F88030144B5B6823F046032C
:10195000FB60124AFB68C2F8843030BFFB7C002B6E
:1019600005D00E4ABB6813600C4AFB685360FB79D4
:10197000002B02D0FFF7C0FE07E0064B1B6803F404
:101980008063002B01D1FFF797FE1837BD4680BD5D
:1019900000800C401C01002000ED00E000E100E0B0
:1019A0009CF1FD0080B400AF034BDB6A034A136077
:1019B000BD465DF8047B704700800C401C01002090
:1019C00080B483B000AF03463960FB71FB79002B14
:1019D0000DD0FB79012B0AD0FB79022B07D0FB79C4
:1019E000032B04D0FB79042B01D0FB79052B09498B
:1019F000FA793B68012000FA03F318461346DB002E
:101A000013449B000B44103358600C37BD465DF8FF
:101A1000047B70470060004080B483B000AF034691
:101A20003960FB71FB79002B0DD0FB79012B0AD0BB
:101A3000FB79022B07D0FB79032B04D0FB79042B15
:101A400001D0FB79052B0949FA793B68012000FA9E
:101A500003F318461346DB0013449B000B4410337A
:101A600018600C37BD465DF8047B7047006000408D
:101A700090B482B000AF03460A46FB711346BB71B7
:101A8000FB79002B0ED0FB79012B0BD0FB79022BBD
:101A900008D0FB79032B05D0FB79042B02D0FB790E
:101AA000052B03D1BB79032B00D800BF0B48FA7973
:101AB0000A4CF9790B46DB000B449B0023441B685E
:101AC00023F00301BB7919431346DB0013449B0049
:101AD000034419600837BD4690BC70470060004061
:101AE00090B585B000AFB9607B600346FB731346C9
:101AF000BB73FB7B002B0DD0FB7B012B0AD0FB7B48
:101B0000022B07D0FB7B032B04D0FB7B042B01D0E3
:101B1000FB7B052BBB7B002B0DD07B68002B05D0FE
:101B2000FB7B1846B968FFF777FF04E0FB7B18469C
:101B3000B968FFF745FFBB68072B1CD82A4CFA7B16
:101B40002948F97B0B46DB000B449B0003445B6890
:101B5000B968890008460F218140C9430B40B97B11
:101B6000B8688000814019431346DB0013449B0092
:101B70002344596024E01C4CFA7B1B48F97B0B463C
:101B8000DB000B449B00034408331968BB6803F176
:101B90008043083B9B0018460F238340DB431940DA
:101BA000B87BBB6803F18043083B9B0000FA03F35A
:101BB00019431346DB0013449B0023440833196088
:101BC000BB7B002B0DD17B68002B05D0FB7B18461F
:101BD000B968FFF721FF04E0FB7B1846B968FFF7FF
:101BE000EFFE1437BD4690BD0060004080B487B062
:101BF00000AFF860B9607A60FB68114A934208D17F
:101C0000BB68012B05D87B681B0C1B04002B00D183
:101C100000BFBB68002B02D0012B04D00AE0FB6898
:101C200010337B6103E0FB6814337B6100BF7B6989
:101C30007A681A601C37BD465DF8047B704700BFA8
:101C40000020084080B485B000AF78603960002380
:101C5000FB603B681B7883F00103DBB2002B08D0EC
:101C60007B689B6803F00103002B02D07B68022293
:101C70005A603B685B78002B03D0FB6843F48053C9
:101C8000FB603B689B78002B03D0FB6843F48063C8
:101C9000FB603B68DB78002B03D0FB6843F40063F8
:101CA000FB603B681B79002B03D0FB6843F4007397
:101CB000FB603B685B79002B03D0FB6843F48073C7
:101CC000FB603B689B79002B03D0FB6843F040032B
:101CD000FB603B68DB79002B03D0FB6843F080039B
:101CE000FB603B681B7A9B001A46FB681343FB6052
:101CF0003B685B7A1B011A46FB681343FB603B6839
:101D00009B7A1A46FB681343FB607B68FA681A608B
:101D10003B681B78002B08D07B689B6803F00103AD
:101D2000002B02D17B6801225A601437BD465DF852
:101D3000047B704780B483B000AF786039607B6803
:101D40001B6C03F00103002B00D006E000BF7B6892
:101D50005A6C3B681340002BF9D10C37BD465DF837
:101D6000047B704780B586B000AFF860B9607A60D8
:101D7000BB68002B12D1FB68164A934202D1164B66
:101D80007B6107E0FB68154A934202D1144B7B61EB
:101D900000E01BE07869FEF75FFFB860BB685A019E
:101DA0007B68B2FBF3F33B613B69203B3B613B69E2
:101DB000DB003B613A6947F6F87313403B61F86812
:101DC0000421FFF7B7FFFB683A69DA601837BD46B0
:101DD00080BD00BF00400840700716000044084066
:101DE0007017180080B483B000AF78600B46FB70AA
:101DF000FB78002B08D000BF7B685B6C002BFBD10D
:101E00007B6801221A6402E07B6800221A640C37A6
:101E1000BD465DF8047B704780B582B000AF786046
:101E200039607B681B4A934203D07B681A4A93420D
:101E300000D100BF78680221FFF77CFF7B680A228F
:101E40005A6078680121FFF7CDFF7B681B6823F09B
:101E50001C033A68127B13433A68527B13433A6877
:101E6000927B1A437B681A603B685A683B689B68A0
:101E7000786811461A46FFF775FF3B681B781A46CB
:101E80007B685A6078680021FFF7ACFF0837BD46D1
:101E900080BD00BF004008400044084080B582B0CB
:101EA00000AF78607B68174A934203D07B68164A7C
:101EB000934200D100BF78680121FFF793FF7B6850
:101EC000EA225A607B6800221A607B680022DA608E
:101ED0007B6800221A617B6800225A617B680022BD
:101EE0009A637B6840F2F9725A637B680022DA6376
:101EF0007B6800225A6578680021FFF773FF083776
:101F0000BD4680BD004008400044084080B485B014
:101F100000AF7860194B5B69DBB203F00F03DBB2F3
:101F20009B00FB73154B1B6903F0C0039B09DAB2DE
:101F3000FB7B1343FB737B68FA7B9A700F4B1B6927
:101F4000DBB203F03F03DAB27B685A700B4B9B693C
:101F5000DBB223F00F03FB73084BDB6903F0F003E4
:101F60001B09DAB2FB7B1343FB737B68FA7B1A70A5
:101F70001437BD465DF8047B704700BFD0FF0FE00B
:101F800080B483B000AF786039607B683B4A93428D
:101F90000BD07B683A4A934207D07B68394A934218
:101FA00003D07B68384A934200D100BF3B681B785E
:101FB00083F00103DBB2002B02D07B6802225A605F
:101FC0007B6800225A623B689B781A063B68DB7884
:101FD0001B041A433B689B799B021A433B68DB79DD
:101FE0001B0213433A68127A1A433B685B78002B52
:101FF00001D0402300E000231A433B685B7A002BAA
:1020000001D0802300E000231A433B689B7A002B19
:1020100001D0202300E000231A433B68DB7A002B29
:1020200001D0102300E000231A433B681B79002BEA
:1020300002D04FF4005300E000231A433B685B7961
:10204000002B02D04FF0805300E000231A433B687E
:102050001B7B002B01D0082300E000231A437B6880
:102060001A603B681B78002B02D07B6801225A6003
:102070000C37BD465DF8047B704700BF000001408F
:102080000004014000080140000C014080B483B00E
:1020900000AF0346FB71084997F907305B09FA79ED
:1020A00002F01F02012000FA02F241F823200C374F
:1020B000BD465DF8047B704700E100E080B483B06A
:1020C00000AF786039607B683A681A620C37BD46A9
:1020D0005DF8047B704700BF80B483B000AF7860C8
:1020E00039607B685A693B681A437B685A610C37D0
:1020F000BD465DF8047B704780B586B000AF002315
:10210000FB750023BB75204B00221A701F48FEF799
:10211000A3FD03461846FEF79BFA0346BB751C4811
:102120000021FEF763FA0346FB7500233B7400238E
:102130007B740023BB74BB7D0133DBB2FB74FB7D7E
:102140003B7500237B75134A3B1D1068516803C320
:10215000127A1A7007F110030F481946FEF7B4F906
:102160000D4A0D4BDB6843F00103D3603B1D0A4869
:102170001946FEF7EDF900F011F80720FFF786FF8A
:102180001837BD4680BD00BF5805002040810400BF
:10219000C05C1500984400000020004080B500AFEE
:1021A000054A054B1B6A43F00303136202480121F1
:1021B000FFF792FF80BD00BF0020004090B587B0C0
:1021C00000AF00237B614FF000033B614FF0FF3312
:1021D000FB60FFF797F8B860544B9B6903F001036D
:1021E000002B00F0828051480121FFF767FF504B20
:1021F0001B781C464D4B5B6A184601F01DFE0246DB
:102200004C4B43F824204A4B1B781C46484B1B7808
:102210001A46484B53F8223018464FF08B4101F0D4
:1022200017FF03461846444901F05EFE03461A466E
:10223000404B43F824203E4B1B781A463D4B53F845
:10224000223018463D4901F04FFE0346184602F081
:1022500037F80346FB71364B1B789B01DAB2FB79EA
:102260001343DBB2DAB2364B1A70354B1B78184683
:1022700001F0E2FD03463348194600F0D1FF2C4B34
:102280001B780133DAB22A4B1A70294B1B781A4695
:102290002D4B1B78013B9A4202DD254B00221A7020
:1022A000234B1B78032B1BD801A252F823F000BF4D
:1022B000C1220000C9220000D1220000D922000062
:1022C000224B01221A710CE0204B02221A7108E005
:1022D0001E4B03221A7104E01C4B06221A7100E007
:1022E00000BF12481949FEF733F919480021FEF7DB
:1022F00047FC0E4A0D4B5B6843F00203536001201C
:1023000001F01EF8134B1B7883F00103DBB2002BA6
:1023100005D01820FFF7BAFE0E4B01221A70B868DC
:10232000FFF700F81C37BD4690BD00BF00200040FD
:1023300058050020640500200000A03F0000204157
:10234000740500207C0500200800002054010020B6
:10235000000205006C01002080B586B000AF7860F7
:10236000164B1B6803F47F031B0C184601F064FD39
:1023700003467B61114BDB681B0D184601F05CFDC9
:1023800003463B610E4BFB60786801F059FD034644
:102390003869194601F09EFC03461846F96801F0B9
:1023A00057FE03467869194601F094FC0346BB606A
:1023B000BB6818461837BD4680BD00BFB081E00F2E
:1023C000D7A3C8C080B584B000AF0023FB60002352
:1023D000BB604FF000037B600023FB600BE0134AFF
:1023E000FB6832F813309BB21A46BB681344BB60DB
:1023F000FB680133FB60FB68B3F5FA7FEFD3BB6882
:102400000B4AA2FB03235B09184601F015FD0346A6
:102410007B60786801F02EFF03461846FFF79CFFAB
:1024200078607B6818461037BD4680BD700100207B
:10243000D34D621080B500AF2E480121FEF7A0FBFE
:102440002D4B1B785BB2032B20D1052001210122EB
:10245000FEF7F8FE29480921FEF798FD28480121DA
:10246000FEF78EFB27480121FEF78AFB2648012153
:10247000FEF786FB00F058F8052001210122FEF747
:10248000E1FE1E480921FEF781FD0CE0002001213C
:102490000122FEF7D7FE19480221FEF777FD184802
:1024A0000121FEF76DFB19480121FEF769FB184871
:1024B0000121FEF765FB17480121FEF761FB164875
:1024C0000121FEF75DFB15480121FEF759FB0A4B80
:1024D0001B785BB2032B04D111480221FEF756FD95
:1024E00003E00F480221FEF751FD0E480121FEF7DF
:1024F00047FB80BD004302003901002002001A00A2
:1025000060261400005204000062040040810400B0
:1025100000920400000205000003020000D2040043
:1025200003001C007007160090B58DB002AF0023A9
:102530007B6200233B6207F1100300221A60043320
:1025400000221A60043300221A60043300221A7039
:1025500001333B4600221A60043300221A60043320
:1025600000221A60043300221A7001330223FB7028
:1025700001233B732F4B30480ECB00F07FFC3B7F99
:102580008DF8003007F110030ECB2C4800F01CFF33
:102590003B7B8DF800303B460ECB294800F014FF02
:1025A00007F1200318464FF47A71012200F054F825
:1025B000234B00225A62214B00225A62052000213F
:1025C0000022FEF73FFE002001210122FEF73AFE25
:1025D0001C480221FEF7DAFC1B480121FEF7D0FA65
:1025E00007F1240318464FF40041012200F034F8AB
:1025F0007B6A184601F020FC04463B6A184601F04D
:102600001BFC03462046194601F022FD03461A46EC
:102610000E4B1A60002000210022FEF713FE0C482A
:102620000021FEF7ADFA0B480021FEF7A9FA2C377E
:10263000BD4690BDA44400000020084000000140B9
:102640000004014002001A0060261400300100203E
:10265000005204000062040080B487B000AFF8604C
:10266000B9607A6000237B612249BB687A6802FB0B
:1026700003F3CB601F4A1F4B5B6843F001035360B9
:1026800000BF1C4B5B6B03F002037B617B69022B79
:10269000F7D0194A184B5B6843F001035360174A9F
:1026A000164B5B6843F00103536000BF114BDB68BE
:1026B000002BFBD10F4A0F4B5B6843F002035360C2
:1026C0000D4A0D4B5B6843F0020353600B4A0B4B02
:1026D0005B6843F002035360074B5B6A1A04074BC5
:1026E0005B6A1A43FB681A601C37BD465DF8047BC1
:1026F000704700BF00200840000401400000014076
:1027000080B582B000AF7860396078684FF0804162
:1027100001F0A6FD0346002B04D07868396800F06C
:1027200019F805E0084B00221A60084B01221A60D4
:102730000749074B9A6E044B1B681B0213438B66B9
:102740000837BD4680BD00BF3C0100203401002099
:1027500000800C4080B584B000AF78603960002301
:10276000BB600023FB60386801F066FB0346184637
:10277000796801F0B9FB0346184601F0A1FD034654
:10278000BB60BB68FB600D4B01221A600FE00C4B75
:102790001B6801330A4A1360084B1B685B00074A39
:1027A0001360064B1B68BA68B2FBF3F3FB60FB686F
:1027B000B3F5803FEBD81037BD4680BD3401002013
:1027C0003C01002080B588B000AF00233B76174B5A
:1027D000FB6107F118031846FEF700FF144B154A7A
:1027E0001A60134B00225A6001233B7301237B7351
:1027F0004FF400233B610E4B7B6107F10C0300207B
:102800001946FEF76BFE01233B7103237B71012305
:10281000BB710023FB7100233B723B1D0020012193
:102820001A46FEF7A3FE2037BD4680BD00060020F5
:10283000600100203928000090B589B000AFF86031
:102840000B467A60FB724FF00003FB614FF0FF33E1
:10285000BB612A4A294B5B6843F002035360284856
:102860000021FEF78DF9012000F06AFDFFF7AAFDB7
:10287000F861FEF747FD786101231C46F8694FF0C7
:10288000000101F0EDFC0346002B01D100231C46A2
:10289000E3B21A461B4B1A701A4B1B7863F07F0386
:1028A000DAB2184B1A70184B1B7883F00103DBB2B5
:1028B000002B05D0022000F029FD134B01221A70D5
:1028C0007869FEF72FFDF869104901F0BFFC034657
:1028D000002B0BD0F8690E4901F0AEFC0346002B2B
:1028E00004D00420032100F08FF803E0042003212A
:1028F00000F07CF82437BD4690BD00BF00200040AA
:102900000002050060050020610500200000704104
:1029100000000C4280B483B000AF03463960FB7105
:10292000FB79002B0DD0FB79012B0AD0FB79022B10
:1029300007D0FB79032B04D0FB79042B01D0FB7962
:10294000052B0949FA793B68012000FA03F3184680
:102950001346DB0013449B000B44103358600C37C4
:10296000BD465DF8047B70470060004080B483B0D2
:1029700000AF03463960FB71FB79002B0DD0FB796A
:10298000012B0AD0FB79022B07D0FB79032B04D053
:10299000FB79042B01D0FB79052B0949FA793B68B7
:1029A000012000FA03F318461346DB0013449B0092
:1029B0000B44103318600C37BD465DF8047B70473C
:1029C0000060004080B500AF0420022105220023F2
:1029D000FFF786F80420032105220023FFF780F883
:1029E00004200121FFF744F880BD00BF80B582B00C
:1029F00000AF03463960FB71FB7918463968FFF771
:102A0000B5FF0837BD4680BD80B582B000AF034634
:102A10003960FB71FB7918463968FFF77BFF08378F
:102A2000BD4680BD80B483B000AF0346FB7108494A
:102A300097F907305B09FA7902F01F02012000FACA
:102A400002F241F823200C37BD465DF8047B704745
:102A500000E100E080B483B000AF7860044A7B6896
:102A6000C2F81C310C37BD465DF8047B704700BFCF
:102A70000060004080B582B000AF0346FB71044A9D
:102A8000FB79536200F006F80837BD4680BD00BFF1
:102A900000A4004080B400AF00BF064B9B6A03F067
:102AA0004003002BF9D0034B40221A63BD465DF86A
:102AB000047B704700A4004080B400AF044A044B7C
:102AC0005B6843F001035360BD465DF8047B7047CB
:102AD00000A4004080B400AF044A044B5B6843F09C
:102AE00002035360BD465DF8047B704700A40040BC
:102AF00080B483B000AF786000BF0B4B9B6A03F0DB
:102B00002003002B05D1084BDB6803F48073002BF6
:102B1000F3D0054BDB69DAB27B681A700C37BD461F
:102B20005DF8047B704700BF00A4004080B584B00E
:102B300000AF3923FB730023BB7300237B73002397
:102B4000FB700023BB7000237B7000233B700023CD
:102B50007B81FEF7D7FB78600220FFF77BFF002325
:102B60007B73FFF7A9FFFB7B5B00DAB27B7B134330
:102B7000DBB2BB73BB7B1846FFF77CFF9C20FFF7E3
:102B800079FF01237B73FFF797FFFB7B5B00DAB2D2
:102B90007B7B1343DBB2BB73BB7B1846FFF76AFF3B
:102BA000FB1C1846FFF7A4FF424A424B5B6843F008
:102BB00004035360BB1C1846FFF79AFF3D4A3D4B88
:102BC0005B6843F0040353607B1C1846FFF790FFDB
:102BD000384A384B5B6843F0040353603B46184661
:102BE000FFF786FF334A334B5B6843F008035360BB
:102BF000FFF770FFBB781B029AB2FB789BB21343BE
:102C00009BB27B812C4B1B78002B0DD17B890E2B2B
:102C100018D804200221FFF7E9FE274B01221A7081
:102C2000264B00221A700DE07B89B3F5006F09D99D
:102C300004200221FFF7E8FE1F4B00221A701F4BF1
:102C400001221A701E4B1B7883F00103DBB2002BAC
:102C500005D0022000F05AFB194B01221A70194BC3
:102C600001221A70184B1B7883F00103DBB2002B92
:102C700005D01820FFF7D6FE134B01221A7000234F
:102C80007B73FFF719FFFB7B5B00DAB27B7B13439F
:102C9000DBB2BB73BB7B1846FFF7ECFED020FFF71F
:102CA000E9FEFFF717FF7868FEF73CFB1037BD46DB
:102CB00080BD00BF00A400408C0500205905002005
:102CC00061050020630500206C01002080B483B002
:102CD00000AF786039607B683A689A620C37BD460D
:102CE0005DF8047B704700BF80B483B000AF7860AC
:102CF00039607B68DA6A3B681A437B68DA620C37B2
:102D0000BD465DF8047B704780B483B000AF786047
:102D10000B46FB70FA787B685A600C37BD465DF84D
:102D2000047B704790B58DB004AFF860384680E8FA
:102D30000E000023FB610023BB6100237B610320A5
:102D400000F0E4FA474B1B785BB2032B3BD1464BB8
:102D50001B681846454901F0C7F80346184600F0BD
:102D60002FFD02460B46104619464FF00002404B1D
:102D700000F07AFD02460B461046194600F086FF29
:102D80000346FB61F86901F057F80446364B1B68AF
:102D90001846364901F0A8F8034618464FF081411D
:102DA00001F0A2F803461846304901F051F90346F4
:102DB0002046194600F08EFF0346184601F080FABF
:102DC0000346BB6127E02B4B1B684FF40042B2FB6C
:102DD000F3F3184600F0D2FC02460B4610461946A3
:102DE0004FF00002224B00F03FFD02460B4610461A
:102DF000194600F04BFF0346FB611E4B1B684FF466
:102E00000042B2FBF3F39B001B4AA2FB03239B0986
:102E1000FA69D31ABB6101230093FB690193012373
:102E20000293BB690393F8683B460ECB00F04AF867
:102E300000BFFB685B6B03F002037B617B69022BC5
:102E4000F7D001237B6100BFFB685B6B03F00103DC
:102E50007B617B69012BF7D0F86800F085F8243797
:102E6000BD4690BD390100203001002000007A44A9
:102E700000000E4034010020D34D621080B586B0B2
:102E800000AFF860384680E80E003B46F868194607
:102E9000FEF7D8FE00BFFB685B6B03F002037B61AB
:102EA0007B69022BF7D001237B6100BFFB685B6B62
:102EB00003F001037B617B69012BF7D01837BD4616
:102EC00080BD00BF80B586B000AFF860384680E8AE
:102ED0000E00234B1B785BB2032B09D10520012187
:102EE0000122FEF7AFF91F480921FEF74FF808E06D
:102EF000002001210122FEF7A5F91A480221FEF760
:102F000045F8F8683B460ECBFFF7B8FF97F820303E
:102F1000002B0FD0F86800217A6AFEF767FE00BF29
:102F2000FB685B6B03F004037B617B69012BF7D0CB
:102F300001237B6197F82830002B0DD0F868012120
:102F4000FA6AFEF753FE00BFFB685B6B03F00803F1
:102F50007B617B69012BF7D01837BD4680BD00BF70
:102F60003901002002001A0080B582B000AF7860FD
:102F70007B689B6A43F01F027B689A627868012134
:102F8000FFF7B2FE78680221FFF7AEFE0837BD46B4
:102F900080BD00BF80B582B000AF00237B60FEF72C
:102FA000B1F93860154B1B6A03F00103002B15D0F3
:102FB00012480121FFF78AFE11480121FDF7E0FDCB
:102FC000012000F0A3F90F480121FFF79DFE00BF8B
:102FD0000C4B9B6803F48053002BF9D0074B1B6A02
:102FE00003F00203002B03D004480221FFF76EFE1A
:102FF0003868FEF797F90837BD4680BD00200840C5
:10300000000205000020004080B483B000AF0346FA
:10301000FB71094997F907305B09FA7902F01F0241
:10302000012000FA02F2203341F823200C37BD467C
:103030005DF8047B704700BF00E100E080B483B01E
:1030400000AF786039607B683A685A630C37BD46D8
:103050005DF8047B704700BF80B483B000AF786038
:1030600039607B689A6B3B681A437B689A630C37BC
:10307000BD465DF8047B704790B585B000AF214B2D
:103080003C460FCB84E80F001F48FEF707FF3B4686
:103090001D481946FEF7C0FE1B4800F049F81A4BC0
:1030A00002225A650320042104220023FEF718FDA2
:1030B000164B00221A70164B00221A70154B002274
:1030C0001A70154B00221A70144B00221A70144B00
:1030D00000221A70134B00221A70134B00221A7030
:1030E0000A2001F047F90246104B1A600F4B0022EC
:1030F0005A600E4B00229A600C4B0A22DA60143799
:10310000BD4690BDB0440000004008405905002075
:103110005D0100206D010020600500206105002098
:1031200063050020620500206C0100207C05002062
:1031300080B584B000AF78607B68DB6AFB607B6839
:103140005A6BFB681A437B685A6378680221FFF761
:1031500083FF1037BD4680BD80B586B000AF4FF00D
:1031600000033B600023FB730023BB7300237B73CE
:1031700000233B730023FB72FEF7C4F87860244BF6
:10318000DB6A03F00203002B3CD021480221FFF749
:1031900055FF3B461F48194600F074F80346B3F14B
:1031A000FF3F29D03B68184601F08AF80346FB73BD
:1031B000174AFB7B936200BF154BDB6A03F00103E8
:1031C000002BF9D0144B1B785BB2022B09D10023E2
:1031D0007B6102E07B6901337B617B69002BF9DB5A
:1031E0000AE000233B6102E03B6901333B613B693C
:1031F00040F6C3129342F7DD1820FFF705FF074B97
:1032000000221A707868FEF78DF81837BD4680BD29
:10321000004008407C050020390100206C0100209E
:1032200080B485B000AF786039604FF0FF33BB6089
:103230007B685B680133FB607B68DA68FB689A42F5
:1032400001DC0023FB607B689A68FB689A4204D12A
:103250004FF0FF33BB60BB680DE07B681A687B688A
:103260005B689B0013443A681A607B68FA685A608E
:103270000023BB60BB6818461437BD465DF8047B6D
:10328000704700BF80B485B000AF786039604FF000
:10329000FF33BB607B689A687B685B689A4204D1A5
:1032A0004FF0FF33BB60BB6819E07B681A687B682E
:1032B0009B689B0013441A683B681A607B689B6894
:1032C0000133FB607B68DA68FB689A4201DC00230B
:1032D000FB607B68FA689A600023BB60BB68184695
:1032E0001437BD465DF8047B704700BF80B400AF63
:1032F000054A054B1B6923F00403136130BFBD462B
:103300005DF8047B704700BF00ED00E080B584B03D
:1033100000AF0346FB71FDF7F5FFF86097F9073042
:10332000064A52F823200132044941F82320F86864
:10333000FDF7F8FF1037BD4680BD00BF40010020FB
:1033400080B584B000AF0346FB71FDF7DBFFF8608A
:1033500097F90730094A52F82330002B08D097F923
:103360000730064A52F82320013A044941F8232045
:10337000F868FDF7D7FF1037BD4680BD400100203B
:1033800080B500AF0F4B1B68002B00D019E00D4B30
:103390005B68002B02D0FFF7A9FF12E0094B9B6886
:1033A000002B03D00120FEF751FA0AE0054BDB6841
:1033B000002B03D00120FEF797FA02E00120FEF770
:1033C00093FA80BD4001002084B080B582B000AF88
:1033D000786007F1140080E80E0007F114037868A4
:1033E0001946FEF7CDFD0837BD46BDE8804004B064
:1033F000704700BF80B483B000AF0346FB7108493B
:1034000097F907305B09FA7902F01F02012000FAF0
:1034100002F241F823200C37BD465DF8047B70476B
:1034200000E100E080B582B000AF0C4B1B687B6010
:103430003B461846FEF76AFD7B681B0E0F2B0AD928
:103440003B78032B07D1064A054B1B6823F050033A
:1034500043F0100313600837BD4680BDFC81E00FC8
:10346000C0800C4080B500AF1C4B02221A701C4B70
:103470004FF000021A601B4B00221A601A4B002208
:103480001A60FFF7CFFF154B1B785BB2032B04D0FC
:1034900016484FF40041FFF733F9FEF7CBFF0F4B0F
:1034A0001B785BB21846FFF731FF114B11480ECB6A
:1034B000FFF738FCFFF786FAFEF71EFEFFF782F9EA
:1034C000FFF7DAFD0B4A0B4B5B6843F001035360D7
:1034D0001A20FFF78FFFFFF753FFFCE739010020A9
:1034E00030010020340100203C0100200000704029
:1034F000C04400000020084081F0004102E000BF0D
:1035000083F0004330B54FEA41044FEA430594EAA3
:10351000050F08BF90EA020F1FBF54EA000C55EADE
:10352000020C7FEA645C7FEA655C00F0E2804FEAAF
:103530005454D4EB5555B8BF6D420CDD2C4480EA91
:10354000020281EA030382EA000083EA010180EAC1
:10355000020281EA0303362D88BF30BD11F0004F0F
:103560004FEA01314FF4801C4CEA113102D0404245
:1035700061EB410113F0004F4FEA03334CEA133380
:1035800002D0524263EB430394EA050F00F0A78098
:10359000A4F10104D5F1200E0DDB02FA0EFC22FA93
:1035A00005F2801841F1000103FA0EF2801843FA87
:1035B00005F359410EE0A5F120050EF1200E012A78
:1035C00003FA0EFC28BF4CF0020C43FA05F3C018B6
:1035D00051EBE37101F0004507D54FF0000EDCF12F
:1035E000000C7EEB00006EEB0101B1F5801F1BD3D8
:1035F000B1F5001F0CD349085FEA30004FEA3C0CDC
:1036000004F101044FEA445212F5800F80F09A80D1
:10361000BCF1004F08BF5FEA500C50F1000041EBD5
:10362000045141EA050130BD5FEA4C0C404141EBD9
:10363000010111F4801FA4F10104E9D191F0000F00
:1036400004BF01460020B1FA81F308BF2033A3F183
:103650000B03B3F120020CDA0C3208DD02F1140C7A
:10366000C2F10C0201FA0CF021FA02F10CE002F1B5
:103670001402D8BFC2F1200C01FA02F120FA0CFCAE
:10368000DCBF41EA0C019040E41AA2BF01EB0451F7
:10369000294330BD6FEA04041F3C1CDA0C340EDCF5
:1036A00004F11404C4F1200220FA04F001FA02F338
:1036B00040EA030021FA04F345EA030130BDC4F1F6
:1036C0000C04C4F1200220FA02F001FA04F340EAEB
:1036D0000300294630BD21FA04F0294630BD94F09C
:1036E000000F83F4801306BF81F480110134013D83
:1036F0004EE77FEA645C18BF7FEA655C29D094EAF4
:10370000050F08BF90EA020F05D054EA000C04BF71
:103710001946104630BD91EA030F1EBF002100205C
:1037200030BD5FEA545C05D14000494128BF41F0FB
:10373000004130BD14F580043CBF01F5801130BD5F
:1037400001F0004545F0FE4141F470014FF00000EA
:1037500030BD7FEA645C1ABF194610467FEA655C9B
:103760001CBF0B46024650EA013406BF52EA03353D
:1037700091EA030F41F4002130BD00BF90F0000F2B
:1037800004BF0021704730B54FF4806404F1320467
:103790004FF000054FF0000150E700BF90F0000F20
:1037A00004BF0021704730B54FF4806404F1320447
:1037B00010F0004548BF40424FF000013EE700BF17
:1037C00042004FEAE2014FEA31014FEA02701FBFA7
:1037D00012F07F4393F07F4F81F06051704792F079
:1037E000000F14BF93F07F4F704730B54FF46074F3
:1037F00001F0004521F0004120E700BF50EA01023E
:1038000008BF704730B54FF000050AE050EA0102EA
:1038100008BF704730B511F0004502D5404261EB5A
:1038200041014FF4806404F132045FEA915C3FF49B
:10383000DCAE4FF003025FEADC0C18BF03325FEA34
:10384000DC0C18BF033202EBDC02C2F1200300FAE9
:1038500003FC20FA02F001FA03FE40EA0E0021FA0E
:1038600002F11444C1E600BF70B54FF0FF0C4CF4F8
:10387000E06C1CEA11541DBF1CEA135594EA0C0FAE
:1038800095EA0C0F00F0DEF82C4481EA030621EAE9
:103890004C5123EA4C5350EA013518BF52EA033524
:1038A00041F4801143F4801338D0A0FB02CE4FF0D6
:1038B0000005E1FB02E506F00042E0FB03E54FF006
:1038C0000006E1FB03569CF0000F18BF4EF0010EFE
:1038D000A4F1FF04B6F5007F64F5407404D25FEAFA
:1038E0004E0E6D4146EB060642EAC62141EA5551AD
:1038F0004FEAC52040EA5E504FEACE2EB4F1FD0CEF
:1039000088BFBCF5E06F1ED8BEF1004F08BF5FEA6C
:10391000500E50F1000041EB045170BD06F000461E
:1039200046EA010140EA020081EA0301B4EB5C04CB
:10393000C2BFD4EB0C0541EA045170BD41F48011C3
:103940004FF0000E013C00F3AB8014F1360FDEBFE8
:10395000002001F0004170BDC4F10004203C35DAC4
:103960000C341BDC04F11404C4F1200500FA05F347
:1039700020FA04F001FA05F240EA020001F00042E8
:1039800021F0004110EBD37021FA04F642EB06015E
:103990005EEA430E08BF20EAD37070BDC4F10C0488
:1039A000C4F1200500FA04F320FA05F001FA04F24C
:1039B00040EA020001F0004110EBD37041F1000138
:1039C0005EEA430E08BF20EAD37070BDC4F1200543
:1039D00000FA05F24EEA020E20FA04F301FA05F2AB
:1039E00043EA020321FA04F001F0004121FA04F253
:1039F00020EA020000EBD3705EEA430E08BF20EA23
:103A0000D37070BD94F0000F0FD101F0004640005C
:103A100041EB010111F4801F08BF013CF7D041EADE
:103A2000060195F0000F18BF704703F000465200E2
:103A300043EB030313F4801F08BF013DF7D043EAB3
:103A40000603704794EA0C0F0CEA135518BF95EA69
:103A50000C0F0CD050EA410618BF52EA4306D1D1F0
:103A600081EA030101F000414FF0000070BD50EA0F
:103A7000410606BF1046194652EA430619D094EA99
:103A80000C0F02D150EA013613D195EA0C0F05D183
:103A900052EA03361CBF104619460AD181EA0301D7
:103AA00001F0004141F0FE4141F470014FF000008F
:103AB00070BD41F0FE4141F4780170BD70B54FF02A
:103AC000FF0C4CF4E06C1CEA11541DBF1CEA1355AA
:103AD00094EA0C0F95EA0C0F00F0A7F8A4EB05048C
:103AE00081EA030E52EA03354FEA013100F0888083
:103AF0004FEA03334FF0805545EA131343EA12634C
:103B00004FEA022245EA111545EA10654FEA002600
:103B10000EF000419D4208BF964244F1FD0404F5B9
:103B2000407402D25B084FEA3202B61A65EB030515
:103B30005B084FEA32024FF480104FF4002CB6EBD2
:103B4000020E75EB030E22BFB61A754640EA0C0052
:103B50005B084FEA3202B6EB020E75EB030E22BF92
:103B6000B61A754640EA5C005B084FEA3202B6EBD3
:103B7000020E75EB030E22BFB61A754640EA9C0092
:103B80005B084FEA3202B6EB020E75EB030E22BF62
:103B9000B61A754640EADC0055EA060E18D04FEA20
:103BA000051545EA16754FEA06164FEAC30343EAC0
:103BB00052734FEAC2025FEA1C1CC0D111F4801F8D
:103BC0000BD141EA00014FF000004FF0004CB6E786
:103BD00011F4801F04BF01430020B4F1FD0C88BF25
:103BE000BCF5E06F3FF6AFAEB5EB030C04BFB6EB30
:103BF000020C5FEA500C50F1000041EB045170BD23
:103C00000EF0004E4EEA113114EB5C04C2BFD4EB4F
:103C10000C0541EA045170BD41F480114FF0000ED3
:103C2000013C90E645EA060E8DE60CEA135594EA4F
:103C30000C0F08BF95EA0C0F3FF43BAF94EA0C0F52
:103C40000AD150EA01347FF434AF95EA0C0F7FF4C7
:103C500025AF104619462CE795EA0C0F06D152EA1B
:103C600003353FF4FDAE1046194622E750EA4106FF
:103C700018BF52EA43067FF4C5AE50EA41047FF410
:103C80000DAF52EA43057FF4EBAE12E74A0011D2C2
:103C900012F5001211D20DD56FF47873B3EB6252A6
:103CA0000ED44FEAC12343F0004343EA505323FAB2
:103CB00002F070474FF00000704750EA013002D127
:103CC0004FF0FF3070474FF00000704780F0004029
:103CD00002E000BF81F0004142001FBF5FEA4103E4
:103CE00092EA030F7FEA226C7FEA236C6AD04FEAE4
:103CF0001262D2EB1363C1BFD21841404840414029
:103D0000B8BF5B42192B88BF704710F0004F40F4DA
:103D1000000020F07F4018BF404211F0004F41F4F6
:103D2000000121F07F4118BF494292EA030F3FD0C2
:103D3000A2F1010241FA03FC10EB0C00C3F12003D5
:103D400001FA03F100F0004302D5494260EB400064
:103D5000B0F5000F13D3B0F1807F06D340084FEACF
:103D6000310102F10102FE2A51D2B1F1004F40EBC4
:103D7000C25008BF20F0010040EA0300704749002C
:103D800040EB000010F4000FA2F10102EDD1B0FAF7
:103D900080FCACF1080CB2EB0C0200FA0CF0AABFEC
:103DA00000EBC25052421843BCBFD040184370478A
:103DB00092F0000F81F4000106BF80F40000013290
:103DC000013BB5E74FEA41037FEA226C18BF7FEA67
:103DD000236C21D092EA030F04D092F0000F08BFA9
:103DE0000846704790EA010F1CBF0020704712F090
:103DF0007F4F04D1400028BF40F00040704712F1CF
:103E000000723CBF00F50000704700F0004343F033
:103E1000FE4040F4000070477FEA226216BF084669
:103E20007FEA23630146420206BF5FEA412390EA2C
:103E3000010F40F4800070474FF0000304E000BF22
:103E400010F0004348BF40425FEA000C08BF7047D3
:103E500043F0964301464FF000001CE050EA010297
:103E600008BF70474FF000030AE000BF50EA0102AC
:103E700008BF704711F0004302D5404261EB410199
:103E80005FEA010C02BF84460146002043F0B643BE
:103E900008BFA3F18053A3F50003BCFA8CF2083AE3
:103EA000A3EBC25310DB01FA02FC634400FA02FCEC
:103EB000C2F12002BCF1004F20FA02F243EB0200F3
:103EC00008BF20F00100704702F1200201FA02FC55
:103ED000C2F1200250EA4C0021FA02F243EB020048
:103EE00008BF20EADC7070474FF0FF0C1CEAD0528C
:103EF0001EBF1CEAD15392EA0C0F93EA0C0F6FD04D
:103F00001A4480EA010C400218BF5FEA41211ED02A
:103F10004FF0006343EA501043EA5111A0FB013116
:103F20000CF00040B1F5000F3EBF490041EAD371EB
:103F30005B0040EA010062F17F02FD2A1DD8B3F167
:103F4000004F40EBC25008BF20F00100704790F0D6
:103F5000000F0CF0004C08BF49024CEA502040EA28
:103F600051207F3AC2BFD2F1FF0340EAC2507047EE
:103F700040F400004FF00003013A5DDC12F1190F2C
:103F8000DCBF00F000407047C2F10002410021FA9E
:103F900002F1C2F1200200FA02FC5FEA310040F1B6
:103FA000000053EA4C0308BF20EADC70704792F02F
:103FB000000F00F0004C02BF400010F4000F013A67
:103FC000F9D040EA0C0093F0000F01F0004C02BF62
:103FD000490011F4000F013BF9D041EA0C018FE7D1
:103FE0000CEAD15392EA0C0F18BF93EA0C0F0AD0D7
:103FF00030F0004C18BF31F0004CD8D180EA0100FD
:1040000000F00040704790F0000F17BF90F0004F95
:10401000084691F0000F91F0004F14D092EA0C0F77
:1040200001D142020FD193EA0C0F03D14B0218BF0A
:10403000084608D180EA010000F0004040F0FE4050
:1040400040F40000704740F0FE4040F440007047EC
:104050004FF0FF0C1CEAD0521EBF1CEAD15392EA6B
:104060000C0F93EA0C0F69D0A2EB030280EA010C5B
:1040700049024FEA402037D04FF0805343EA1111F4
:1040800043EA10130CF000408B4238BF5B0042F152
:104090007D024FF4000C8B4224BF5B1A40EA0C00F7
:1040A000B3EB510F24BFA3EB510340EA5C00B3EB29
:1040B000910F24BFA3EB910340EA9C00B3EBD10F17
:1040C00024BFA3EBD10340EADC001B0118BF5FEA69
:1040D0001C1CE0D1FD2A3FF650AF8B4240EBC25092
:1040E00008BF20F0010070470CF0004C4CEA502053
:1040F0007F32C2BFD2F1FF0340EAC250704740F4A2
:1041000000004FF00003013A37E792F0000F00F093
:10411000004C02BF400010F4000F013AF9D040EA11
:104120000C0093F0000F01F0004C02BF490011F4A5
:10413000000F013BF9D041EA0C0195E70CEAD1539D
:1041400092EA0C0F08D142027FF47DAF93EA0C0F84
:104150007FF470AF084676E793EA0C0F04D14B0268
:104160003FF44CAF08466EE730F0004C18BF31F01A
:10417000004CCAD130F000427FF45CAF31F0004314
:104180007FF43CAF5FE700BF4FF0FF3C06E000BFAD
:104190004FF0010C02E000BF4FF0010C4DF804CDD0
:1041A0004FEA40024FEA41037FEA226C18BF7FEAE0
:1041B000236C11D001B052EA530C18BF90EA010FE2
:1041C00058BFB2EB030088BFC81738BF6FEAE17071
:1041D00018BF40F0010070477FEA226C02D15FEA0D
:1041E000402C05D17FEA236CE4D15FEA412CE1D079
:1041F0005DF8040B704700BF844608466146FFE740
:104200000FB5FFF7C9FF002848BF10F1000F0FBD21
:104210004DF808EDFFF7F4FF0CBF012000205DF81A
:1042200008FB00BF4DF808EDFFF7EAFF34BF01209F
:1042300000205DF808FB00BF4DF808EDFFF7E0FF38
:1042400094BF012000205DF808FB00BF4DF808ED89
:10425000FFF7D2FF94BF012000205DF808FB00BFEC
:104260004DF808EDFFF7C8FF34BF012000205DF8CE
:1042700008FB00BF4FEA4002B2F1FE4F0FD34FF0F0
:104280009E03B3EB12620DD94FEA002343F00043C3
:1042900010F0004F23FA02F018BF404270474FF071
:1042A0000000704712F1610F01D1420205D110F0F8
:1042B000004008BF6FF0004070474FF000007047AB
:1042C00042000ED2B2F1FE4F0BD34FF09E03B3EB80
:1042D000126209D44FEA002343F0004323FA02F0AC
:1042E00070474FF00000704712F1610F01D1420298
:1042F00002D14FF0FF3070474FF00000704700BF11
:1043000008B5074B044613B10021AFF30080054BFD
:104310001868836A03B19847204600F0AFF800BFE1
:1043200000000000D04400000E4B70B51E460E4C3D
:104330000025E41AA410A54204D056F82530984769
:104340000135F8E700F09CF8084B094C1E46E41ACA
:10435000A4100025A54204D056F825309847013511
:10436000F8E770BD70000020700000207000002091
:1043700074000020024B0146186800F00BB800BF23
:104380006C00002003460244934202D003F8011B54
:10439000FAE7704770B5CC1C24F0030408340C2CE9
:1043A00038BF0C24002C064603DA0C2333600020AF
:1043B00070BD8C42F9D3204A136810461946A1B14A
:1043C0000A68121B0ED40B2A03D90A608B188C5072
:1043D0001FE08B420BBF5A684A6802605A6018BFE0
:1043E0000B4616E00B464968E9E7144D2B681BB9EC
:1043F000304600F025F828603046214600F020F8CD
:10440000421C0346D1D0C51C25F0030585420AD1C4
:104410001C6003F10B001A1D20F00700821A0AD05D
:104420005142995070BD3046E91A00F009F8013048
:10443000BBD02B46ECE770BD2401002020010020FA
:1044400038B5064C002305460846236000F008F8FE
:10445000431C02D1236803B12B6038BD0008002043
:10446000044A05491368002B08BF0B461844106026
:10447000184670472801002008080020FEE700BF0A
:10448000F8B500BFF8BC08BC9E467047F8B500BF41
:10449000F8BC08BC9E467047000200000100000006
:1044A0000000000000000000010000000302010005
:1044B0000400000000000000802500000000000053
:1044C00000000000010000000302004300000000A3
:0844D0000C00002000000000B8
:0844D80064BCFF7F010000003D
:1044E000006CDC02008000000400000000000000FE
:1044F00000000000000000000000000000000000BC
:10450000000000000000000000000000CB4400009C
:10451000000000000000000000000000000000009B
:10452000000000000000000000000000000000008B
:10453000000000000000000000000000000000007B
:104540000000000000000000000000000C0000203F
:0C45500005010000E10000000000000078
:04000003000001B147
:00000001FF
