S0280000426C75654765636B6F5F54656D70657261747572655F4C45445F48616E64734F6E2E73333730
S214000000B8100020110300007701000077010000FF
S2140000107701000077010000770100000000000073
S2140000200000000000000000000000007701000053
S2140000307701000000000000770100007701000053
S214000040DFF800F069000020DFF800F0270000204D
S214000050F8B5044625464FF0FF3080260146FF20BF
S21400006000F08AF8761EF9D180344FF4F06600F07E
S21400007022F8761EFBD14435A9884E1C06E04FF4C4
S214000080006700F018F87F1EFBD1761CA988090AC5
S214000090F6B2B142F3DA4FF420540146FF2000F0E6
S2140000A06BF8641EF9D12968C043814201D1012052
S2140000B0F2BD0020F2BD014614F8010B00F05CB85A
S2140000C0F8B504460D46164610E02846FFF7B8FF7A
S2140000D03746B7F5006FC8BF4FF40067224639466B
S2140000E02846FFF7B1FF3D443C44F61B012EECDAF0
S2140000F0F1BD000038B51D48016841F020010160DF
S2140001004FF4904440F6A72204F110000188914273
S2140001101AD1018F080AC502C80200F4FF20B0F504
S214000120804F11D12046FFF793FF48B14FF400608F
S2140001302844A0F580424FF480412046FFF7C0FFD8
S2140001402046FFF77DFF05E04FF400600444B4F559
S214000150802FD9D34FF48040054A41691160016869
S2140001608D464068BDE8324000470000B0400E4073
S21400017008ED00E0BEE7FEE70A0A484000F0FF0090
S21400018008214308C00746BF034858401846491E82
S214000190F7D15040704700002083B8ED264A5060E3
S2140001A001201060D160082010601069C007FCD4E0
S2140001B07047F8B5214C0546206840F001000E4611
S2140001C01746206005E057F8041BFFF7E7FF2D1DD4
S2140001D0361F042E2846F6D23EB139684FF0FF325D
S2140001E0F3009A401143FFF7D9FF2068400840000B
S2140001F02060F1BD10B5114A136843F00103136087
S2140002004FF0FF31034602E053F8044B214000F55F
S2140002100064A342F8D311F1010F07D090600120CB
S2140002205060022050605069C007FCD41068400837
S2140002304000106010BD00000C000E4008000E408C
S21400024010B450F8041B79B10268436802440830C1
S214000250DC0744BFA9F10104E31852F8044B43F845
S214000260044B091FF9D1ECE710BC704710B50749DD
S21400027079441831064C7C44163404E00A68081D9C
S214000280114488470146A142F8D110BD2C00000059
S2140002903C0000004EF68851CEF20001086840F49B
S2140002A070000860BFF34F8FBFF36F8F4FF0007082
S2140002B0E1EE100A7047000089FFFFFFA40000006F
S2140002C0DCFEFFFF100000200000000000F00BF82E
S2140002D0002801D0FFF7CAFF0020AFF30080FFF729
S2140002E049FF00F002F80120704700F001B8000056
S2140002F00746384600F002F8FBE7000080B5AFF38B
S2140003000080024A11001820ABBEFBE72600020060
S214000310AFF30080FFF7BEFFFFF7D8FF0000000036
S21400032000000000000000000000000000000000C8
S21400033000000000000000000000000000000000B8
S21400034000000000000000000000000000000000A8
S2140003500000000000000000000000000000000098
S21400400000480020190B0200F39C0000739D00007E
S214004010A70A000100410000000000800000000028
S214004020C335E1AC00000000000000000000000006
S214004030000000000000000000000000000000007B
S21400404000000000206D73B10000000000000000BA
S21400405000000000FFFFFFFF00000000000000005F
S214004060000000000000000000000000000000004B
S214004070000000000000000000000000000000003B
S214004080000000000000000000000000000000002B
S214004090000000000000000000000000000000001B
S2140040A0000000000000000000000000000000000B
S2140040B000000000000000000000000000000000FB
S2140040C000000000000000000000000000000000EB
S2140040D000000000000000000000000000000000DB
S2140040E000000000000000000000000000000000CB
S2140040F000000000000000000000000000000000BB
S21400410000480020190B0200F39C0000739D00007D
S214004110DB9D00007FC800003FE9000000000000B3
S214004120000000000000000000000000ABEA0000F5
S21400413017EC000000000000F7110100471B01000B
S214004140019C0100B565010027340100BD65010032
S214004150FF650100DD650100DB650100F765010014
S214004160AB340100F33A01005B4101004745010012
S214004170EF5301007F5501009F550100FB550100DC
S214004180DB6301005F6C0100177201004B800100C9
S214004190BF970100CFDE0100E3E001001FF501003C
S2140041A08FF60100AFF601007B060200E76501000E
S2140041B0EF650100330B0200350B0200370B0200DF
S2140041C04BF60100390B0200000000000000000062
S2140041D000000000000000000000000000000000DA
S2140041E000000000000000000000000000000000CA
S2140041F000000000000000000000000000000000BA
S21400420002986003029866030298DA0502980A028A
S2140042100298860302989403029886030298100474
S2140042200298CC040298F2040298260502983405F7
S2140042300298A2050298C4050763076301DB0A71AA
S21400424090B9637902982203076300B902EC00CDA7
S214004250114502EC00CC411103B804D91E72073197
S214004260911208DA087102DD1272147002B8076043
S2140042700698AE0E3038087208B80298640602EC4B
S21400428000CA05B801DB127120DA0E7110DAEC7282
S21400429001DA0A71ADB80A7023DAE07202EC00C8DF
S2140042A0076891110F3111402111C03111400119D9
S2140042B090B820DA04716178411108D904716278E7
S2140042C020D904726378273123DD0872C0DA0471BE
S2140042D0607803B8411107310872A11508359C7142
S2140042E002DD2872A11108D9927102D91E72CCDAA9
S2140042F08A7206B802DB0C71026D5111FFD9527238
S2140043000765054D4C720298220321114049C0D919
S2140043103E71A0314115403501655141036108DA0F
S214004320207204DA2A721049A1150235067108DBDC
S214004330107201340C71076B80DB147190B86778CB
S21400434000C00D0F0C0D0698B00E01D8087207B805
S21400435002986406CC32204A00C00517085006981A
S214004360B00E113001420DDA6271208800C1C61805
S214004370000020BB04DA0E7208DA087242B903693C
S214004380F823E8233114056B01DA06710649024B5F
S214004390076B076B00C0540F00213810BC2002DAF0
S2140043A0107100B9FF21A11380DB06717CB9076983
S2140043B018100298A60200C3000F0021341080D8FF
S2140043C04671EFBA0698F40C00920362DDDA987232
S2140043D0A11101D9327100C23810084024120423FA
S2140043E0281302EC00C804D9167104BA18300871F4
S2140043F00060FD20012A02EC00C8FF22FA7604DCE9
S214004400067218B87378029822030698C40700B894
S214004410011A91100F30011900C20202000006981E
S214004420840604D9067101B802A800C0000F002156
S214004430041380DB06710298380001DB607100C24D
S2140044405C0F002124111114FF3402EC00C8FF2475
S214004450FA760761113807610698BE0E07611114D7
S214004460011141100698BE0E01D8087203B80298D2
S2140044706406042202DB16712410112811280698FF
S214004480D20E00C418000840FF200814FA22241098
S214004490076007600698BE0E01D8087120BC10DBC6
S2140044A006720298220300BB00C1540F00211415A7
S2140044B0511207620762C021112CFF320E7140882C
S2140044C0511406982C034143009441115112076A77
S2140044D0FF320E715114076406982C03076C414393
S2140044E000C1580F00211410013BB82114113110DF
S2140044F0FF300C7104610112006001DAF8713110AE
S2140045000760FF300C7100610112006001DAF8717B
S21400451001D90C7288B8787804B8029864060298B4
S214004520B6010698F20C00B8477800F83088508834
S214004530FF34087102ECFF24F87002EC00CD141072
S21400454001BB5150FFD8047131440760006B10DB8B
S214004550F2710421FF22E4720F4C0095009300A034
S2140045600698C40700F80698C40700C5980F0021EF
S214004570541506982C090698320B06989C0B00C515
S2140045809C0F002100F80698C4070698C00B0698F2
S214004590E60A00F80698C40710B902BA0698860616
S2140045A000C59C0F002100F89112033288B903DE83
S2140045B04C727179A11020D8127106982C090698B1
S2140045C0320B06989C0B00B9587000C3000F0021F0
S2140045D0341380DB1C7100C3A8100840A1141034EB
S2140045E0024C481300BC481391140764FF34481368
S2140045F08CBB627B40D80871517900BA7079076A23
S21400460000C0A00008400698900E04200298900E65
S2140046100698C40700BD0698320810B903DC04717A
S21400462000B902BA0698860604D9067101D82C711C
S2140046300698AC04FFD80C7288B8477800B844785F
S2140046403E70911008D80E7100BB00C46C50084034
S2140046500698C00620B802A800F800C0000F002187
S214004660041320DB1A71911008D808718CB84378AF
S214004670B07008DBAC72A11308DBA67203BD069807
S214004680A0040698C00B00C5A00F002106983208AB
S21400469003DC0472042554150698B60902981A0D10
S2140046A09110015503355150011900A001B8811130
S2140046B080D9187100C10C500840141004300C72D8
S2140046C000C1A45008401410013000A00698C4078A
S2140046D00698C00B00BD0698A00488B8477800B8B6
S2140046E0447800C5A80F002154150698B60902980C
S2140046F01A0D0698C4070698AC04FFD8067208B8C8
S214004700607800C2000002020698840600F8069848
S2140047109C0E88B850785178911104D90472487864
S2140047208CB8427800A00698C40706980E0506982E
S214004730E60A00F80698C4070698320807DC0A72EC
S21400474000C59C0F002100F80698E60A03B99110F0
S21400475004D8047100B900C200000200069886065C
S21400476001D8207200C0000F0021041120D9147156
S214004770076101D9E0728110076001D8D8728CB841
S214004780637806980E0500C5AC0F002154150698F0
S2140047902C090698320B06989C0B00C5B00F00211A
S2140047A000F80698C40706980E0500BD0698A004F3
S2140047B088B8477800B8447800C5B40F002154156F
S2140047C002981A0D0698C40706983E0E0698C00B67
S2140047D00698E60A06980E0500F8B110076001D89C
S2140047E00A7108B87F78020C7E780698C40701F82C
S2140047F0911008D8367100C0080F0021041000C5BB
S214004800905008405411A0255412E825541511590B
S214004810112D06760122212D012DDC7518B875782C
S2140048208CB8437801B802A800F8B110076810D811
S214004830307100C04810084000C300000840311422
S2140048406024282444113411076101D9FA714412F6
S2140048502810076228100762281007622810E870E0
S2140048600298E60B0698F20800C02400084020785C
S21400487000F888BA727A811204DAFC7200A088BA4C
S214004880527A00A018700698CA0810D906710CDB78
S214004890087200B8103C067201B8076A00BB00C177
S2140048A00C0F002100C4B4500840141120391272B5
S2140048B0417B007CB82400C200000101281400A03F
S2140048C00698720600C2000F0021241240DA067213
S2140048D0617B007C02987E06B11001D8047200A0AD
S2140048E000C0287008400411108800C1001800405D
S2140048F01810442004111088A820041110884CBAFF
S214004900757A18103DB11088F4B842784420727851
S214004910D8207378E82073784FB200C4FFFF8080F9
S214004920413A4FAA01BC01644113076300C06C7092
S214004930084003B918100110011001B91810011031
S21400494001100110011098200411076101B80160E0
S214004950003A0471044904D9047241520760003ACF
S2140049600471084908D9047231520460003B0E7283
S21400497000630064314241424FAAB2704FAA44B865
S21400498001685378F8B853784020527800913DA9D2
S214004990009100C01470084018100091582018109C
S2140049A00091BC20181000A04024066400C0FFFF41
S2140049B00000013C1DB002200158402806751EACC0
S2140049C001EC00A0009000C6BC0F0021008801B0DA
S2140049D0076800C3640F00213414036C41500F3085
S2140049E0415008130F3003640F340111C048069875
S2140049F0400806987E0603DD0C7214BA10232813AE
S214004A000298DE0809DD06720298DE08411303DF0D
S214004A1006720298520C00DD06720698E60C53B039
S214004A2080BB006B30380A7109DD067102980A0DEA
S214004A3000A000C0640F0021041003600F3000A027
S214004A401088B111076980D90A7100C1800008403A
S214004A500811009100A0B111076940D906720298AA
S214004A60C60800C16C0F0021141200BC01DC2071C6
S214004A700698CA084034087101B80698FA08F0DAB1
S214004A800C720CDB087102B80698FA0848BC00C322
S214004A9080000840FFB80120042114155145087114
S214004AA001455813082400C138300840141100C5C9
S214004AB00060084054153035016D5141014118130E
S214004AC001422813481300B82A7000C4600008404A
S214004AD000C0680F002144140410014400A000C068
S214004AE0680F002100B906987206181006987E0610
S214004AF000A000C16C0F0021141203682150F03092
S214004B000152281100A000C020300E4004110410ED
S214004B101050F47200A000C028400E40041221512C
S214004B2007610C3107691152281000A00698FA0A8E
S214004B3000C0F80F002104112EA900C00430084060
S214004B402178227800C0940F00211DB11810069815
S214004B50E6090111FF300769FF3151B300C4F3FFC6
S214004B60FFFF413B115900290675084B027051ABF7
S214004B70A4BB00C07C300E40041100C200800100BF
S214004B8020391E71B11204DA18716E7B6F7BE42037
S214004B9004114CBA7C7A181014200411607A18108C
S214004BA0B11002D81071707B30B8627860780DB0A2
S214004BB001D8FC7100A00698FA0A00C0FC0F00217C
S214004BC004112EA9F82004110698160900C0043016
S214004BD00840217823780698E60900C0840F002153
S214004BE01DB1181000A0511400C0B80F0021041009
S214004BF0012C0A7500B826A80698A80700C0800FE2
S214004C0000211DB1181028B000C1F0FFFFFF1138B9
S214004C100EB9114028A880B800C1443008400811D9
S214004C2000C0006F000026A800C0043008402178AD
S214004C30050C2020267800C063EF000026A8050C8F
S214004C4020EC00C004300840247820EC217800C016
S214004C507BEF000026A828B000C1F0FFFFFF113848
S214004C6000C10A000000114028A8050C00C004304E
S214004C700840207820EC0F0C00C09840084046788A
S214004C804178B11020D8467100C04C3008407DB93C
S214004C9018100D0E0D0E00C0703008400411303193
S214004CA01A7100C07830084025782478960C00C029
S214004CB07030084004113031EA7200C04C300840B1
S214004CC000C106000000181000B918100698060962
S214004CD000C2780F0021241000C300FFFFFF313808
S214004CE01140081200A00698FA0A00B826A800C0CC
S214004CF0880F00211DB1181000A030B840780DB103
S214004D0001D9FC72427800C074300E40041100C213
S214004D10FEFFFFFF21391810EC20041100C2FFFF30
S214004D20FFEF213918101C78A4BB707B4E7B4F7B9D
S214004D3000A008B86E784EB010D8187200C00E00EA
S214004D4000003EA8140C00C00F0000003EA8029809
S214004D506A0B00C00E00000044A8140C00C001003E
S214004D60000000C1B0300E40081100C077801F0060
S214004D703DB201423DAA00C1E80F0021141054A81C
S214004D80140C00C077E01F0001423DAA51B801682C
S214004D907D7800C00000004002A800A006987206B9
S214004DA00698D80606987E0651140698A807F4B802
S214004DB045780A0C00C0900F00211DB1181000A005
S214004DC051B801685D7800B844A83EA800C1B0306C
S214004DD00E40081100C0001000003DB101393DA989
S214004DE008B86F7800A001F8541000DC12710114A6
S214004DF00698A80718B8707800B8417800F80298A6
S214004E00020C00C5780F002154155114FF350764B5
S214004E104113FF3407633112FF330762FF3231104C
S214004E20212B0158012A06980609015851280475B5
S214004E3001584128187551B00CD8067121580670D3
S214004E403110115901290675FF0FB87018B872781D
S214004E5000F800C3740F0021341300C4E0100840AB
S214004E60441201B80768013A2C7108242814084B2C
S214004E70811040D80A7200C458100840237C00C431
S214004E806C0F00214414F034547200C464000840CF
S214004E90257C4A7004DBDA720DDDD471A02444123E
S214004EA0FF32C322CA76811040D8147200C1401067
S214004EB008401410F821141101581128207100C15F
S214004EC0781008400811076008119110081100C0FA
S214004ED0006008400410076007600811308800B8BA
S214004EE006985608009300C0740F002100B91810E9
S214004EF000A0EBBA00C0740F00210411113A10D9BB
S214004F00067118B97479281000A006983E0E115143
S214004F100698160901B80298560864BC066C415CEF
S214004F20512C0698A80750880698A8030095B1103B
S214004F30076820D80C7108B8657818B8717800F83A
S214004F4008B86C7820B85A7859785B7800C1EC0FAE
S214004F500021141054A84EB010D806710298B20D55
S214004F604DB100C09FFFFFFF113840B102D9147247
S214004F70604800C1040000401112104A04BB4154AE
S214004F800C70204802B903BA02BB02BC4DA840A967
S214004F90F8B87078190C3EB141413EA9F4B973795E
S214004FA07378717800C1E40F002100C40041084006
S214004FB0287000C20000010044AA230C00C20000B2
S214004FC00B0044AA00C1E40F002100C220000040EC
S214004FD000C41841084004BB00C0C83F00001411BC
S214004FE0113821400814050C1140081404240F0C35
S214004FF02FAB050CB11008D810711CB879787B78E7
S21400500020B879787B78607CF42441135114069894
S214005010A807727B53B80168050C687840EC00C09E
S2140050208C0F00211DB1181000F800C06860084001
S21400503004110761076180D9047240EC00A001509A
S21400504053A806982A0E4EB010D80A7200C4F8402C
S2140050500840087000C41041084041130C23527CDD
S214005060407B01502FA8050CFC23341200C1FF3FE3
S214005070C0E0113A28130A0C00C000000100081412
S21400508006322813050C0150081408B86D7800A0E5
S2140050900878097804112141181000A000B900C052
S2140050A09C10084018101C200AB9181000A01159AE
S2140050B010D906710760076008D90471076004D923
S2140050C00471036002D90471016001D904710060A3
S2140050D000A010880411023006710761076100C045
S2140050E0FFFF00001138009100A0000000280128F2
S2140050F003280118052A0018002A012A0A18292A56
S21400510002290000F01921B4478FA4BFA14F63FD08
S214005110EED6141D636032E0375EA488534E6DFBF6
S2140051206435BFF753A1811F582CD0A54540FC34E9
S214005130F32742989F3EE22E0ECFFFBF1E45CA8C35
S21400514068234A4F16531EC44CBAAD9D324B6808AE
S214005150CF7BC04C0C0053696C69636F6E204C614A
S214005160627300000500021500292A0002000A18D2
S214005170020040030500021200012A00030000009E
S214005180000000000500021000002A0002000018BF
S214005190010000001300020D0016531EC44CBAADE9
S2140051A09D324B6808CF7BC04C0000000800000012
S2140051B000000000000000001300020B009F3EE20B
S2140051C02E0ECFFFBF1E45CA8C68234A4F00000034
S2140051D00C0200005C14002013000C090053A1818F
S2140051E01F582CD0A54540FC34F3274298000000F9
S2140051F0080100000000000013000807006360328A
S214005200E0375EA488534E6DFB6435BFF7000000A0
S2140052101000F01921B4478FA4BFA14F63FDEED64E
S214005220141D000020000400D414002005002003F4
S21400523000052A0002000118000001080000000016
S2140052403452000002000108000000002C5200004A
S2140052500400000800010000245200000A000708AD
S214005260000300000200000000000108000000002B
S214005270105200000200010800000000F851000073
S2140052800180020800070000F0510000020001083B
S21400529000000000D8510000028006080007000049
S2140052A0D05100000200010800000000B8510000C4
S2140052B00380010800000000AC5100000200010855
S2140052C00000000094510000048001080000000067
S2140052D09051000000000108000000008C51000002
S2140052E002000108000000008451000006000108CA
S2140052F0000000007C5100000200010800000000D1
S2140053007451000007000108000000007051000002
S21400531000000108000000006C51000002000108B7
S21400532000000000645100000900010800000000B1
S214005330545100000300070009000000002801285F
S2140053400328FFFF0018002A012A0000F01921B4E4
S214005350478FA4BFA14F63FDEED6141DD1A0835086
S21400536000AAD387174859A75DE904E6915276BB91
S2140053702600008000100000A50000009A9396D733
S214005380BD6AD9B51646D281FEF046DC636032E0CF
S214005390375EA488534E6DFB6435BFF753A1811F5B
S2140053A0582CD0A54540FC34F32742989F3EE22E69
S2140053B00ECFFFBF1E45CA8C68234A4F16531EC425
S2140053C04CBAAD9D324B6808CF7BC04C0200400300
S2140053D00500022200012A00030000000000000071
S2140053E00500022000002A00020000180015010037
S2140053F0411500200014010042150020021302008F
S214005400000200200A1200000000000013000A1A22
S2140054100016531EC44CBAAD9D324B6808CF7BC0F5
S2140054204C00000000110100431500200010010090
S21400543044150020020F0200020200200A0E00009F
S2140054400000000013000A15009F3EE22E0ECFFF5C
S214005450BF1E45CA8C68234A4F000000000D01009D
S21400546045150020000C010046150020020B020026
S214005470040200200A0A00000000000013000A10C0
S2140054800053A1811F582CD0A54540FC34F3274279
S21400549098000000000901004715002000080100E0
S2140054A04815002002070200060200200A06000037
S2140054B00000000013000A0B00636032E0375EA4B1
S2140054C088534E6DFB6435BFF700000000050100F1
S2140054D049150020000401004A15002000030100C1
S2140054E04B15002002020200080200200A010000FC
S2140054F00000000013000A0500915276BB2600004B
S2140055008000100000A5000000000000020002005D
S2140055100A0200201300020300D1A0835000AAD381
S21400552087174859A75DE904E60000001000F01947
S21400553021B4478FA4BFA14F63FDEED6141D000013
S21400554000000108000000002C55000002000108C1
S2140055500000000014550000018001080001000052
S2140055600C5500000200010800000000F454000082
S2140055700280030800070000EC54000003800108C6
S21400558000010000E45400000300000000010000D9
S214005590DC5400000300000000010000D4540000AA
S2140055A00300000000010000CC54000002000108C7
S2140055B000000000B4540000048003080007000048
S2140055C0AC5400000380010800010000A454000051
S2140055D003000000000100009C54000003000000CF
S2140055E000010000945400000200010800000000C2
S2140055F07C54000005800308000700007454000077
S21400560003800108000100006C5400000300000045
S21400561000010000645400000300000000010000C8
S2140056205C54000002000108000000004454000022
S21400563006800308000700003C54000003800108B1
S21400564000010000345400000300000000010000C8
S2140056502C54000003000000000100002454000049
S21400566002000108000000000C5400000780030838
S2140056700007000004540000038001080001000039
S214005680FC5300000300000000010000F45300007B
S2140056900300000000010000EC53000000000108B9
S2140056A000000000E85300000200010800000000AF
S2140056B0E05300000500010800000000D853000079
S2140056C00200010800000000D05300000600010898
S2140056D000000000CC530000030005000600070091
S2140056E0080009000B000C000D000E001000110051
S2140056F01200130015001600170018001A001B00F1
S2140057001C001D0038520000150000000B000000B1
S214005710EC500000050000000451000003000000EB
S214005720345300000C0C0200000000000D0C0200B8
S21400573000000000405500002200000007000000A6
S2140057403C530000080000004C5300001600000008
S214005750D85600000E0C0200000000000F0C0200DD
S2140057600000000001000000000000000000000033
S2140057700000000000000000000000000200000022
S2140057800000000000000000030000000000000011
S2140057900000000000000000030000000100000000
S2140057A000000000020000000100000002000000EF
S2140057B00300000013B779FAC925DDB7ADF3CFE0D3
S2140057C0F1B614B800010000000000000000000060
S2140057D008000000000103020000000000000000B6
S2140057E000000000000000000000000000000000B4
S2140057F00100020015005400A9005301A7024F053E
S2140058009F0A000000000000A00055010A200706BD
S214005810020A040700000000000207000000000063
S21400582000000000A00055010A200706020A04072F
S21400583000000000000207000000000013001D002A
S2140058401200100015000000397E0000977E000050
S214005850A37E00000000000000000000000103FF1F
S21400586004FF020000000000000000003C0094005E
S2140058703C009600F4010000FA00000096000000CC
S214005880640000004B000000320000001E00000014
S21400589014000000000000006C888391AAF5A5386B
S2140058A060370BDB5A6083BE3F49F6D4A3C55F382A
S2140058B074C9B3E3D2103F504AFF607BEB40B79900
S2140058C05899B8A6CD3C1ABDE69D350E480103CCC6
S2140058D0DBFDF4AC1191F4EFB9A5F9E9A7832C5ED2
S2140058E02CBE97F2D203B0208BD28915D08E1C74B2
S2140058F02430ED8FC24563765C15525ABF9A3263E8
S2140059006DEB2A65499C80DC00000000000000006A
S2140059100100000000000000010000000000000080
S2140059200000000001000000000000000100000070
S214005930020000000200000003000000000000005B
S2140059400200000000000000000000000000000050
S214005950000000000000000002000000020000003E
S214005960010000000000000002000000000000002F
S2140059700000000001000000000000000100000020
S214005980000000000500000001000000000000000C
S21400599005000000020000000200000003000000F6
S2140059A000000000020000000000000000000000F0
S2140059B000000000000000000000000002000000E0
S2140059C005000000010000000000000005000000C7
S2140059D000000000010000000000000004000000BD
S2140059E00100000008000000010000001000000098
S2140059F00100000000010000010000000008000097
S214005A001D000000000200001D0000000004000051
S214005A101D000000000001001D0000000000000046
S214005A2000000000C800FCFE1F811D0B6ABDFBFFC6
S214005A30B0807F054A32FFFF74801603EA4B0000F1
S214005A405180B50127B200003F80490184C500009F
S214005A503280D100F0C300002880740034B4000007
S214005A6028004B00EAB500008C00FCFEFFFF00009B
S214005A70000000001F8158114C42FAFFA180CA05A1
S214005A800197FFFF5D806A024CA400004180570129
S214005A90A7CC00003480E000BECA00002A808C003C
S214005AA0CABC000029005200B5B90000C800FCFEC0
S214005AB01F01C80B7D30FBFFAB001C05035BFFFF1F
S214005AC07300FD02DC5500005300D501BEAF000098
S214005AD03F001901E4C800003300AC0090C7000086
S214005AE02C006C00B1BC00002700430046AF00004D
S214005AF09600FCFEFFFF0000000000001F016D0F77
S214005B00A182FAFF7E00C103791F00005500E40160
S214005B10F4B1000041003701C7C900003300C000DF
S214005B20CAC700002B006E00F7B900002600380038
S214005B308AA8000083FFBFFFE2FFF1FFF9FFFEFF28
S214005B400000000007000000020000000400000043
S214005B500000000004000000000000000500000037
S214005B60714701002F4901007F480100A14801004C
S214005B70AF480100BD480100DB48010000000000FE
S214005B8000000000B5480100000000006749010061
S214005B906D490100734901000000000079490100C9
S214005BA0000000000000000000000000774F010029
S214005BB089490100000000001F4A0100934A0100C5
S214005BC0994A01009F4A0100B54A01004032FE0092
S214005BD0070000004648050359450000054500003B
S214005BE000000000064500000000000000000F4016
S214005BF01900000002000000A40E0020000008406B
S214005C0000000021C3660100ED660100E5660100A4
S214005C10DD66010011670100C7660100CF6601005E
S214005C20F766010000000102020303030300000000
S214005C300000270080841E00809C2B8F305C0000B4
S214005C40010000000000000000000000000000004E
S214005C5000000000000000E1FFFFFFFFFFFFFFFF66
S214005C60FFFFFFFF00000000000000000000000033
S214005C7001000000FFFFFFFF4B60D2273E3CCE3BFB
S214005C80F6B053CCB0061D65BC86987655BDEBB312
S214005C90E7933AAAD835C65A96C298D84539A1F499
S214005CA0A033EB2D817D0377F240A463E5E6BCF8D4
S214005CB047422CE1F2D1176BF551BF376840B6CB9F
S214005CC0CE5E316B5733CE2B169E0F7C4AEBE78E9B
S214005CD09B7F1AFEE242E34F512563FCC2CAB9F32A
S214005CE0849E17A7ADFAE6BCFFFFFFFFFFFFFFFF8E
S214005CF000000000FFFFFFFFF40F0101000000009E
S214005D00F80F010100C00300FC0F01010BC00300E7
S214005D1004000100018101000800010000010000EC
S214005D2018000100000000001C0001000100000037
S214005D3028000100000000002C0001000000000008
S214005D4030000100000000003400010000000000E8
S214005D503C0001000000000040000100A007000019
S214005D604800010000000000540001000000000090
S214005D705800010000000000A000010001480000DB
S214005D80A4000100FF4C0000A8000100014900002B
S214005D90AC000100FF4D00000020010008070000D5
S214005DA010200100FFFFFF00182001000060DA004D
S214005DB0083001003FAC000030300100AA2A100075
S214005DC034300100010000004030010000000000F7
S214005DD0A04001007A27000FF440010020100000C8
S214005DE0344101008008000038410100E6870000C9
S214005DF0404101004800880044410100C0E65311BC
S214005E00146001001000000018600100000000840B
S214005E101C6001001FC0010020600100C8200000B7
S214005E20246001000000000028600100000000035C
S214005E302C6001000000000030600100C804FF0074
S214005E4034600100A2080000386001000A0000016A
S214005E503C6001009200040040600100D6BE898EBE
S214005E604460010000000000486001008C00D40A75
S214005E704C6001000000000050600100D1032A00C1
S214005E80546001000000000058600100000000009F
S214005E905C600100040A13226060010032414A4F30
S214005EA0646001000000000014700100F870020039
S214005EB018700100000300001C7001006000D08113
S214005EC02870010000008001487001003C3D000081
S214005ED04C700100BC1900007070010005810000C4
S214005EE07470010013010000787001000023550053
S214005EF0FFFFFFFFF40F010100000000FC0F01018F
S214005F000BC00300083001003FAC0000F440010065
S214005F1020100000FFFFFFFFF40F01010008000043
S214005F20FC0F010108C003000830010037AC000078
S214005F30FFFFFFFFFC0F010109C00300083001004E
S214005F4037AC0000F440010020000000FFFFFFFF18
S214005F50F440010020000000FFFFFFFFFC0F0101DE
S214005F6009C003000830010037AC0000FFFFFFFF48
S214005F70BB030000000000000100000008070F003F
S214005F800A00C80020000000A0000000000000007A
S214005F900800020003000100FC07000001000100E9
S214005FA000000000A00042010A600706020A060779
S214005FB000000000636032E0375EA488534E6DFB3D
S214005FC06435BFF753A1811F582CD0A54540FC343B
S214005FD0F3274298B814B6F1E0CFF3ADB7DD25C984
S214005FE0FA79B713DFF8B82312880280DFF8B40313
S214005FF0008808807047DFF8A8231080DFF8A40325
S2140060000180704738B504460D462278611C284644
S21400601000F0F8F92078286131BD2DE9F04182B012
S21400602017461C4600F0FFF9FF1EDFF87C83DFF8FA
S2140060307C5338D07F1E4BD0FF1F00F0FD80FC3F06
S21400604000F09D807F1E00F0F2807F1E00F0CB8067
S214006050F83F41D0BF1E4FD0FF1E66D07F1E00F017
S214006060DE80FB3F14D040F2FF403F1A00F0208154
S2140060707F1E00F0FA807F1E00F0FF807F1E00F07B
S21400608008817F1E00F00B813F1F00F0208129E170
S2140060902068A8800023A088E8800022C44800F07A
S2140060A040F908201CE10220A88000230320E88095
S2140060B0002201202881294640F2FC7068810020D9
S2140060C0A8810120E881BB4800F019F9102007E1FB
S2140060D02068A880B84800E100F043F90700D6D051
S2140060E02068C06910281CD06068A880002397F834
S2140060F03E0000F01BF914E000F033F9070013D05F
S21400610007F12006306980280ED16068A880002339
S214006110B07F00F00BF93068C0B200F045FB00F02D
S214006120E9FB384600F05AFDDCE0206890F82C00C9
S21400613000F09AFE0600F7D09A48008820B920683A
S21400614090F85110FF290AD1206800F004F900F0F9
S21400615011F918BF002000F0F3F898485BE000F053
S214006160FAF800F007F918BF002000F0E9F82068F8
S21400617090F85100A873924800F0C1F831E06078BA
S214006180FF2811D1A07828710622E11C681D00F0B6
S21400619039F9607AE8720023A07A287300228948C9
S2140061A000F0BFF80D209BE020782871062260786A
S2140061B06871E11CA81D00F025F9607A287304F1C7
S2140061C00C03A07A6873E07AA8730B30010241EAE8
S2140061D0102040F4403040F0A00000F090F829462F
S2140061E0AA7B0F207CE000F086F800287AD090F892
S2140061F03E00287100236088A5F805000022A088CC
S214006200A5F807002946E088A5F80900207AE87274
S2140062106089A8816C4800F072F80E2060E000F0FB
S2140062206AF800285ED000F060F8684855E06848D4
S21400623000F070F8042053E000F05DF8060051D03E
S214006240207800F0B1FA00281CBFC069102849D099
S21400625096F83E0028710023607868710022A078C6
S214006260A87129465B4828602DE000F044F8002815
S21400627038D000F03AF858482FE000F078F8287147
S2140062800023564828600022012000902946052059
S21400629026E000F06CF800F036F8514804E000F014
S2140062A066F800F030F84F4800F03BF8092017E099
S2140062B000F05DF8287100236068A5F8050000224C
S2140062C049482860294601200090072008E000F091
S2140062D04EF8287160686871444800F01BF8062084
S2140062E000F0A4FE0020BDE8F68190F83E0028717C
S2140062F06078687170472178802000F059BD28606A
S214006300012000907047287100236068C5F80500DA
S21400631000227047286000230120009000222946B2
S214006320704728602946012000907047A871C5F87C
S21400633000800120009000222946072000F076BE4B
S214006340E872002396F83E0028730022206890F832
S21400635050006873704700F114010622281D00F0F3
S21400636051B8206890F82C10802000F021BD2078CD
S21400637000F09FBD2068C069A87229462068C06BDF
S21400638001287047704710B5044600F038F81849E1
S21400639000F034F8174900F031F81749086010BDCE
S2140063A0181500201A150020A0030801D4030020A9
S2140063B0A0040E00A00C0100A0020105A00A08001F
S2140063C0A00B0805A0090302A00A0802A002080400
S2140063D0A0000301A0030803A0020F03A0010F0101
S2140063E0A0050F00A0050F02A0030F04A0020F09CE
S2140063F0C8030020CC030020D003002008604FF420
S2140064008970204710B5044600F026FE204610BDD1
S214006410002104E0827A8918427A0068891A0028E6
S214006420F8D10846704770B540F20160121A82B083
S2140064301C46694E694D1CD0521E20D0521E2ED0CE
S214006440521E4ED0521E40D0521E5DD0521E6FD0ED
S214006450521E75D0F93A7CD0521E00F08580521E2E
S21400646000F08880521E00F09B80521E00F0A28032
S214006470B0E000F0F1F800F0DEF85948A1E000F0D6
S214006480EBF8287104F108036068C5F80500A069F8
S21400649000F0C0F8534908432860294686E000F01B
S2140064A0DBF8287104F1080300F0C6F82079E871DB
S2140064B0A0692872287A2A7A401D010241EA102033
S2140064C0494900F0A1F8092082E000F0C5F800F084
S2140064D0C6F8A872A87AC01D010241EA10204349F6
S2140064E04FE000F0B9F82871231D00F0A5F86069A8
S2140064F0E871E879EA79001D010241EA10203C497A
S21400650000F082F8082063E000F0A6F800F093F8A8
S214006510A088A5F80700A068FFF77AFF00F07AF8D1
S2140065203449084328602946022000900A202FE0BC
S21400653000F092F828716068A5F805002E6041E02A
S21400654000F08AF828712E6040F20310A5F80500C6
S21400655038E000F081F800F082F800F063F840F4CC
S214006560202040F0A0000DE000F076F800F068F87B
S21400657021481AE000F070F800F071F800F052F8C8
S2140065801E490843AA7A28602946022000900B205C
S214006590A36800F04BFD04F1080000F0D7FE19E0F8
S2140065A000F05AF800F04CF81548286001200090DA
S2140065B00A200DE000F050F828716068A5F8050084
S2140065C0104828600120009000230022294607205A
S2140065D000F02CFD002076BDA0030906D4030020A1
S2140065E0A0030900A0000901A0000902A0000904F8
S2140065F0A0000903A0000905A0060A01A0000A02DF
S214006600A0060A03A0030A040843286029460120BE
S214006610009070476872687A6A7A801D010241EAC3
S21400662010207047A872A87AC01D010201F47F41AD
S21400663041EA1020704728716088A5F80500704769
S214006640287100236088A5F8050000222079E871EB
S2140066502946E08828817047207800F02ABC2871F7
S2140066606088A5F805002079E871E0882881A06890
S214006670CEE6002A70B505460E46022001F0B4F8B4
S21400668004002BD0642101F0DBF8E66106222946DF
S21400669004F1140000F0E0FC04F150004FF0FF316C
S2140066A00170FF21417000206449401C0A68C0B296
S2140066B004E092F82C309842F7D09268002AF8D17D
S2140066C004F12C02107040F6FF70508000205061DC
S2140066D00868A0600C60204600F0B2F8204670BD46
S2140066E000B1C185704710B504003AD094F9040093
S2140066F00128A4BF401E207194F90400012809D186
S214006700207B800706D5206900281EBF012820466A
S21400671001F003FC94F90400012822DA204601F077
S214006720D7FB04F1300000F011FE4449086858B168
S214006730844203D1A068086006E00846816819B163
S214006740A142FAD1A168816000220FF21901204609
S21400675001F042FF2046BDE810400022012101F072
S21400676035BF10BD10B5012A0C4602D0022A07D04C
S21400677004E000220221204601F028FF002010BD80
S214006780204601F058FF2146022001F03EF8012085
S21400679010BD2A49096800E0896800291CBFCA8D17
S2140067A08242F9D1084670472449096800E08968A2
S2140067B000291CBF91F82C208242F8D10846704769
S2140067C080B5FFF7F1FF18B1C169102908BF002096
S2140067D002BD70B50446194806680D4600E0B66866
S2140067E056B1F069A842FAD10622214606F11400F5
S2140067F001F084FF0028F2D1304670BD38B504465B
S2140068000E48056800E0AD685DB128690428FAD135
S2140068103CB10322214605F1170001F06FFF002866
S214006820F1D1284632BD10B9044800687047806828
S214006830704702490020086070470000E804002006
S21400684010B10179491C017170470246002364218A
S214006850022000F097BF022000F0D1BF80B51B4990
S2140068600020086001F095FF01F09AFFFFF7E1FFB6
S21400687000F0FEFF00F02CFC01F09FFF02F02AF96A
S21400688002F094FE03F00EF8BDE8014001F01EBBD6
S21400689038B504460D46002301220021002000F0F2
S2140068A071FF2046FFF7D1FF284602F001F90020CD
S2140068B032BD1CB5044606220549684600F0DCFBDE
S2140068C020466946062200F0C7FB13BD28050020B7
S2140068D06C06002010B5044603E001F0DBFE01F074
S2140068E0F3FA01F075FA00282046F6D1BDE810400C
S2140068F001F0D0BE002818BF02F0AFBC4FF4C07045
S214006900704780B5FFF750FF20B1C08DBDE802404C
S21400691001F06FBD4FF4C07002BD01F03DBD80B503
S2140069200146012001F094FD002002BD002104E094
S214006930827A8918427A0068891A0028F8D10846AF
S214006940704780B500F0E8F8012002BDDFF8B80413
S21400695090F90000012103F0F8B82DE9F04786B061
S21400696080460E4692461D468DF804800296ADF887
S2140069700CA004950E9CDFF89404DFF894948DF830
S2140069801440076806E001AADFF88814384603F0CA
S2140069903BF93F68A7B197F83C0000F00A000A28C8
S2140069A0F7D1D7F804C0BCF1000FECD000942B460A
S2140069B0524631464046E047D9F800000028E8D065
S2140069C006B0BDE8F087416A00291CBF243000F0FD
S2140069D0BDBC704738B50446E06998B300F010F9BE
S2140069E080B33C220921002000F0CDFB009048B384
S2140069F00020DFF8245401E00A74401C0099009A35
S214006A00497A927A521A90420BD2009B194408B9DE
S214006A105E22F1E7521E904201440CBF21222A78E2
S214006A20EAE76946204600F00AF9009810B1684681
S214006A3000F08CFC2878401C2870C0B23A28A4BF0E
S214006A403020287031BDDFF8D40300784FF4807111
S214006A50401CC0B2FF2804BF401CC0B2DFF8AC2305
S214006A6003E092F83E30834203D01268002AF8D141
S214006A707047491EECD1FF20704738B5FFF7E3FF9B
S214006A80FF2801D1002032BD442003F0ECF80400BA
S214006A9009D0442100F0D4FE04F13E05FFF7D3FFF1
S214006AA0287001206870204632BD80B50021DFF8CE
S214006AB0700303F03BF8DFF85013087000F01CF981
S214006AC0FFF7DBFFC0B1011D00220A604A60062303
S214006AD0DFF850238A60DFF85023CA6000F13C02DA
S214006AE013701023CB621F23937000230B620121C7
S214006AF0D170BDE8024000E001BDDFF810130A685F
S214006B000260086010F83C1F41F0010101708078B7
S214006B10DFF808130870704710B5DFF8F002046855
S214006B202DE0204600F084F994F83C00C00744BFEE
S214006B30204600F0DCF994F83C0000F0FE008107E7
S214006B4084F83C001AD540070BD5216908001CBF05
S214006B5020468847606A20B1E16808001CBF2046CE
S214006B60884794F83C00000708D5A068010005D0C7
S214006B70804718B10146204600F0D9F92468002C59
S214006B80CFD1002010BD38B50446251D0020E86191
S214006B90A86184F83C0068602860A860686A28B12C
S214006BA004F1280000F0D2FB00206862286A28B1B1
S214006BB004F1240000F0CAFB00202862934809E094
S214006BC08169A14204BF00218161C169A14204BF5D
S214006BD00021C16100680028F2D131BD10B504461D
S214006BE0FFF7D1FF894800E00846016819B1A142C5
S214006BF0FAD1216801602046BDE8104003F04FB886
S214006C0008B90120704700F13C010A7802F006033B
S214006C10062B11D150F80C3F73B1C97801B9012188
S214006C208069002201E00068521C0028FBD1D2B225
S214006C308A428041C00F704702F0020070472DE97B
S214006C40F04704460D46E669FEB196F83C10301D46
S214006C5001F0060106290FD1816869B12868FFF79F
S214006C6065FEA16B4018A06306F12400296800F0B9
S214006C703CFC00F095F80FE00068010005D000F03D
S214006C8033F902E0304600F0D1FA284600F01AFC4C
S214006C90060003D100F030F800202BE0707AB17ABD
S214006CA0DFF86C9100F076F809E0A06B5044A06322
S214006CB0A7EB0A07707A50447072D044BFB2002F18
S214006CC0E0D0FD2FACBF4FF0FC0ABA4642465FFA52
S214006CD08AF1204600F03DF9D9F800000028E4D0FB
S214006CE03146284600F051FC0020C9F8000000F0AC
S214006CF003F80120BDE8F0874C4800F0F5B82DE910
S214006D00F8435FEA00090D4606D1284600F01EFB50
S214006D1000202860BDE8F28309F1040699F83C00DB
S214006D2000F00600062810D1B06870B12868FFF79A
S214006D30FDFD316B4018306309F12400296800F02E
S214006D40D4FB00F02DF80020E4E73068010005D001
S214006D5000F0CAF802E0304600F068FA284600F074
S214006D60B1FB060002D1FFF7C7FFECE7707AB17AF5
S214006D7000F010F807E04246E1B2484600F0E9F8B5
S214006D803F1BA044BFB2002FE5D0FD2FACBFFC24B4
S214006D903C46F0E70F1A3044BFB200F110087047C7
S214006DA0002028600121184890F9000002F0CDBEAE
S214006DB0164A12683AB1136B834204BF136A8B42B9
S214006DC0F7D110467047002070471049096800291F
S214006DD01CBF91F83E208242F8D10846704710B595
S214006DE0044694F83C00626920EA0101100002D0D3
S214006DF02046904701E084F83C1094F83C0040F0B0
S214006E00010084F83C0010BD2F1500204805002026
S214006E104C050020020001000D0200203015002065
S214006E2043690000C7690000D56900005B6900007F
S214006E3038B5044604F13C056878C00713D52878B1
S214006E40400610D52046FFF7DBFE60B1287800F03C
S214006E50BF0028704021687800F0FE006870204669
S214006E60BDE83440BBE731BD70B5064631468020EC
S214006E70FFF79EFF04001BD1FFF7FFFD040001D1C2
S214006E80002070BD04F10C05002028606860A86032
S214006E90022084F83C001F20FFF797FF28616E61F0
S214006EA0802068620020A8612046FFF726FE204664
S214006EB070BDFF2800D1704780B501468020FFF7DF
S214006EC077FF10B190F83E0002BDFF2002BDFF28FC
S214006ED000D1704780B5FFF778FF10B1006AC0B2E6
S214006EE002BDFF2002BD002855490860704700F12A
S214006EF01C025169802900D1704710B582B0116814
S214006F004FF0FF3309B191F93E303C304D4984785B
S214006F100C715269C1F805204B7200230078887204
S214006F20002249480860012000900B200EE010B5B2
S214006F30444C82B0A180002390F83E00A07100224D
S214006F4042482060214601200090072000F06EF89D
S214006F5013BD80B5034608463A4993F83E3048715B
S214006F600B71801C030243EA1020394B184308605B
S214006F7013460120009006204A7900F057F801BD1C
S214006F8010B584B08278C0782D4C2468ADF808100F
S214006F90000640EA024040F40870019000230120F9
S214006FA00090002201A90620A0471FBD31B50C465F
S214006FB002F078FE0546012000F021FC0B2838BFC1
S214006FC04FF4C17113D31DB169682046884731BD9F
S214006FD020480568002004E000986A68214690472B
S214006FE0AD680DB10100F7D020B940F283116846B4
S214006FF0FFF7C6FF31BDD9E770B5164E04463068B8
S2140070000D4600E0806818B14168A942FAD10BE04D
S2140070100C2002F037FE10B94FF4C17070BD04703A
S2140070204560316881603060002070BD10B582B068
S214007030049C0094024C2468A04713BD0000000086
S21400704078060020D4030020A0070B02A0030B0044
S214007050A0000B018804002062B38B0708D0521EE4
S21400706011F8013B00F8013B00F024808B07F6D1B5
S214007070830740F0208000BF103A07D330B4B1E851
S2140070803810103AA0E83810F9D230BC530724BFA5
S214007090B1E80810A0E8081044BF51F8043B40F8D7
S2140070A0043BD20724BF31F8022B20F8022B44BF42
S2140070B00B7803707047083A07D3B1E80810083A0F
S2140070C040F8043B40F804CBF7D25307E4E7002827
S2140070D080B5012000F0A3FBDFF89816801F08603B
S2140070E001BD2DE9F04704468846914602F0FAFDB8
S2140070F08246DFF88006DFF880560068DFF87C6698
S214007100012C26D13168814228DA012000F06CFB80
S2140071100746504602F0EAFD7FB31021384600F0DD
S2140071208FFBB86840F00800B86087F8098009EB64
S2140071300800B872002038607C60B86840084000DC
S214007140B8600020012CF8600DD13068401C30601B
S21400715013E0002CD9D129688142D6DB504602F0D4
S214007160C5FD00200AE01CB92868401C286004E021
S214007170DFF80C060168491C01603846BDE8F08758
S21400718000220021ADE78B18462BBCBFC9B2FFF723
S214007190A8BF0020704738B514461D460022C9B265
S2140071A0FFF79FFF009040B12A46214600F0A7F95E
S2140071B0A8423CBF684600F0C9F8009832BDF8B552
S2140071C0044600200D460090002620E0607A787283
S2140071D0A07AB872A068B968400860F34101B96047
S2140071E0A068B968800860F38201B960607AA17A05
S2140071F00A1A204400F11001787A384400F021F988
S214007200009800B9009706B1376024683E465CB126
S214007210002200212846FFF764FF0700D6D1684603
S21400722000F094F80020F2BD0098F2BD38B50400D6
S21400723021D002F057FD0546A068616820F00800DE
S2140072400129A06008BFDFF8341505D000290CBF5F
S214007250DFF82415DFF828150A68521E0A60C007F2
S21400726021464CBF0320012000F0CFFA2846BDE897
S214007270324002F03BBD31BD10B508E0427A837A59
S214007280C9B29C1A8C4205DAC91A0068511800283F
S214007290F4D110BD10440844103010BD827AC2F1FB
S2140072A045039942A8BFC2F145018A188272C8B246
S2140072B0704738B504461546A07AC0F14502954297
S2140072C0A8BFC0F14505EDB220182A4600F0B9F86F
S2140072D0A07A2818A072284632BD2DE9F0425FEA4F
S2140072E0000918BF00290BD00C46607AA17ADBB2E1
S2140072F00F1A9F4206DA591A24684318002CF4D154
S214007300002021E0A67A2118301A1944C51A103137
S214007310EDB24E4609EB020705E0607AA27A211824
S214007320151A1031EDB2BE420CD2701987423CBF1E
S214007330BD1BEDB22A463046FFF78EFE246876194E
S214007340002CEAD1A6EB0900BDE8F08238B5044669
S21400735003E00568FFF76AFF256020680028F8D17B
S21400736031BD00B9704710B5016821B9002202602E
S214007370084610BD026003681A68002AF6D09468B2
S214007380C4F34004002CF5D000241C60EFE738B5A9
S2140073900446607A884202D3401A607213E0A27AEA
S2140073A0C2F14503C3188B420FDB121A0D1A2318BD
S2140073B0581903F11001103002F09CFC0020607296
S2140073C0A07A2818A072012032BD002032BD38B540
S2140073D004460D46FFF7DBFF08B1204632BD606865
S2140073E0FFF7CEFE28B1046045218172C5F1450144
S2140073F0417232BDF8B504460D46607AA17A0A1A83
S214007400081A561B8542B6B204DA6068FFF7B8FE63
S214007410070001D10020F2BD607A2044284400F124
S2140074201001787A384400F00BF8B87A3018B87241
S214007430A07A801BA0722068386027600120F2BD09
S21400744032461030FFF708BE70B50C46002818BF4D
S214007450002C07D0617AA27A857AC5F14505561ABE
S214007460B54201DA002070BD521A6118D2B210314E
S214007470FFF71FFF2046FFF7D9FE012070BDF8B5C5
S21400748004460F4626680020354605E0B07A717A35
S214007490381A0F1830463668F9B269B166B1B07A54
S2140074A0717AFFB2401A8742F0DA39463046FFF763
S2140074B0A1FF0028EAD1F2BD08B1002101602660D4
S2140074C02846F2BD016821B10A6802600020086003
S2140074D001E00022026008467047016819B10A6898
S2140074E002600846A2E601607047026812B90160B1
S2140074F07047024610680028FBD1116070472DE9DE
S214007500F8430400894690461CBFB9F1000F5FEAB5
S214007510080001D1002020E0274600E00746386832
S2140075200028FBD13D00464605D1617A60680022FE
S214007530FFF7D7FD05466DB1F2B249462846FFF77C
S214007540B8FE361A8144BD421CBF3D602F46F0B2DD
S2140075500028EAD1A8EB0600C0B2BDE8F28338B531
S21400756005680C4615B9046031BD05462868002834
S214007570FBD1206818B1204600F054F803E02846F6
S214007580FFF762FF00B92C6031BD026802B10A60E5
S214007590016070470A0001D170471A461368002B35
S2140075A0FBD1036813600160704738B504460D468A
S2140075B004E06D1A01682160FFF738FEE8B250B1AA
S2140075C0206840B1427A817A891A89B2EDB28D423A
S2140075D0EFDAA918417231BD70B504460D46206831
S2140075E010B970BD00203060E8B2D0B12068002825
S2140075F017D0002601E00646084601680029FAD1A1
S214007600417A827AEDB2531A9D4202DA511B817298
S21400761070BDAA1A8D18FFF709FE002EE2D10020D1
S214007620206070BD70B5044643E0A17A607AC1F16F
S21400763045021518ADB2002D3AD002000DD00A1A38
S214007640204400F1100104F1100002F053FBA07A70
S214007650617A401AA07200206072206840B3816888
S214007660C1F3400121BB417A827AA37A0844521AB8
S21400767000F11001607A92B22E4695422044C8BFAF
S21400768016461844FFF7DCFEA07A3018A072AD1B31
S2140076902068417A71184172ADB22068817A427AC8
S2140076A0891A03D101682160FFF7C0FD002DD4D1EF
S2140076B02468002CB9D170BD2DE9FB4781B00025A8
S2140076C0019800950028904646D00646A946AA4648
S2140076D0002422E0B9F1000F0DD101989DF80810A2
S2140076E040680022FFF7FDFC5FEA00092ED04946FD
S2140076F06846FFF7FAFE707A3044001900F1100170
S214007700FAB24846FFF7D5FDBA445FFA8AFA3C1942
S214007710C245E4B204BFA946AA46707AB17A0A1AEC
S21400772094420EDA121B13464245C8BF4346A8EBE6
S2140077300A07BB42CEDA4245AEBF4746081A071BC9
S214007740C8E73668002EC3D1009D04E0009810B14B
S2140077506846FFF7FBFD284604B0BDE8F0870748FB
S21400776005490068096840EA01200549096840EAB9
S2140077700140704710000020C0040020BC04002018
S214007780C404002070B51446C91C4FF6FC721140A4
S214007790C91C02EA0105284901EB0016002027490A
S2140077A035807480F06004FB05F0096888477060D7
S2140077B015FB04F1318189B2706800F041F80020B1
S2140077C007E0716800FB05F21144F2680A60F16098
S2140077D0401CA042F5DB748070BD184A11605060F2
S2140077E00101154802F0C2BA134901EB0011C8683E
S2140077F020B10268CA604A88521E4A8070470E4905
S21400780001EB00104088C0B270470B4A02EB001034
S214007810C2680A60C1604188491C41807047000107
S21400782005490A5A2AB10A18085A128992FBF0F03A
S2140078307047002070470000EC030020B4040020CE
S214007840002202F09BBA02280188491C8AB202B9BB
S214007850012101800088704710B50446012000F021
S2140078602BFBDFF8900904600020BDE8104023E3FE
S214007870DFF8800900210160C1610162C162816296
S2140078804FF6FF710187002181608181016181824D
S2140078907047DFF86019C2784A6042F213038288A4
S2140078A09A4200D0704700B583B082788DF80220E7
S2140078B08088ADF8040001F13800FFF7C5FFADF889
S2140078C000006A460621DFF8300900F0CCFE07BD4E
S2140078D070B505468CB0DFF81C69A878DFF8184943
S2140078E07060B5F8030010383DD04FF47E71401A32
S2140078F039D040F2FB71401A35D040F2FE31401AC2
S21400790018D0001F2AD0001F2ED04FF47F71401AC7
S21400791061D040F6FD31401A00F083800C3822D04A
S214007920093847D0401E34D0C01F65D0143801280F
S21400793062D97BE00A2002F096F9002813D0B5F849
S214007940071041800246A9790170697A0171A989F8
S21400795001816989C1804FF4837116E0B5F809008A
S214007960B060E888B08181E00622A91D06F13000EB
S214007970FFF772FB062002F076F9060076D00622A4
S214007980A91DFFF769FB32460821204600F01EFEBF
S2140079906CE008208DF80E000822A91D0DF10F00DE
S2140079A0FFF75AFB00F064F8ADF80C0003AA40F6A7
S2140079B0080158E010208DF81A001022A91D0DF1BC
S2140079C01B00FFF749FB00F053F8ADF8180006AAB5
S2140079D040F6070147E068798DF80900E888FEF769
S2140079E0D8FE08B190F82C008DF8080002AA287A74
S2140079F08DF80A000B2136E06879010014BF40F4C8
S214007A0000700020009042F21F01B5F80300884283
S214007A100CBFE8880020ADF804006A4640F2023148
S214007A2021E0287A3061E888B0821FE068798DF816
S214007A30020040F66D41B5F80300ADF80400B5F855
S214007A400300401A07D041F29E31401A012884BF35
S214007A502A38042802D800F00BF800E0308FADF882
S214007A6000006A460621204600F0FDFD0CB070BD01
S214007A7006F13800E8E62DE9F04E044682B0A0781C
S214007A80FF25012800F0988002282ED0032800F059
S214007A908280052800F0CC80062800F0D7800728D2
S214007AA000F0FB800C2800F0DF80122800F0E68053
S214007AB0132840F005810C2002F0D5F8060000F0EF
S214007AC0FF80E078B0707570062220797072611DB4
S214007AD0F01CFFF7C1FA4FF0FF3030700020F07254
S214007AE03046BDE8F64E01F0A5B8E6784FF0000B3C
S214007AF017E001EBC600204401F1010A0079484472
S214007B005FFA80F95FFA8AF1B142F2DB0BEB09000B
S214007B1020440BF1010B90F904003870384601F050
S214007B2089F8B34554DA2B2002F09DF807004FD0B1
S214007B3004EB0B00BD700622007978704FF0000A47
S214007B400BEB0600204400797872700002FB0B00F5
S214007B502044011DF81CFFF77FFA0BEBC6002044FB
S214007B600079F87206EBC60006E00AEBC600204471
S214007B700AF1010A007948445FFA80F95FFA8AFA46
S214007B80DA45F2DB04EB0900FA7A011D07F10C0076
S214007B90FFF762FAB6E7A088FEF7FBFD050017D0F0
S214007BA0E078002814D105F15C00E1880180618945
S214007BB04180218981807EE0E079A17949B9010080
S214007BC018BF012104F10800FEF703FE05000DD1E1
S214007BD076E0014604F10800FEF74CFD05006FD084
S214007BE00220E86300F0FEFA0020A862E07878B988
S214007BF0A1882846FEF774FD05F15C00E189018046
S214007C00618A4180218A81802846BDE8FC4ED7E003
S214007C1000202861E078010014BF40F400710021C4
S214007C20284601F038FB2846BDE8F64EFEF75BBD59
S214007C30B4F80300FEF7ADFD050041D0B4F80D1012
S214007C40621D02B0BDE8F04E02F022BDB4F80B0093
S214007C500090B4F80930B4F80720B4F80510B4F86A
S214007C60030000F002FC2BE0A088FEF792FD050062
S214007C7026D0A179BDE8FC4E00F07FBFE078E3791E
S214007C80B4F80520010014BF40F4007100212079EB
S214007C9002B0BDE8F04E01F0BBB8B4F80300FEF742
S214007CA078FD05001EBFB4F80500B5F862108142E5
S214007CB006D0A5F862002846BDE8F64E00F03ABFAA
S214007CC0BDE8F38E38B505462878032846D0052843
S214007CD031D0082815D00E2806D00F2808D0302816
S214007CE00AD03E2863D031BD2846BDE83240EFE5D5
S214007CF02846BDE83240CCE500F05EF804005AD0D5
S214007D000EE000F059F8040055D0697994F8450063
S214007D10002914BF40F0010000F0FE0084F8450082
S214007D20A878010014BF40F4007100212046BDE889
S214007D30344001F021BB00F03FF804003BD00020A7
S214007D40206140F6FF70E0856879010014BF40F4BA
S214007D5000710021204601F089FA23E01021681DF9
S214007D60FEF737FD040026D0A87880B9B5F80310D2
S214007D702046FEF7B5FCE87A28B194F8450040F0B6
S214007D80010084F845002046BDE8344018E0002095
S214007D902061A878010014BF40F40071002120463D
S214007DA001F079FA2046BDE83240FEF79CBC284632
S214007DB0BDE832405FE631BDB5F80300FEF7E9BC2A
S214007DC0002101F068BA0146DFF83004FFF78DBBEA
S214007DD0DFF82004C169002906BF806A0028012058
S214007DE07047DFF81014CA690020002A1CBF01F192
S214007DF01C00FFF7B6BA704710B504F069FD040022
S214007E0009D0607A20441030FFF75CFF2046BDE8BA
S214007E101040FFF70BBAFFF7E4FF18B1BDE81040BB
S214007E2000F0A8BD10BD80B5002141F2090004F0A5
S214007E3029FD00B97AE27CE280B510B1022818D09C
S214007E4001BD042142F2240004F01CFD20B9BDE867
S214007E500240012000E501BDFB21A0F803104FF60B
S214007E60FF71A0F8051004F0CCFDBDE8024002202A
S214007E7022E004F02DFD0028EDD0417A01440A7C72
S214007E800E2AE8D1897CDFF86C2301295160E2DBF9
S214007E90FFF7CCF9DBE710B1022801D07047C2E744
S214007EA0DAE410B1022806D0704700220321DFF87A
S214007EB0480300F08BBB9FE7DFF83823DFF840135A
S214007EC0126851F8221008470220F5E70020F3E771
S214007ED0F8B5C84D0446A88A00280CBF05F1200650
S214007EE005F1240603E00768FFF7A0F9376030685D
S214007EF020B1C168A142F6D00646F8E794F83900EA
S214007F00A98A19B129694018286102E0A9684018B1
S214007F10A860002084F83900F1BD10B50446206939
S214007F20002818BF012802D140F2811010BD032896
S214007F3002D100F06DF90CE0032140F2064004F097
S214007F40A1FC00B952E200F074F91321417104F06B
S214007F5058FD01202061002010BD02B5C18D40F6FD
S214007F60FF72914203D16846FFF7F0F901BD009910
S214007F70012208E08B68C86023F0060343EA420249
S214007F808A60002209680029F4D19A48818A00296B
S214007F90009914BF24302030FFF7A7FA04F0E4FC61
S214007FA001BD2DE9F0410E4617469846964984B025
S214007FB01CC90546684619211CC042F2360004F06A
S214007FC061FC040008BF00202AD0E5703DF81800C8
S214007FD0A080A671300AE071677200202072380A0D
S214007FE0A0720020E0720D9820730A9860730E98B5
S214007FF060757F20A0750120E0750020A0760F98A0
S214008000E0760B98A0730C9921B1062204F10F00BC
S214008010FFF722F8204604F0F4FC7C48FFF714FC37
S21400802004B0BDE8F08104F02DFCBDE8024004F089
S214008030E8BC70B504460D46072142F2350004F050
S21400804021FC060001D1002070BD00F041F9304649
S21400805004F0D7FCBDE8704027E0F8B500F043F820
S21400806042F2370004F00EFC070001D10020F2BDFA
S21400807000F032F82A463146F81DFEF7EDFF384686
S2140080800FE0A0F80550A0F80760A0F80970069960
S214008090A0F80B100021A0F80D104FF6FF71A0F805
S2140080A00F1004F0AEFCBDE8F2405848FFF7CCBB1A
S2140080B0F8B500F018F842F2380004F0E3FB0700C9
S2140080C001D10020F2BD00F007F81F223146F81D4E
S2140080D0FEF7C2FF3846E4E703203871FC70002044
S2140080E07871BD7170470D460446291D1646C9B203
S2140080F07047F8B500F021F842F2390004F0C2FBF0
S21400810050B101210171C570310AC1714471390A3B
S214008110417286710772C4E7F2BDF8B500F00DF83B
S21400812042F20B0004F0AEFB30B1C4708580C6800E
S214008130077206994172B4E7F2BD04460D4616462C
S2140081401F460721704738B504460D46022142F205
S2140081500C0004F097FB30B1C470057104F051FCBC
S214008160BDE83240A1E732BD2DE9F04105460320C7
S21400817028610E461446984600F034F80020A8629F
S2140081800120E863089A0799284600F025FA192185
S21400819042F20D0004F076FB070008BF4FF4C170F2
S2140081A01ED0C820A7F80300A7F805000622002066
S2140081B0F87105F11401E869387207F10900FEF755
S2140081C04BFF0020F8733E827C82A7F81480069846
S2140081D0F882002038837C83384604F012FC0020A6
S2140081E0BDE8F0810622074905F12000FEF744BFEE
S2140081F0000000003C06002028050020580600204D
S214008200485800006C0600203C580000720600200B
S21400821080B5002142F20E0005E7F8B500F031F90E
S21400822042F2130004F02EFB10B100F002F828E72B
S214008230F2BDE18DA0F8031070472DE9F04100F083
S21400824068F898461C2142F2190004F01BFB070050
S21400825008BF4FF4C17013D0E08DA7F803000822C2
S2140082602946781DFEF7F8FEA7F80D601022414655
S21400827007F10F00FEF7F0FE384604F0C2FB0020C0
S214008280BDE8F08170B50D0004460AD1022142F225
S2140082901B0004F0F7FA060012D0E08DA6F80300E3
S2140082A00EE0122142F21A0004F0ECFA060007D0A3
S2140082B0E08DA6F8030010222946701DFEF7CCFEBE
S2140082C001E000F005F83046BDE8704004F099BBC8
S2140082D0F47006222946301DFEF7BEBE70B500F0CB
S2140082E018F8032142F2330004F0CCFA00B92FE06C
S2140082F031E0F8B500F00DF81F46042142F23400D4
S21400830004F0C0FA00B940E0C47005714671877188
S2140083103EE004460D461646704780B5002142F200
S2140083201F0004F0AFFA00B900E002E04FF4C1709D
S21400833002BD04F066FB002002BD70B5FFF7E9FF42
S214008340032142F2310004F09DFA00B900E002E099
S2140083504FF4C17070BDC4700571467104F051FBD6
S214008360002070BDF8B5FFF7D4FF1F46062142F285
S214008370320004F087FA00B907E0FFF75AFF4571AC
S2140083808671C7710699017202E04FF4C170F2BDA2
S21400839004F037FB0020F2BD80B5002142F2180041
S2140083A004F070FA20B104F02CFBBDE802407CE635
S2140083B002BD70B504460D46202142F2170004F0B7
S2140083C061FA060001D1002070BD1022214606F198
S2140083D01300FEF741FE10222946F01CFEF73CFE75
S2140083E0304604F00EFBBDE870405EE64FF4C17008
S2140083F010BD10B50446022141F2054004F042FAD1
S21400840000B9F3E7A0F8034004F0FBFA002010BD23
S21400841038B504460D4606214FF6054004F032FAFC
S21400842000B900E00CE04FF4C17032BD38B5044628
S2140084300D4606214FF6064004F024FA00B9F2E78E
S214008440A0F80340C0F8055004F0DBFA002032BD67
S21400845038B504460D4605214FF6074004F012FADB
S21400846000B9E0E7C4704560EEE7F8B500F009F83B
S21400847042F2200004F006FA10B1A0F8034000E62D
S214008480F2BD04460D4616461F460E2170470228CA
S21400849099490A680AB900207047D2680021101A64
S2140084A000D400D101210846704710B5924A1268E0
S2140084B04FF0FF3109E0D36814695268E3181B1ABD
S2140084C023F000438B4298BF1946002AF3D1084692
S2140084D010BD10B50446606920B1A168002958BFD8
S2140084E001F0DDFB2046BDE8104001F0D8BB824914
S2140084F00020086070472DE9F84F7F4C25688046BD
S214008500894692469B46002604E06F682846FFF799
S214008510E0FF3D46BDB12868404502BFA86820F090
S214008520004048450CD15FEA0B0003D0686951460D
S214008530D84728B96868002E14BF70602060E4E74A
S2140085402E466D68E6E7BDE8F18F00230022D2E7ED
S214008550F8B505001CBF286800280E4617461C46BE
S21400856008D127B1002E5CBF384601F098FB4FF4C7
S214008570C670F2BD182001F076FB78B1002141618B
S214008580866047610560002206995B4B0161594988
S21400859009686118C1601C6825460AE027B1002EEC
S2140085A05CBF384601F07BFB4FF4C170F2BD2A4633
S2140085B06D6815B1EE68B142F9D212B94460186020
S2140085C002E05168416050600020F2BD80B5002393
S2140085D00093FFF7BDFF02BD70B504460D46164674
S2140085E00C2001F040FB10B94FF4C17070BD45601F
S2140085F08660216801602060002070BD2DE9F04192
S2140086000546002728680E469046002801E00746E3
S21400861020000ED042680168B24204BF826842451C
S2140086200C46F4D1002F0CBF2960396001F037FBEF
S214008630EEE7BDE8F08138B504462F4920680968A2
S21400864007E00A68A24203D18A6802F000428A6004
S21400865049680029F5D120B1056801F020FB2846BD
S214008660F9E7206031BD2DE9F04104000D46904643
S2140086700DD0276800E037464FB13E68B8687F687F
S21400868043462A462146B8470100F4D000E00020C1
S214008690BDE8F0812DE9F041164C174D20601AE038
S2140086A070682860B06840001CBF306800280FD093
S2140086B007686FB1B26850000AD0D7F80080B86873
S2140086C0736931687F68B84710B95FEA0807F1D167
S2140086D03046FFF7FEFE26683046FFF7D9FE18B193
S2140086E02E68002EDCD1F6E73046BDE8F041DCE629
S2140086F000000000AC040020B004002003000020AE
S21400870013F0030F09D0521E22BF13F8010B11F805
S21400871001CBB0EB0C00F3D07047121F22BF53F80A
S214008720040B51F804CB6045F7D0121D0AD200BAEC
S2140087309CFA8CFCB0EB0C0038BF6FF0000088BFD2
S21400874001207047521E22BF13F8010B11F801CB0F
S214008750B0EB0C00F6D0521C08BF1046704702283B
S21400876030B5C2080D4B9C5C19B100F008F82043E8
S21400877003E000F004F824EA0000985430BD8508B1
S21400878000EB5575ED080121A0EBC50001FA00F0DD
S2140087907047024800210170704700002E15002027
S2140087A070470328002104E0827A8918427A00681C
S2140087B0891A0028F8D10846704780B500220FF2C3
S2140087C005116A48FFF708FF69494020488001BD47
S2140087D076B504460D461046FFF7E4FF06460198B8
S2140087E00421FEF7F4FD28B901A8FEF7AFFD4FF40B
S2140087F0C17076BD0190417A0844103045800680ED
S21400880020460199FFF7A9FB002076BD2DE9F0412F
S214008810804657480D4601784C1C164604701F4685
S214008820102204210020FEF7AEFC10B94FF4C170F0
S21400883016E0417A014401F11002052151800C2115
S21400884011801221117154710821D1801581568131
S21400885097810699D18101464046FFF77EFB0020AE
S214008860BDE8F08170B500F00FF800B91EE000F02A
S21400887013F813221DE070B500F006F800B915E0F5
S21400888000F00AF8012214E004460D4616460A22B5
S21400889004210020FEF777BC417A014410310522FE
S2140088A04A804D7106220A800E8170474FF4C170CF
S2140088B070BD0A710222CA8001462046FFF74DFBB2
S2140088C0002070BD80B5062A01BF294801891A8894
S2140088D091420AD1002101819A7802B10122018ACF
S2140088E0C068FFF7BFFF012002BD002002BDF8B53B
S2140088F00D4604462879122802D013282BD02DE0E6
S214008900E06B02282AD0298940F67B408A1F8242E3
S2140089103EBF6A89931F834213D28A4211D3AB8922
S214008920B3F5FA7F0DDAE889A0F10A0640F6774734
S214008930BE4206D200902046FFF76FFC0C49088125
S21400894028B969792046BDE8F84001228AE7CC605C
S21400895068790882F1BDE06B012805D16979204667
S214008960BDE8F840002286E7F1BD0000280500209B
S2140089709008002031B5417A084400F11005288897
S214008980C0F30B00FDF705FF040003D16846FEF7B1
S214008990DDFC31BD0098C460288800F44051C0F367
S2140089A00B00B1F5805F288004D10098806820F025
S2140089B0020007E004F13000FEF7C8FC009880686B
S2140089C040F002000099886000980099407A001DE7
S2140089D0487204F130000099FEF787FD206B0146CF
S2140089E0002201E00968521C0029FBD1D2B2022AFB
S2140089F0A8BFFEF717FE206BFFF7D4FE04282AD385
S214008A00206B417A014401F11005FFF7CBFE29885F
S214008A10091D81421FD1688804280DD017D3062867
S214008A2005D014D229462046FFF761FF0FE0216BE0
S214008A30204602F0CFF807E0206B417A091D41720C
S214008A40E06C216B04F054FA0020206331BD04F181
S214008A503000FEF77BFC31BD0A431040884201D14E
S214008A600120704700207047012802BF487900F0B7
S214008A70C000402801D1012070470020704720B573
S214008A80DFF8145B6D7DA84201D2202B02DB4FF489
S214008A90C07020BD0029194602D1FFF7DEFA01E0BA
S214008AA0FFF706FB10B94FF4C17020BD002020BDB3
S214008AB010B5DFF8E44A6075182110FB01F10023B9
S214008AC0012289B20720FEF75DFE0720FEF78CFE26
S214008AD0606010BDDFF8C00A0021016012E0426845
S214008AE018234B431A44002313605360491CA023E9
S214008AF013814FF4A07353810723937400231375D7
S214008B001382D374427D9142E9DB64210181002205
S214008B10C8214181002181816421C1811021018207
S214008B20418200210175C161DFF8700A0FF6392114
S214008B30FFF752BD10B504460C2001F094F8D8B1EA
S214008B4004F12C010A7802704A7E02F00302012A20
S214008B5003D0032A0CBF0222002202720A8E428031
S214008B604A8EC2808A8E82800246C98E418140F239
S214008B700911BDE81040BCE010BD38B504460D46EE
S214008B80022001F070F848B194F82C10017045707E
S214008B900246BDE8384040F20721AAE031BD70B574
S214008BA00546DFF8F4490846E169D9B18D72206AB6
S214008BB000B18572A069DFF8E459E26920F002008E
S214008BC0A06140F2071631462846FFF7FFFC00205A
S214008BD0226AE06192B131462846FFF7F7FC002092
S214008BE020620BE0FDF70AFE40B1C16880F85050E5
S214008BF041F00101C160002100F04DFB0020FDF7AF
S214008C00FDFD20B1BDE87040143004F0FEBA70BD22
S214008C1030B5921E002300E01B199A4208DBCC18E0
S214008C206478844201D1C81830BDCC5C2500F3D1ED
S214008C30002030BD38B50446DFF85C59607804285B
S214008C40A8692ED040084000A86104F10C01E27A21
S214008C500120FFF7DDFF002100B181782868012898
S214008C6002D0022807D009E0C80707D42046BDE88E
S214008C70324001F014B811F0030FF7D0607AE11C0F
S214008C80FFF7F2FEA8B104F0D9FA0028EED1A869E1
S214008C90EC6140F00200A861E01CBDE8324004F040
S214008CA0B4BAC10701D48107E0D5800701D52C628C
S214008CB031BD607A010003D10622E11C002009E0E4
S214008CC0012802BF207A00F0C000C02805D1062285
S214008CD0E11C012004F0B4FB00E0FF20A072224655
S214008CE0A969012060F30101A96140F20711BDE8FE
S214008CF03840DFF8A808FFF769BCF8B50D461746F8
S214008D00AF421E4639D3A91F40F67B42914234D269
S214008D10B7F5486F31DCB6F5FA7F2EDA069CA4F17B
S214008D200A0340F677418B4227D2721C07FB02F1FA
S214008D30B1EB840F21DAFF2807D1DFF85C08058144
S214008D4047818681C4810020F2BDFDF72DFD0028F5
S214008D501CBFC169102910D0C16B0094012933468D
S214008D603A46294606D1FFF758FA0028EBD140F2DA
S214008D708110F2BDFFF74AFDF2BD4FF4C070F2BDA0
S214008D8030B5039C2025234307D0DFF8143853F86A
S214008D902430022B14BF032BA025A84228BFA942CB
S214008DA00AD344F201039942B8BF984204DA8142DA
S214008DB002D3082A00DA0AB9002030BD012030BDEF
S214008DC0F8B50C46DFF8D0171E464B7D9842154680
S214008DD00ED24968182250430F1832467868C0B23F
S214008DE0009029463868C3B22046FFF7C9FF00B98D
S214008DF0C3E706F00700B8743C817D810698387595
S214008E00F86840F00100F86000F0EEF80020F2BDCF
S214008E1070B50D46DFF880171E464B7D04469C4213
S214008E2010461ED245B9FDF7B4FCD0B180F85140CB
S214008E300021BDE870402EE24868182111FB04F1BD
S214008E4008440021016041600C2000F00CFF020085
S214008E5007D01470556016814FF48471BDE87040D9
S214008E6047E770BD10B50C46FDF79EFC00B911E053
S214008E70C08D2146BDE81040FFF7CABA10B50C46B3
S214008E80FDF792FC00B905E0C08D2146BDE8104014
S214008E90FFF7CCBA4FF4C07010BD10B50C0082B00E
S214008EA004D0042C02DAFDF77FFC10B94FF4C07032
S214008EB016BD0021009123462246FFF753FA16BD41
S214008EC0010001D0042802DB4FF4C0707047024650
S214008ED00020FFF732BA10B543F6FD73041F9C421C
S214008EE03CBF0C1F9C4201D2884200D2D2E7DFF87A
S214008EF0A836188259821A75986940F00C00986155
S214008F0000F072F8002010BD2DE9F0438146DFF82E
S214008F1088061746427D914583B00E4698461DD278
S214008F200A9C210001D0390018D14068182111FB95
S214008F3009F14518052EB8BF042F0FDA022F05D108
S214008F40FDF789FC10B940F209204BE00097AA7C97
S214008F50698928893346FFF713FF10B94FF4C070AC
S214008F6040E02868864204BF6868874205D1298A9F
S214008F70884504BFE97C8C4233D0042E18BF57EADC
S214008F8006001ED0012E02D0022E02D003E00121E0
S214008F9002E0022100E00021686808B941F00401FF
S214008FA00022484600F089FA58B9E86840F0020006
S214008FB0E86000202860686000F016F84FF4C17082
S214008FC010E0A5F810802E606F60EC741CB1E868A5
S214008FD040F00400E860E86840F00300E86000F055
S214008FE003F80020BDE8FE8370B588B00025DFF8E2
S214008FF0A84500E06D1C617DE8B2884254D26068E6
S214009000EDB2182111FB05F14618E08A00284BD175
S214009010F06800220921FFF71FFDD8B1307D0590CA
S21400902000200490B07C039006A8029000200190D7
S214009030F07C00907168DFF8680550F821007289AE
S2140090403189C3B22846FEF7ACFFE082F0684008DC
S214009050400028E0F06800220C21FFF7FDFC90B1EC
S2140090606946062004F075FA9DF8051001F03F01E8
S2140090708DF8051028466946FEF7DBFFE082F068AB
S21400908020F004000FE0F06808220221FFF7E4FC5D
S21400909058B10023002200212846FFF72AF8E08274
S2140090A0F06840F00800F0604DE0F06800220A2109
S2140090B0FFF7D2FC80B1F06820F00A00F06070681C
S2140090C0002804BF3068002806D0338A0022012119
S2140090D02846FFF70EF835E0A66900221421304630
S2140090E0FFF7BAFC60B100200090628A218A207DDA
S2140090F00023FFF712F8E082A06920F004000DE0DC
S214009100102208213046FFF7A7FC48B100210020B6
S214009110FFF719F8E082A06940F01000A06112E0A5
S214009120002218213046FFF797FC00281FBF26F0C4
S2140091301800A061206800283FF45CAF00210120E1
S214009140FFF701F8E08208B070BD80B5032802DBA7
S2140091504FF4C07002BDDFF840140A6802B11AE08E
S214009160DFF8402452F820000860886940F00C00C0
S2140091708861FFF739FF002002BD80B5DFF81804CC
S2140091800168491E022906D800210160816941F064
S21400919008018161EDE740F2811002BD2DE9F0473C
S2140091A084B080460C9CDFF8F06300200D469146A4
S2140091B09A462060002708E071681822424311444E
S2140091C04968022908BF7F1C401C717D8842F3DB7A
S2140091D0F8B240B1FDF73FFBFFB2791C884202DAD5
S2140091E040F209200FE0307E800602D540F2811062
S2140091F009E005B1012529464046FDF73BFA070080
S21400920003D14FF4C170206017E00622414607F1F3
S2140092101400FDF721FFFD61CDF808A0CDF80490FD
S214009220F0890090B389728931893846FEF79CFF31
S214009230206020B13846FDF756FA00200AE0B069F3
S21400924040F02000B061384601F07AFC3846FDF761
S214009250F7FA384604B0BDE8F08710B50446FEF7C6
S2140092605CFE2046FDF73FFA002010BD30B50446F0
S21400927083B0206904280DD0019140F203250094A4
S2140092806A462946C548FFF7EEF96A46294620464B
S214009290FFF7E9F937BDF8B504460D461826BE4F68
S2140092A085B100F058F8082000F0DDFC002851D009
S2140092B04560046002462046BDE8F84040F20121C1
S2140092C0FFF784B91B20A4F8620094F85100FF2829
S2140092D002D1E06B01283DD1207BC00712D4E069A3
S2140092E004F11401FFF7C0FB60B194F9500010F1CF
S2140092F0010F07D10420206104F11400BDE8F240FC
S21400930003F083BF00F027F8204600F0FFFAE06B7A
S214009310022804BF204601F013FC0220206104202E
S21400932000F0A1FC020005D0146040F206219B4824
S214009330FFF74CF9042000F096FC30B104600246BA
S21400934040F202212046FFF741F92046BDE8F240F0
S214009350FFF7F0BBF1BDE06B012804D1B86920F03F
S2140093602000B861704794F851107868714308443B
S214009370002101604160704770B504460D460C2020
S21400938000F071FC06001DD004F145003460017841
S21400939011F0010131711CBF017801F002017171F9
S2140093A02946C07AB071B560204600F098F932467A
S2140093B04FF401712046FFF709F92046BDE87040DA
S2140093C0FFF7B8BB70BDFEB50F46032F0546164621
S2140093D034DB089C8C4228BF0C4602A9022004F00D
S2140093E0E2F800F064F8010028D00021ADF8001083
S2140093F001AB01466A46002004F06CFBBDF8002075
S2140094002146914288BF1146ADF800100199A9B9CE
S214009410BDF8001091B1891C8F420FDBBDF800101B
S214009420491C29706E700146BDF80020A81CFDF787
S21400943013FEBDF80000801CC0B2FEBD0020FEBDBD
S214009440DCB50E46032E04462FDB57480088ADF8E1
S21400945002000DF10201022004F0A5F800F027F842
S214009460010022D00020ADF8000001AB6A4604F0EF
S21400947031FBBDF800200927B11E914204DA082E00
S21400948013DBADF800100827BDF8001069B1491CC1
S214009490217067700146BDF80020A01CFDF7DCFDBA
S2140094A0BDF80000801CC0B2D6BD0020D6BD024666
S2140094B04FF6FF71012004F0F4BB30B589B00446C6
S2140094C002208DF80400012201A8009242708170EB
S2140094D042F607230A221C210DF10700FFF773FF4F
S2140094E0C51C04200090EDB2C5F11F0101A842F68C
S2140094F004231222C9B22844FFF765FF4519EDB2CE
S21400950001A8C5F11F01284404F09EFA4519EDB2E2
S214009510C5F11F0101A8C9B22844FFF791FF002832
S21400952001AA11D129462046FEF797FDC8B11F2192
S21400953001A8FFF785FF014601AA2046FEF7B8FD01
S21400954078B1012009B030BD4119C9B22046FEF7F6
S21400955084FD30B1002200212046FEF7A9FD002838
